{
  "_format": "hh-sol-artifact-1",
  "contractName": "SimpleAMA",
  "sourceName": "contracts/ama.sol",
  "abi": [
    {
      "inputs": [
        {
          "internalType": "address",
          "name": "newOwner",
          "type": "address"
        }
      ],
      "stateMutability": "nonpayable",
      "type": "constructor"
    },
    {
      "inputs": [],
      "name": "ERC725Y_DataKeysValuesEmptyArray",
      "type": "error"
    },
    {
      "inputs": [],
      "name": "ERC725Y_DataKeysValuesLengthMismatch",
      "type": "error"
    },
    {
      "inputs": [],
      "name": "ERC725Y_MsgValueDisallowed",
      "type": "error"
    },
    {
      "inputs": [
        {
          "internalType": "bytes",
          "name": "storedData",
          "type": "bytes"
        }
      ],
      "name": "InvalidExtensionAddress",
      "type": "error"
    },
    {
      "inputs": [
        {
          "internalType": "bytes",
          "name": "data",
          "type": "bytes"
        }
      ],
      "name": "InvalidFunctionSelector",
      "type": "error"
    },
    {
      "inputs": [],
      "name": "LSP4TokenNameNotEditable",
      "type": "error"
    },
    {
      "inputs": [],
      "name": "LSP4TokenSymbolNotEditable",
      "type": "error"
    },
    {
      "inputs": [],
      "name": "LSP4TokenTypeNotEditable",
      "type": "error"
    },
    {
      "inputs": [
        {
          "internalType": "address",
          "name": "tokenOwner",
          "type": "address"
        },
        {
          "internalType": "uint256",
          "name": "authorizedAmount",
          "type": "uint256"
        },
        {
          "internalType": "address",
          "name": "operator",
          "type": "address"
        },
        {
          "internalType": "uint256",
          "name": "amount",
          "type": "uint256"
        }
      ],
      "name": "LSP7AmountExceedsAuthorizedAmount",
      "type": "error"
    },
    {
      "inputs": [
        {
          "internalType": "uint256",
          "name": "balance",
          "type": "uint256"
        },
        {
          "internalType": "address",
          "name": "tokenOwner",
          "type": "address"
        },
        {
          "internalType": "uint256",
          "name": "amount",
          "type": "uint256"
        }
      ],
      "name": "LSP7AmountExceedsBalance",
      "type": "error"
    },
    {
      "inputs": [
        {
          "internalType": "uint256",
          "name": "callIndex",
          "type": "uint256"
        }
      ],
      "name": "LSP7BatchCallFailed",
      "type": "error"
    },
    {
      "inputs": [],
      "name": "LSP7CannotSendWithAddressZero",
      "type": "error"
    },
    {
      "inputs": [],
      "name": "LSP7CannotUseAddressZeroAsOperator",
      "type": "error"
    },
    {
      "inputs": [
        {
          "internalType": "address",
          "name": "caller",
          "type": "address"
        },
        {
          "internalType": "address",
          "name": "tokenOwner",
          "type": "address"
        },
        {
          "internalType": "address",
          "name": "operator",
          "type": "address"
        }
      ],
      "name": "LSP7DecreaseAllowanceNotAuthorized",
      "type": "error"
    },
    {
      "inputs": [],
      "name": "LSP7DecreasedAllowanceBelowZero",
      "type": "error"
    },
    {
      "inputs": [],
      "name": "LSP7InvalidTransferBatch",
      "type": "error"
    },
    {
      "inputs": [
        {
          "internalType": "address",
          "name": "tokenReceiver",
          "type": "address"
        }
      ],
      "name": "LSP7NotifyTokenReceiverContractMissingLSP1Interface",
      "type": "error"
    },
    {
      "inputs": [
        {
          "internalType": "address",
          "name": "tokenReceiver",
          "type": "address"
        }
      ],
      "name": "LSP7NotifyTokenReceiverIsEOA",
      "type": "error"
    },
    {
      "inputs": [
        {
          "internalType": "address",
          "name": "caller",
          "type": "address"
        },
        {
          "internalType": "address",
          "name": "tokenOwner",
          "type": "address"
        },
        {
          "internalType": "address",
          "name": "operator",
          "type": "address"
        }
      ],
      "name": "LSP7RevokeOperatorNotAuthorized",
      "type": "error"
    },
    {
      "inputs": [],
      "name": "LSP7TokenContractCannotHoldValue",
      "type": "error"
    },
    {
      "inputs": [],
      "name": "LSP7TokenOwnerCannotBeOperator",
      "type": "error"
    },
    {
      "inputs": [
        {
          "internalType": "bytes4",
          "name": "functionSelector",
          "type": "bytes4"
        }
      ],
      "name": "NoExtensionFoundForFunctionSelector",
      "type": "error"
    },
    {
      "inputs": [
        {
          "internalType": "address",
          "name": "operator",
          "type": "address"
        }
      ],
      "name": "OperatorAllowanceCannotBeIncreasedFromZero",
      "type": "error"
    },
    {
      "inputs": [],
      "name": "OwnableCannotSetZeroAddressAsOwner",
      "type": "error"
    },
    {
      "anonymous": false,
      "inputs": [
        {
          "indexed": true,
          "internalType": "bytes32",
          "name": "dataKey",
          "type": "bytes32"
        },
        {
          "indexed": false,
          "internalType": "bytes",
          "name": "dataValue",
          "type": "bytes"
        }
      ],
      "name": "DataChanged",
      "type": "event"
    },
    {
      "anonymous": false,
      "inputs": [
        {
          "indexed": true,
          "internalType": "address",
          "name": "operator",
          "type": "address"
        },
        {
          "indexed": true,
          "internalType": "address",
          "name": "tokenOwner",
          "type": "address"
        },
        {
          "indexed": true,
          "internalType": "uint256",
          "name": "amount",
          "type": "uint256"
        },
        {
          "indexed": false,
          "internalType": "bytes",
          "name": "operatorNotificationData",
          "type": "bytes"
        }
      ],
      "name": "OperatorAuthorizationChanged",
      "type": "event"
    },
    {
      "anonymous": false,
      "inputs": [
        {
          "indexed": true,
          "internalType": "address",
          "name": "operator",
          "type": "address"
        },
        {
          "indexed": true,
          "internalType": "address",
          "name": "tokenOwner",
          "type": "address"
        },
        {
          "indexed": true,
          "internalType": "bool",
          "name": "notified",
          "type": "bool"
        },
        {
          "indexed": false,
          "internalType": "bytes",
          "name": "operatorNotificationData",
          "type": "bytes"
        }
      ],
      "name": "OperatorRevoked",
      "type": "event"
    },
    {
      "anonymous": false,
      "inputs": [
        {
          "indexed": true,
          "internalType": "address",
          "name": "previousOwner",
          "type": "address"
        },
        {
          "indexed": true,
          "internalType": "address",
          "name": "newOwner",
          "type": "address"
        }
      ],
      "name": "OwnershipTransferred",
      "type": "event"
    },
    {
      "anonymous": false,
      "inputs": [
        {
          "indexed": true,
          "internalType": "address",
          "name": "operator",
          "type": "address"
        },
        {
          "indexed": true,
          "internalType": "address",
          "name": "from",
          "type": "address"
        },
        {
          "indexed": true,
          "internalType": "address",
          "name": "to",
          "type": "address"
        },
        {
          "indexed": false,
          "internalType": "uint256",
          "name": "amount",
          "type": "uint256"
        },
        {
          "indexed": false,
          "internalType": "bool",
          "name": "force",
          "type": "bool"
        },
        {
          "indexed": false,
          "internalType": "bytes",
          "name": "data",
          "type": "bytes"
        }
      ],
      "name": "Transfer",
      "type": "event"
    },
    {
      "stateMutability": "payable",
      "type": "fallback"
    },
    {
      "inputs": [
        {
          "internalType": "uint256",
          "name": "_questionId",
          "type": "uint256"
        },
        {
          "internalType": "string",
          "name": "_answerText",
          "type": "string"
        }
      ],
      "name": "answerQuestion",
      "outputs": [],
      "stateMutability": "nonpayable",
      "type": "function"
    },
    {
      "inputs": [
        {
          "internalType": "address",
          "name": "operator",
          "type": "address"
        },
        {
          "internalType": "uint256",
          "name": "amount",
          "type": "uint256"
        },
        {
          "internalType": "bytes",
          "name": "operatorNotificationData",
          "type": "bytes"
        }
      ],
      "name": "authorizeOperator",
      "outputs": [],
      "stateMutability": "nonpayable",
      "type": "function"
    },
    {
      "inputs": [
        {
          "internalType": "address",
          "name": "operator",
          "type": "address"
        },
        {
          "internalType": "address",
          "name": "tokenOwner",
          "type": "address"
        }
      ],
      "name": "authorizedAmountFor",
      "outputs": [
        {
          "internalType": "uint256",
          "name": "",
          "type": "uint256"
        }
      ],
      "stateMutability": "view",
      "type": "function"
    },
    {
      "inputs": [
        {
          "internalType": "address",
          "name": "tokenOwner",
          "type": "address"
        }
      ],
      "name": "balanceOf",
      "outputs": [
        {
          "internalType": "uint256",
          "name": "",
          "type": "uint256"
        }
      ],
      "stateMutability": "view",
      "type": "function"
    },
    {
      "inputs": [
        {
          "internalType": "bytes[]",
          "name": "data",
          "type": "bytes[]"
        }
      ],
      "name": "batchCalls",
      "outputs": [
        {
          "internalType": "bytes[]",
          "name": "results",
          "type": "bytes[]"
        }
      ],
      "stateMutability": "nonpayable",
      "type": "function"
    },
    {
      "inputs": [],
      "name": "claimFreeToken",
      "outputs": [],
      "stateMutability": "nonpayable",
      "type": "function"
    },
    {
      "inputs": [],
      "name": "decimals",
      "outputs": [
        {
          "internalType": "uint8",
          "name": "",
          "type": "uint8"
        }
      ],
      "stateMutability": "view",
      "type": "function"
    },
    {
      "inputs": [
        {
          "internalType": "address",
          "name": "operator",
          "type": "address"
        },
        {
          "internalType": "address",
          "name": "tokenOwner",
          "type": "address"
        },
        {
          "internalType": "uint256",
          "name": "subtractedAmount",
          "type": "uint256"
        },
        {
          "internalType": "bytes",
          "name": "operatorNotificationData",
          "type": "bytes"
        }
      ],
      "name": "decreaseAllowance",
      "outputs": [],
      "stateMutability": "nonpayable",
      "type": "function"
    },
    {
      "inputs": [],
      "name": "getAllQuestions",
      "outputs": [
        {
          "components": [
            {
              "internalType": "address",
              "name": "sender",
              "type": "address"
            },
            {
              "internalType": "string",
              "name": "questionText",
              "type": "string"
            },
            {
              "internalType": "string",
              "name": "answerText",
              "type": "string"
            },
            {
              "internalType": "bool",
              "name": "answered",
              "type": "bool"
            }
          ],
          "internalType": "struct SimpleAMA.Question[]",
          "name": "",
          "type": "tuple[]"
        }
      ],
      "stateMutability": "view",
      "type": "function"
    },
    {
      "inputs": [
        {
          "internalType": "bytes32",
          "name": "dataKey",
          "type": "bytes32"
        }
      ],
      "name": "getData",
      "outputs": [
        {
          "internalType": "bytes",
          "name": "dataValue",
          "type": "bytes"
        }
      ],
      "stateMutability": "view",
      "type": "function"
    },
    {
      "inputs": [
        {
          "internalType": "bytes32[]",
          "name": "dataKeys",
          "type": "bytes32[]"
        }
      ],
      "name": "getDataBatch",
      "outputs": [
        {
          "internalType": "bytes[]",
          "name": "dataValues",
          "type": "bytes[]"
        }
      ],
      "stateMutability": "view",
      "type": "function"
    },
    {
      "inputs": [
        {
          "internalType": "address",
          "name": "user",
          "type": "address"
        }
      ],
      "name": "getFQTBalance",
      "outputs": [
        {
          "internalType": "uint256",
          "name": "",
          "type": "uint256"
        }
      ],
      "stateMutability": "view",
      "type": "function"
    },
    {
      "inputs": [
        {
          "internalType": "address",
          "name": "tokenOwner",
          "type": "address"
        }
      ],
      "name": "getOperatorsOf",
      "outputs": [
        {
          "internalType": "address[]",
          "name": "",
          "type": "address[]"
        }
      ],
      "stateMutability": "view",
      "type": "function"
    },
    {
      "inputs": [
        {
          "internalType": "address",
          "name": "",
          "type": "address"
        }
      ],
      "name": "hasReceivedToken",
      "outputs": [
        {
          "internalType": "bool",
          "name": "",
          "type": "bool"
        }
      ],
      "stateMutability": "view",
      "type": "function"
    },
    {
      "inputs": [
        {
          "internalType": "address",
          "name": "user",
          "type": "address"
        }
      ],
      "name": "hasSubmittedQuestion",
      "outputs": [
        {
          "internalType": "bool",
          "name": "",
          "type": "bool"
        }
      ],
      "stateMutability": "view",
      "type": "function"
    },
    {
      "inputs": [
        {
          "internalType": "address",
          "name": "operator",
          "type": "address"
        },
        {
          "internalType": "uint256",
          "name": "addedAmount",
          "type": "uint256"
        },
        {
          "internalType": "bytes",
          "name": "operatorNotificationData",
          "type": "bytes"
        }
      ],
      "name": "increaseAllowance",
      "outputs": [],
      "stateMutability": "nonpayable",
      "type": "function"
    },
    {
      "inputs": [],
      "name": "owner",
      "outputs": [
        {
          "internalType": "address",
          "name": "",
          "type": "address"
        }
      ],
      "stateMutability": "view",
      "type": "function"
    },
    {
      "inputs": [],
      "name": "profileOwner",
      "outputs": [
        {
          "internalType": "address",
          "name": "",
          "type": "address"
        }
      ],
      "stateMutability": "view",
      "type": "function"
    },
    {
      "inputs": [],
      "name": "questionCounter",
      "outputs": [
        {
          "internalType": "uint256",
          "name": "",
          "type": "uint256"
        }
      ],
      "stateMutability": "view",
      "type": "function"
    },
    {
      "inputs": [
        {
          "internalType": "uint256",
          "name": "",
          "type": "uint256"
        }
      ],
      "name": "questions",
      "outputs": [
        {
          "internalType": "address",
          "name": "sender",
          "type": "address"
        },
        {
          "internalType": "string",
          "name": "questionText",
          "type": "string"
        },
        {
          "internalType": "string",
          "name": "answerText",
          "type": "string"
        },
        {
          "internalType": "bool",
          "name": "answered",
          "type": "bool"
        }
      ],
      "stateMutability": "view",
      "type": "function"
    },
    {
      "inputs": [],
      "name": "renounceOwnership",
      "outputs": [],
      "stateMutability": "nonpayable",
      "type": "function"
    },
    {
      "inputs": [
        {
          "internalType": "address",
          "name": "operator",
          "type": "address"
        },
        {
          "internalType": "address",
          "name": "tokenOwner",
          "type": "address"
        },
        {
          "internalType": "bool",
          "name": "notify",
          "type": "bool"
        },
        {
          "internalType": "bytes",
          "name": "operatorNotificationData",
          "type": "bytes"
        }
      ],
      "name": "revokeOperator",
      "outputs": [],
      "stateMutability": "nonpayable",
      "type": "function"
    },
    {
      "inputs": [
        {
          "internalType": "bytes32",
          "name": "dataKey",
          "type": "bytes32"
        },
        {
          "internalType": "bytes",
          "name": "dataValue",
          "type": "bytes"
        }
      ],
      "name": "setData",
      "outputs": [],
      "stateMutability": "payable",
      "type": "function"
    },
    {
      "inputs": [
        {
          "internalType": "bytes32[]",
          "name": "dataKeys",
          "type": "bytes32[]"
        },
        {
          "internalType": "bytes[]",
          "name": "dataValues",
          "type": "bytes[]"
        }
      ],
      "name": "setDataBatch",
      "outputs": [],
      "stateMutability": "payable",
      "type": "function"
    },
    {
      "inputs": [
        {
          "internalType": "string",
          "name": "_questionText",
          "type": "string"
        }
      ],
      "name": "submitQuestion",
      "outputs": [],
      "stateMutability": "nonpayable",
      "type": "function"
    },
    {
      "inputs": [
        {
          "internalType": "bytes4",
          "name": "interfaceId",
          "type": "bytes4"
        }
      ],
      "name": "supportsInterface",
      "outputs": [
        {
          "internalType": "bool",
          "name": "",
          "type": "bool"
        }
      ],
      "stateMutability": "view",
      "type": "function"
    },
    {
      "inputs": [],
      "name": "totalSupply",
      "outputs": [
        {
          "internalType": "uint256",
          "name": "",
          "type": "uint256"
        }
      ],
      "stateMutability": "view",
      "type": "function"
    },
    {
      "inputs": [
        {
          "internalType": "address",
          "name": "from",
          "type": "address"
        },
        {
          "internalType": "address",
          "name": "to",
          "type": "address"
        },
        {
          "internalType": "uint256",
          "name": "amount",
          "type": "uint256"
        },
        {
          "internalType": "bool",
          "name": "force",
          "type": "bool"
        },
        {
          "internalType": "bytes",
          "name": "data",
          "type": "bytes"
        }
      ],
      "name": "transfer",
      "outputs": [],
      "stateMutability": "nonpayable",
      "type": "function"
    },
    {
      "inputs": [
        {
          "internalType": "address[]",
          "name": "from",
          "type": "address[]"
        },
        {
          "internalType": "address[]",
          "name": "to",
          "type": "address[]"
        },
        {
          "internalType": "uint256[]",
          "name": "amount",
          "type": "uint256[]"
        },
        {
          "internalType": "bool[]",
          "name": "force",
          "type": "bool[]"
        },
        {
          "internalType": "bytes[]",
          "name": "data",
          "type": "bytes[]"
        }
      ],
      "name": "transferBatch",
      "outputs": [],
      "stateMutability": "nonpayable",
      "type": "function"
    },
    {
      "inputs": [
        {
          "internalType": "address",
          "name": "newOwner",
          "type": "address"
        }
      ],
      "name": "transferOwnership",
      "outputs": [],
      "stateMutability": "nonpayable",
      "type": "function"
    },
    {
      "stateMutability": "payable",
      "type": "receive"
    }
  ],
  "bytecode": "0x60806040523480156200001157600080fd5b5060405162005efa38038062005efa833981810160405281019062000037919062000471565b6040518060400160405280601381526020017f46726565205175657374696f6e20546f6b656e000000000000000000000000008152506040518060400160405280600381526020017f4651540000000000000000000000000000000000000000000000000000000000815250826000808484848481620000cc620000c0620002da60201b60201c565b620002e260201b60201c565b600073ffffffffffffffffffffffffffffffffffffffff168173ffffffffffffffffffffffffffffffffffffffff160362000133576040517f1ad8836c00000000000000000000000000000000000000000000000000000000815260040160405180910390fd5b6200014481620002e260201b60201c565b50620001af7feafec4d89fa9619884b60000a4d96624a38f7ac2d8d9a604ecf07c12c77e480c60001b6040518060400160405280600481526020017fa4d9662400000000000000000000000000000000000000000000000000000000815250620003a660201b60201c565b620001e47fdeba1e292f8ba88238e10ab3c7f88bd4be4fac56cad5194b6ecceaf653468af160001b85620003a660201b60201c565b620002197f2f0a68ab07768e01943a599e73362a0e17a63a72e94dd2e384d2c1d4db93275660001b84620003a660201b60201c565b6200026f7fe0261fa95db2eb3b5439bd033cda66d56b96f92f243a8228fd87550ed7bdfdb360001b82604051602001620002549190620004be565b604051602081830303815290604052620003a660201b60201c565b5050505080600260006101000a81548160ff021916908315150217905550505050505080600760006101000a81548173ffffffffffffffffffffffffffffffffffffffff021916908373ffffffffffffffffffffffffffffffffffffffff16021790555050620008e5565b600033905090565b60008060009054906101000a900473ffffffffffffffffffffffffffffffffffffffff169050816000806101000a81548173ffffffffffffffffffffffffffffffffffffffff021916908373ffffffffffffffffffffffffffffffffffffffff1602179055508173ffffffffffffffffffffffffffffffffffffffff168173ffffffffffffffffffffffffffffffffffffffff167f8be0079c531659141344cd1fd0a4f28419497f9722a3daafe3b4186f6b6457e060405160405180910390a35050565b80600160008481526020019081526020016000209081620003c891906200074b565b50817fece574603820d07bc9b91f2a932baadf4628aabcb8afba49776529c14a6104b282604051620003fb9190620008c1565b60405180910390a25050565b600080fd5b600073ffffffffffffffffffffffffffffffffffffffff82169050919050565b600062000439826200040c565b9050919050565b6200044b816200042c565b81146200045757600080fd5b50565b6000815190506200046b8162000440565b92915050565b6000602082840312156200048a576200048962000407565b5b60006200049a848285016200045a565b91505092915050565b6000819050919050565b620004b881620004a3565b82525050565b6000602082019050620004d56000830184620004ad565b92915050565b600081519050919050565b7f4e487b7100000000000000000000000000000000000000000000000000000000600052604160045260246000fd5b7f4e487b7100000000000000000000000000000000000000000000000000000000600052602260045260246000fd5b600060028204905060018216806200055d57607f821691505b60208210810362000573576200057262000515565b5b50919050565b60008190508160005260206000209050919050565b60006020601f8301049050919050565b600082821b905092915050565b600060088302620005dd7fffffffffffffffffffffffffffffffffffffffffffffffffffffffffffffffff826200059e565b620005e986836200059e565b95508019841693508086168417925050509392505050565b6000819050919050565b60006200062c620006266200062084620004a3565b62000601565b620004a3565b9050919050565b6000819050919050565b62000648836200060b565b62000660620006578262000633565b848454620005ab565b825550505050565b600090565b6200067762000668565b620006848184846200063d565b505050565b5b81811015620006ac57620006a06000826200066d565b6001810190506200068a565b5050565b601f821115620006fb57620006c58162000579565b620006d0846200058e565b81016020851015620006e0578190505b620006f8620006ef856200058e565b83018262000689565b50505b505050565b600082821c905092915050565b6000620007206000198460080262000700565b1980831691505092915050565b60006200073b83836200070d565b9150826002028217905092915050565b6200075682620004db565b67ffffffffffffffff811115620007725762000771620004e6565b5b6200077e825462000544565b6200078b828285620006b0565b600060209050601f831160018114620007c35760008415620007ae578287015190505b620007ba85826200072d565b8655506200082a565b601f198416620007d38662000579565b60005b82811015620007fd57848901518255600182019150602085019450602081019050620007d6565b868310156200081d578489015162000819601f8916826200070d565b8355505b6001600288020188555050505b505050505050565b600082825260208201905092915050565b60005b838110156200086357808201518184015260208101905062000846565b60008484015250505050565b6000601f19601f8301169050919050565b60006200088d82620004db565b62000899818562000832565b9350620008ab81856020860162000843565b620008b6816200086f565b840191505092915050565b60006020820190508181036000830152620008dd818462000880565b905092915050565b61560580620008f56000396000f3fe6080604052600436106101d15760003560e01c8063715018a6116100f75780639790242111610095578063b7b064a811610064578063b7b064a814610760578063d72fc29a1461078b578063dedff9c6146107c8578063f2fde38b146108055761024b565b806397902421146106d9578063ac0f05f6146106f5578063adcea55a14610720578063b49506fd146107375761024b565b806378381670116100d1578063783816701461062c5780637f23690c14610655578063821dc5d1146106715780638da5cb5b146106ae5761024b565b8063715018a6146105af57806373a6f6a6146105c6578063760d9bba146106035761024b565b806330d0dc371161016f57806354f6127f1161013e57806354f6127f146104bb57806365aeaa95146104f85780636963d4381461053557806370a08231146105725761024b565b806330d0dc37146103fe578063313ce5671461042757806331b1b97814610452578063447e52a0146104925761024b565b806318160ddd116101ab57806318160ddd146103565780632af9338e146103815780632bc1da82146103ac5780632d7667c9146103d55761024b565b806301ffc9a7146102b3578063099ee6f2146102f05780630f86c618146103195761024b565b3661024b5760003403610219576040517fe5099ee3000000000000000000000000000000000000000000000000000000008152600401610210906132cb565b60405180910390fd5b6040517f388f5adc00000000000000000000000000000000000000000000000000000000815260040160405180910390fd5b600036606060046000369050101561029c5782826040517fe5099ee3000000000000000000000000000000000000000000000000000000008152600401610293929190613338565b60405180910390fd5b6102a6838361082e565b9050915050805190602001f35b3480156102bf57600080fd5b506102da60048036038101906102d591906133c8565b6109ac565b6040516102e79190613410565b60405180910390f35b3480156102fc57600080fd5b5061031760048036038101906103129190613551565b610a1d565b005b34801561032557600080fd5b50610340600480360381019061033b91906135f8565b610bc7565b60405161034d9190613410565b60405180910390f35b34801561036257600080fd5b5061036b610c69565b604051610378919061363e565b60405180910390f35b34801561038d57600080fd5b50610396610c73565b6040516103a39190613822565b60405180910390f35b3480156103b857600080fd5b506103d360048036038101906103ce9190613911565b610ed7565b005b3480156103e157600080fd5b506103fc60048036038101906103f79190613cdb565b610f82565b005b34801561040a57600080fd5b5061042560048036038101906104209190613de2565b611096565b005b34801561043357600080fd5b5061043c611193565b6040516104499190613e81565b60405180910390f35b34801561045e57600080fd5b5061047960048036038101906104749190613e9c565b6111b8565b6040516104899493929190613f22565b60405180910390f35b34801561049e57600080fd5b506104b960048036038101906104b49190613f75565b611325565b005b3480156104c757600080fd5b506104e260048036038101906104dd9190614007565b611445565b6040516104ef9190614078565b60405180910390f35b34801561050457600080fd5b5061051f600480360381019061051a919061409a565b611457565b60405161052c919061363e565b60405180910390f35b34801561054157600080fd5b5061055c60048036038101906105579190614135565b611559565b604051610569919061428e565b60405180910390f35b34801561057e57600080fd5b50610599600480360381019061059491906135f8565b6116d5565b6040516105a6919061363e565b60405180910390f35b3480156105bb57600080fd5b506105c461171e565b005b3480156105d257600080fd5b506105ed60048036038101906105e891906135f8565b611732565b6040516105fa9190613410565b60405180910390f35b34801561060f57600080fd5b5061062a600480360381019061062591906142b0565b611752565b005b34801561063857600080fd5b50610653600480360381019061064e9190614347565b6117a5565b005b61066f600480360381019061066a91906143ca565b6118eb565b005b34801561067d57600080fd5b50610698600480360381019061069391906135f8565b61193b565b6040516106a5919061363e565b60405180910390f35b3480156106ba57600080fd5b506106c361194d565b6040516106d09190614426565b60405180910390f35b6106f360048036038101906106ee9190614504565b611976565b005b34801561070157600080fd5b5061070a6119c6565b6040516107179190614426565b60405180910390f35b34801561072c57600080fd5b506107356119ec565b005b34801561074357600080fd5b5061075e60048036038101906107599190613911565b611b1d565b005b34801561076c57600080fd5b50610775611b63565b604051610782919061363e565b60405180910390f35b34801561079757600080fd5b506107b260048036038101906107ad91906135f8565b611b69565b6040516107bf919061462b565b60405180910390f35b3480156107d457600080fd5b506107ef60048036038101906107ea919061464d565b611bb9565b6040516107fc919061428e565b60405180910390f35b34801561081157600080fd5b5061082c600480360381019061082791906135f8565b611c6a565b005b6060600061085f6000357fffffffff0000000000000000000000000000000000000000000000000000000016611ced565b509050600073ffffffffffffffffffffffffffffffffffffffff168173ffffffffffffffffffffffffffffffffffffffff16036108f7576000357fffffffff00000000000000000000000000000000000000000000000000000000166040517fbb370b2b0000000000000000000000000000000000000000000000000000000081526004016108ee91906146a5565b60405180910390fd5b6000808273ffffffffffffffffffffffffffffffffffffffff1634878733346040516020016109299493929190614759565b60405160208183030381529060405260405161094591906147c5565b60006040518083038185875af1925050503d8060008114610982576040519150601f19603f3d011682016040523d82523d6000602084013e610987565b606091505b5091509150811561099d578093505050506109a6565b80518060208301fd5b92915050565b600063c52d600860e01b7bffffffffffffffffffffffffffffffffffffffffffffffffffffffff1916827bffffffffffffffffffffffffffffffffffffffffffffffffffffffff19161480610a065750610a0582611da7565b5b80610a165750610a1582611e08565b5b9050919050565b670de0b6b3a7640000610a2f336116d5565b1015610a70576040517f08c379a0000000000000000000000000000000000000000000000000000000008152600401610a679061484e565b60405180910390fd5b60086000815480929190610a839061489d565b919050555060405180608001604052803373ffffffffffffffffffffffffffffffffffffffff1681526020018281526020016040518060200160405280600081525081526020016000151581525060096000600854815260200190815260200160002060008201518160000160006101000a81548173ffffffffffffffffffffffffffffffffffffffff021916908373ffffffffffffffffffffffffffffffffffffffff1602179055506020820151816001019081610b429190614af1565b506040820151816002019081610b589190614af1565b5060608201518160030160006101000a81548160ff021916908315150217905550905050610bc433670de0b6b3a76400006040518060400160405280601f81526020017f4275726e20746f6b656e20746f207375626d69742061207175657374696f6e00815250611e6f565b50565b600080600190505b6008548111610c5e578273ffffffffffffffffffffffffffffffffffffffff166009600083815260200190815260200160002060000160009054906101000a900473ffffffffffffffffffffffffffffffffffffffff1673ffffffffffffffffffffffffffffffffffffffff1603610c4b576001915050610c64565b8080610c569061489d565b915050610bcf565b50600090505b919050565b6000600354905090565b6060600060085467ffffffffffffffff811115610c9357610c92613435565b5b604051908082528060200260200182016040528015610ccc57816020015b610cb961324e565b815260200190600190039081610cb15790505b5090506000600190505b6008548111610ecf57600960008281526020019081526020016000206040518060800160405290816000820160009054906101000a900473ffffffffffffffffffffffffffffffffffffffff1673ffffffffffffffffffffffffffffffffffffffff1673ffffffffffffffffffffffffffffffffffffffff168152602001600182018054610d6390614914565b80601f0160208091040260200160405190810160405280929190818152602001828054610d8f90614914565b8015610ddc5780601f10610db157610100808354040283529160200191610ddc565b820191906000526020600020905b815481529060010190602001808311610dbf57829003601f168201915b50505050508152602001600282018054610df590614914565b80601f0160208091040260200160405190810160405280929190818152602001828054610e2190614914565b8015610e6e5780601f10610e4357610100808354040283529160200191610e6e565b820191906000526020600020905b815481529060010190602001808311610e5157829003601f168201915b505050505081526020016003820160009054906101000a900460ff16151515158152505082600183610ea09190614bc3565b81518110610eb157610eb0614bf7565b5b60200260200101819052508080610ec79061489d565b915050610cd6565b508091505090565b6000610ee38433611457565b905060008103610f2a57836040517fcba6e977000000000000000000000000000000000000000000000000000000008152600401610f219190614426565b60405180910390fd5b60008382610f389190614c26565b9050610f48338683600187611f3f565b6000338285604051602001610f5f93929190614c5a565b6040516020818303038152906040529050610f7a8682612212565b505050505050565b600085519050845181141580610f99575083518114155b80610fa5575082518114155b80610fb1575081518114155b15610fe8576040517f263eee8d00000000000000000000000000000000000000000000000000000000815260040160405180910390fd5b60005b8181101561108d5761108287828151811061100957611008614bf7565b5b602002602001015187838151811061102457611023614bf7565b5b602002602001015187848151811061103f5761103e614bf7565b5b602002602001015187858151811061105a57611059614bf7565b5b602002602001015187868151811061107557611074614bf7565b5b6020026020010151611752565b806001019050610feb565b50505050505050565b8273ffffffffffffffffffffffffffffffffffffffff163373ffffffffffffffffffffffffffffffffffffffff16141580156110fe57508373ffffffffffffffffffffffffffffffffffffffff163373ffffffffffffffffffffffffffffffffffffffff1614155b15611144573383856040517f1a525b3200000000000000000000000000000000000000000000000000000000815260040161113b93929190614c98565b60405180910390fd5b611152838560008585611f3f565b811561118d5760008360008360405160200161117093929190614d0a565b604051602081830303815290604052905061118b8582612212565b505b50505050565b6000600260009054906101000a900460ff166111b05760126111b3565b60005b905090565b60096020528060005260406000206000915090508060000160009054906101000a900473ffffffffffffffffffffffffffffffffffffffff169080600101805461120190614914565b80601f016020809104026020016040519081016040528092919081815260200182805461122d90614914565b801561127a5780601f1061124f5761010080835404028352916020019161127a565b820191906000526020600020905b81548152906001019060200180831161125d57829003601f168201915b50505050509080600201805461128f90614914565b80601f01602080910402602001604051908101604052809291908181526020018280546112bb90614914565b80156113085780601f106112dd57610100808354040283529160200191611308565b820191906000526020600020905b8154815290600101906020018083116112eb57829003601f168201915b5050505050908060030160009054906101000a900460ff16905084565b600760009054906101000a900473ffffffffffffffffffffffffffffffffffffffff1673ffffffffffffffffffffffffffffffffffffffff163373ffffffffffffffffffffffffffffffffffffffff16146113b5576040517f08c379a00000000000000000000000000000000000000000000000000000000081526004016113ac90614dba565b60405180910390fd5b6008548211156113fa576040517f08c379a00000000000000000000000000000000000000000000000000000000081526004016113f190614e26565b60405180910390fd5b6000600960008481526020019081526020016000209050818160020190816114229190614af1565b5060018160030160006101000a81548160ff021916908315150217905550505050565b606061145082612244565b9050919050565b60008273ffffffffffffffffffffffffffffffffffffffff168273ffffffffffffffffffffffffffffffffffffffff16036114d357600460008373ffffffffffffffffffffffffffffffffffffffff1673ffffffffffffffffffffffffffffffffffffffff168152602001908152602001600020549050611553565b600660008373ffffffffffffffffffffffffffffffffffffffff1673ffffffffffffffffffffffffffffffffffffffff16815260200190815260200160002060008473ffffffffffffffffffffffffffffffffffffffff1673ffffffffffffffffffffffffffffffffffffffff1681526020019081526020016000205490505b92915050565b60608282905067ffffffffffffffff81111561157857611577613435565b5b6040519080825280602002602001820160405280156115ab57816020015b60608152602001906001900390816115965790505b50905060005b838390508110156116ce576000803073ffffffffffffffffffffffffffffffffffffffff168686858181106115e9576115e8614bf7565b5b90506020028101906115fb9190614e55565b604051611609929190614eb8565b600060405180830381855af49150503d8060008114611644576040519150601f19603f3d011682016040523d82523d6000602084013e611649565b606091505b5091509150816116a25760008151146116655780518082602001fd5b826040517fb774c284000000000000000000000000000000000000000000000000000000008152600401611699919061363e565b60405180910390fd5b808484815181106116b6576116b5614bf7565b5b602002602001018190525082600101925050506115b1565b5092915050565b6000600460008373ffffffffffffffffffffffffffffffffffffffff1673ffffffffffffffffffffffffffffffffffffffff168152602001908152602001600020549050919050565b6117266122e9565b6117306000612367565b565b600a6020528060005260406000206000915054906101000a900460ff1681565b8473ffffffffffffffffffffffffffffffffffffffff163373ffffffffffffffffffffffffffffffffffffffff16146117915761179033868561242b565b5b61179e8585858585612530565b5050505050565b8273ffffffffffffffffffffffffffffffffffffffff163373ffffffffffffffffffffffffffffffffffffffff161415801561180d57508373ffffffffffffffffffffffffffffffffffffffff163373ffffffffffffffffffffffffffffffffffffffff1614155b15611853573383856040517f98ce294500000000000000000000000000000000000000000000000000000000815260040161184a93929190614c98565b60405180910390fd5b600061185f8585611457565b90508281101561189b576040517f0ef76c3500000000000000000000000000000000000000000000000000000000815260040160405180910390fd5b600083820390506118b0858783600187611f3f565b60008582856040516020016118c793929190614c5a565b60405160208183030381529060405290506118e28782612212565b50505050505050565b6118f36122e9565b6000341461192d576040517ff36ba73700000000000000000000000000000000000000000000000000000000815260040160405180910390fd5b611937828261263e565b5050565b6000611946826116d5565b9050919050565b60008060009054906101000a900473ffffffffffffffffffffffffffffffffffffffff16905090565b61197e6122e9565b600034146119b8576040517ff36ba73700000000000000000000000000000000000000000000000000000000815260040160405180910390fd5b6119c282826127af565b5050565b600760009054906101000a900473ffffffffffffffffffffffffffffffffffffffff1681565b600a60003373ffffffffffffffffffffffffffffffffffffffff1673ffffffffffffffffffffffffffffffffffffffff16815260200190815260200160002060009054906101000a900460ff1615611a79576040517f08c379a0000000000000000000000000000000000000000000000000000000008152600401611a7090614f1d565b60405180910390fd5b6001600a60003373ffffffffffffffffffffffffffffffffffffffff1673ffffffffffffffffffffffffffffffffffffffff16815260200190815260200160002060006101000a81548160ff021916908315150217905550611b1b33670de0b6b3a764000060016040518060400160405280601b81526020017f4672656520746f6b656e20666f7220414d41207175657374696f6e000000000081525061287f565b565b611b2b338484600185611f3f565b6000338383604051602001611b4293929190614c5a565b6040516020818303038152906040529050611b5d8482612212565b50505050565b60085481565b6060611bb2600560008473ffffffffffffffffffffffffffffffffffffffff1673ffffffffffffffffffffffffffffffffffffffff16815260200190815260200160002061294e565b9050919050565b6060815167ffffffffffffffff811115611bd657611bd5613435565b5b604051908082528060200260200182016040528015611c0957816020015b6060815260200190600190039081611bf45790505b50905060005b8251811015611c6457611c3b838281518110611c2e57611c2d614bf7565b5b6020026020010151612244565b828281518110611c4e57611c4d614bf7565b5b6020026020010181905250806001019050611c0f565b50919050565b611c726122e9565b600073ffffffffffffffffffffffffffffffffffffffff168173ffffffffffffffffffffffffffffffffffffffff1603611ce1576040517f08c379a0000000000000000000000000000000000000000000000000000000008152600401611cd890614faf565b60405180910390fd5b611cea81612367565b50565b6000806000611d2869cee78b4094da8601109660b01b857bffffffffffffffffffffffffffffffffffffffffffffffffffffffff191661296f565b90506000611d3582612244565b90506014815114158015611d4b57506000815114155b15611d8d57806040517f42bfe79f000000000000000000000000000000000000000000000000000000008152600401611d849190614078565b60405180910390fd5b80611d9790615020565b60601c6001935093505050915091565b600063a918fa6b60e01b7bffffffffffffffffffffffffffffffffffffffffffffffffffffffff1916827bffffffffffffffffffffffffffffffffffffffffffffffffffffffff19161480611e015750611e00826129af565b5b9050919050565b600080611e1b6301ffc9a760e01b611ced565b509050600073ffffffffffffffffffffffffffffffffffffffff168173ffffffffffffffffffffffffffffffffffffffff1603611e5c576000915050611e6a565b611e668184612a10565b9150505b919050565b600073ffffffffffffffffffffffffffffffffffffffff168373ffffffffffffffffffffffffffffffffffffffff1603611ed5576040517fd2d5ec3000000000000000000000000000000000000000000000000000000000815260040160405180910390fd5b611ee483600084600085612acf565b611ef383600084600085612ad6565b611f0283600084600085612d1b565b6000338460008585604051602001611f1e959493929190615087565b6040516020818303038152906040529050611f398482612d22565b50505050565b600073ffffffffffffffffffffffffffffffffffffffff168473ffffffffffffffffffffffffffffffffffffffff1603611fa5576040517f6355e76600000000000000000000000000000000000000000000000000000000815260040160405180910390fd5b8473ffffffffffffffffffffffffffffffffffffffff168473ffffffffffffffffffffffffffffffffffffffff160361200a576040517fdab7504700000000000000000000000000000000000000000000000000000000815260040160405180910390fd5b82600660008773ffffffffffffffffffffffffffffffffffffffff1673ffffffffffffffffffffffffffffffffffffffff16815260200190815260200160002060008673ffffffffffffffffffffffffffffffffffffffff1673ffffffffffffffffffffffffffffffffffffffff1681526020019081526020016000208190555060008314612150576120e484600560008873ffffffffffffffffffffffffffffffffffffffff1673ffffffffffffffffffffffffffffffffffffffff168152602001908152602001600020612d5490919063ffffffff16565b50828573ffffffffffffffffffffffffffffffffffffffff168573ffffffffffffffffffffffffffffffffffffffff167ff772a43bfdf4729b196e3fb54a818b91a2ca6c49d10b2e16278752f9f515c25d846040516121439190614078565b60405180910390a461220b565b6121a184600560008873ffffffffffffffffffffffffffffffffffffffff1673ffffffffffffffffffffffffffffffffffffffff168152602001908152602001600020612d8490919063ffffffff16565b508115158573ffffffffffffffffffffffffffffffffffffffff168573ffffffffffffffffffffffffffffffffffffffff167f0ebf5762d8855cbe012d2ca42fb33a81175e17c8a8751f8859931ba453bd4167846040516122029190614078565b60405180910390a45b5050505050565b612240827f386072cc5a58e61263b434c722725f21031cd06e7c552cfaa06db5de8a320dbc60001b83612db4565b5050565b606060016000838152602001908152602001600020805461226490614914565b80601f016020809104026020016040519081016040528092919081815260200182805461229090614914565b80156122dd5780601f106122b2576101008083540402835291602001916122dd565b820191906000526020600020905b8154815290600101906020018083116122c057829003601f168201915b50505050509050919050565b6122f1612e73565b73ffffffffffffffffffffffffffffffffffffffff1661230f61194d565b73ffffffffffffffffffffffffffffffffffffffff1614612365576040517f08c379a000000000000000000000000000000000000000000000000000000000815260040161235c9061512d565b60405180910390fd5b565b60008060009054906101000a900473ffffffffffffffffffffffffffffffffffffffff169050816000806101000a81548173ffffffffffffffffffffffffffffffffffffffff021916908373ffffffffffffffffffffffffffffffffffffffff1602179055508173ffffffffffffffffffffffffffffffffffffffff168173ffffffffffffffffffffffffffffffffffffffff167f8be0079c531659141344cd1fd0a4f28419497f9722a3daafe3b4186f6b6457e060405160405180910390a35050565b6000600660008473ffffffffffffffffffffffffffffffffffffffff1673ffffffffffffffffffffffffffffffffffffffff16815260200190815260200160002060008573ffffffffffffffffffffffffffffffffffffffff1673ffffffffffffffffffffffffffffffffffffffff16815260200190815260200160002054905060008114806124ba57508082115b1561250257828185846040517ff3a6b6910000000000000000000000000000000000000000000000000000000081526004016124f9949392919061514d565b60405180910390fd5b61252a838584846125139190614bc3565b600060405180602001604052806000815250611f3f565b50505050565b600073ffffffffffffffffffffffffffffffffffffffff168573ffffffffffffffffffffffffffffffffffffffff1614806125975750600073ffffffffffffffffffffffffffffffffffffffff168473ffffffffffffffffffffffffffffffffffffffff16145b156125ce576040517fd2d5ec3000000000000000000000000000000000000000000000000000000000815260040160405180910390fd5b6125db8585858585612acf565b6125e88585858585612ad6565b6125f58585858585612d1b565b60003386868685604051602001612610959493929190615087565b604051602081830303815290604052905061262b8682612d22565b612636858483612e7b565b505050505050565b7fdeba1e292f8ba88238e10ab3c7f88bd4be4fac56cad5194b6ecceaf653468af160001b820361269a576040517f85c169bd00000000000000000000000000000000000000000000000000000000815260040160405180910390fd5b7f2f0a68ab07768e01943a599e73362a0e17a63a72e94dd2e384d2c1d4db93275660001b82036126f6576040517f76755b3800000000000000000000000000000000000000000000000000000000815260040160405180910390fd5b7fe0261fa95db2eb3b5439bd033cda66d56b96f92f243a8228fd87550ed7bdfdb360001b8203612752576040517f4ef6d7fb00000000000000000000000000000000000000000000000000000000815260040160405180910390fd5b8060016000848152602001908152602001600020908161277291906151ed565b50817fece574603820d07bc9b91f2a932baadf4628aabcb8afba49776529c14a6104b2826040516127a39190614078565b60405180910390a25050565b80518251146127ea576040517f3bcc897900000000000000000000000000000000000000000000000000000000815260040160405180910390fd5b6000825103612825576040517f97da5f9500000000000000000000000000000000000000000000000000000000815260040160405180910390fd5b60005b825181101561287a5761286f83828151811061284757612846614bf7565b5b602002602001015183838151811061286257612861614bf7565b5b602002602001015161263e565b806001019050612828565b505050565b600073ffffffffffffffffffffffffffffffffffffffff168473ffffffffffffffffffffffffffffffffffffffff16036128e5576040517fd2d5ec3000000000000000000000000000000000000000000000000000000000815260040160405180910390fd5b6128f3600085858585612acf565b612901600085858585612ad6565b61290f600085858585612d1b565b600033600086868560405160200161292b959493929190615087565b6040516020818303038152906040529050612947858483612e7b565b5050505050565b6060600061295e83600001612fe1565b905060608190508092505050919050565b60008083600060f01b8460405160200161298b9392919061537a565b6040516020818303038152906040529050806129a6906153cc565b91505092915050565b600063629aa69460e01b7bffffffffffffffffffffffffffffffffffffffffffffffffffffffff1916827bffffffffffffffffffffffffffffffffffffffffffffffffffffffff19161480612a095750612a088261303d565b5b9050919050565b6000806301ffc9a760e01b83604051602401612a2c91906146a5565b604051602081830303815290604052907bffffffffffffffffffffffffffffffffffffffffffffffffffffffff19166020820180517bffffffffffffffffffffffffffffffffffffffffffffffffffffffff838183161783525050505090506000806000602060008551602087018a617530fa92503d91506000519050828015612ab7575060208210155b8015612ac35750600081115b94505050505092915050565b5050505050565b600073ffffffffffffffffffffffffffffffffffffffff168573ffffffffffffffffffffffffffffffffffffffff1603612b28578260036000828254612b1c9190614c26565b92505081905550612bfd565b6000600460008773ffffffffffffffffffffffffffffffffffffffff1673ffffffffffffffffffffffffffffffffffffffff16815260200190815260200160002054905083811015612bb5578086856040517f08d47949000000000000000000000000000000000000000000000000000000008152600401612bac93929190615433565b60405180910390fd5b838103600460008873ffffffffffffffffffffffffffffffffffffffff1673ffffffffffffffffffffffffffffffffffffffff16815260200190815260200160002081905550505b600073ffffffffffffffffffffffffffffffffffffffff168473ffffffffffffffffffffffffffffffffffffffff1603612c465782600360008282540392505081905550612c94565b82600460008673ffffffffffffffffffffffffffffffffffffffff1673ffffffffffffffffffffffffffffffffffffffff168152602001908152602001600020600082825401925050819055505b8373ffffffffffffffffffffffffffffffffffffffff168573ffffffffffffffffffffffffffffffffffffffff163373ffffffffffffffffffffffffffffffffffffffff167f3997e418d2cef0b3b0e907b1e39605c3f7d32dbd061e82ea5b4a770d46a160a6868686604051612d0c9392919061546a565b60405180910390a45050505050565b5050505050565b612d50827f429ac7a06903dbc9c13dfcb3c9d11df8194581fa047c96d7a4171fc7402958ea60001b83612db4565b5050565b6000612d7c836000018373ffffffffffffffffffffffffffffffffffffffff1660001b6130a7565b905092915050565b6000612dac836000018373ffffffffffffffffffffffffffffffffffffffff1660001b613117565b905092915050565b612de4636bb56a1460e01b8473ffffffffffffffffffffffffffffffffffffffff16612a1090919063ffffffff16565b15612e6e578273ffffffffffffffffffffffffffffffffffffffff16636bb56a1483836040518363ffffffff1660e01b8152600401612e249291906154b7565b6000604051808303816000875af1158015612e43573d6000803e3d6000fd5b505050506040513d6000823e3d601f19601f82011682018060405250810190612e6c9190615557565b505b505050565b600033905090565b612e8c83636bb56a1460e01b612a10565b15612f3d578273ffffffffffffffffffffffffffffffffffffffff16636bb56a147f20804611b3e2ea21c480dc465142210acf4a2485947541770ec1fb87dee4a55c60001b836040518363ffffffff1660e01b8152600401612eef9291906154b7565b6000604051808303816000875af1158015612f0e573d6000803e3d6000fd5b505050506040513d6000823e3d601f19601f82011682018060405250810190612f379190615557565b50612fdc565b81612fdb5760008373ffffffffffffffffffffffffffffffffffffffff163b14612f9e57826040517fa608fbb6000000000000000000000000000000000000000000000000000000008152600401612f959190614426565b60405180910390fd5b826040517f26c247f4000000000000000000000000000000000000000000000000000000008152600401612fd29190614426565b60405180910390fd5b5b505050565b60608160000180548060200260200160405190810160405280929190818152602001828054801561303157602002820191906000526020600020905b81548152602001906001019080831161301d575b50505050509050919050565b60007f01ffc9a7000000000000000000000000000000000000000000000000000000007bffffffffffffffffffffffffffffffffffffffffffffffffffffffff1916827bffffffffffffffffffffffffffffffffffffffffffffffffffffffff1916149050919050565b60006130b3838361322b565b61310c578260000182908060018154018082558091505060019003906000526020600020016000909190919091505582600001805490508360010160008481526020019081526020016000208190555060019050613111565b600090505b92915050565b6000808360010160008481526020019081526020016000205490506000811461321f5760006001826131499190614bc3565b90506000600186600001805490506131619190614bc3565b90508181146131d057600086600001828154811061318257613181614bf7565b5b90600052602060002001549050808760000184815481106131a6576131a5614bf7565b5b90600052602060002001819055508387600101600083815260200190815260200160002081905550505b856000018054806131e4576131e36155a0565b5b600190038181906000526020600020016000905590558560010160008681526020019081526020016000206000905560019350505050613225565b60009150505b92915050565b600080836001016000848152602001908152602001600020541415905092915050565b6040518060800160405280600073ffffffffffffffffffffffffffffffffffffffff16815260200160608152602001606081526020016000151581525090565b600082825260208201905092915050565b60008082015250565b60006132b560048361328e565b91506132c08261329f565b602082019050919050565b600060208201905081810360008301526132e4816132a8565b9050919050565b82818337600083830152505050565b6000601f19601f8301169050919050565b6000613317838561328e565b93506133248385846132eb565b61332d836132fa565b840190509392505050565b6000602082019050818103600083015261335381848661330b565b90509392505050565b6000604051905090565b600080fd5b600080fd5b60007fffffffff0000000000000000000000000000000000000000000000000000000082169050919050565b6133a581613370565b81146133b057600080fd5b50565b6000813590506133c28161339c565b92915050565b6000602082840312156133de576133dd613366565b5b60006133ec848285016133b3565b91505092915050565b60008115159050919050565b61340a816133f5565b82525050565b60006020820190506134256000830184613401565b92915050565b600080fd5b600080fd5b7f4e487b7100000000000000000000000000000000000000000000000000000000600052604160045260246000fd5b61346d826132fa565b810181811067ffffffffffffffff8211171561348c5761348b613435565b5b80604052505050565b600061349f61335c565b90506134ab8282613464565b919050565b600067ffffffffffffffff8211156134cb576134ca613435565b5b6134d4826132fa565b9050602081019050919050565b60006134f46134ef846134b0565b613495565b9050828152602081018484840111156135105761350f613430565b5b61351b8482856132eb565b509392505050565b600082601f8301126135385761353761342b565b5b81356135488482602086016134e1565b91505092915050565b60006020828403121561356757613566613366565b5b600082013567ffffffffffffffff8111156135855761358461336b565b5b61359184828501613523565b91505092915050565b600073ffffffffffffffffffffffffffffffffffffffff82169050919050565b60006135c58261359a565b9050919050565b6135d5816135ba565b81146135e057600080fd5b50565b6000813590506135f2816135cc565b92915050565b60006020828403121561360e5761360d613366565b5b600061361c848285016135e3565b91505092915050565b6000819050919050565b61363881613625565b82525050565b6000602082019050613653600083018461362f565b92915050565b600081519050919050565b600082825260208201905092915050565b6000819050602082019050919050565b61368e816135ba565b82525050565b600081519050919050565b600082825260208201905092915050565b60005b838110156136ce5780820151818401526020810190506136b3565b60008484015250505050565b60006136e582613694565b6136ef818561369f565b93506136ff8185602086016136b0565b613708816132fa565b840191505092915050565b61371c816133f5565b82525050565b600060808301600083015161373a6000860182613685565b506020830151848203602086015261375282826136da565b9150506040830151848203604086015261376c82826136da565b91505060608301516137816060860182613713565b508091505092915050565b60006137988383613722565b905092915050565b6000602082019050919050565b60006137b882613659565b6137c28185613664565b9350836020820285016137d485613675565b8060005b8581101561381057848403895281516137f1858261378c565b94506137fc836137a0565b925060208a019950506001810190506137d8565b50829750879550505050505092915050565b6000602082019050818103600083015261383c81846137ad565b905092915050565b61384d81613625565b811461385857600080fd5b50565b60008135905061386a81613844565b92915050565b600067ffffffffffffffff82111561388b5761388a613435565b5b613894826132fa565b9050602081019050919050565b60006138b46138af84613870565b613495565b9050828152602081018484840111156138d0576138cf613430565b5b6138db8482856132eb565b509392505050565b600082601f8301126138f8576138f761342b565b5b81356139088482602086016138a1565b91505092915050565b60008060006060848603121561392a57613929613366565b5b6000613938868287016135e3565b93505060206139498682870161385b565b925050604084013567ffffffffffffffff81111561396a5761396961336b565b5b613976868287016138e3565b9150509250925092565b600067ffffffffffffffff82111561399b5761399a613435565b5b602082029050602081019050919050565b600080fd5b60006139c46139bf84613980565b613495565b905080838252602082019050602084028301858111156139e7576139e66139ac565b5b835b81811015613a1057806139fc88826135e3565b8452602084019350506020810190506139e9565b5050509392505050565b600082601f830112613a2f57613a2e61342b565b5b8135613a3f8482602086016139b1565b91505092915050565b600067ffffffffffffffff821115613a6357613a62613435565b5b602082029050602081019050919050565b6000613a87613a8284613a48565b613495565b90508083825260208201905060208402830185811115613aaa57613aa96139ac565b5b835b81811015613ad35780613abf888261385b565b845260208401935050602081019050613aac565b5050509392505050565b600082601f830112613af257613af161342b565b5b8135613b02848260208601613a74565b91505092915050565b600067ffffffffffffffff821115613b2657613b25613435565b5b602082029050602081019050919050565b613b40816133f5565b8114613b4b57600080fd5b50565b600081359050613b5d81613b37565b92915050565b6000613b76613b7184613b0b565b613495565b90508083825260208201905060208402830185811115613b9957613b986139ac565b5b835b81811015613bc25780613bae8882613b4e565b845260208401935050602081019050613b9b565b5050509392505050565b600082601f830112613be157613be061342b565b5b8135613bf1848260208601613b63565b91505092915050565b600067ffffffffffffffff821115613c1557613c14613435565b5b602082029050602081019050919050565b6000613c39613c3484613bfa565b613495565b90508083825260208201905060208402830185811115613c5c57613c5b6139ac565b5b835b81811015613ca357803567ffffffffffffffff811115613c8157613c8061342b565b5b808601613c8e89826138e3565b85526020850194505050602081019050613c5e565b5050509392505050565b600082601f830112613cc257613cc161342b565b5b8135613cd2848260208601613c26565b91505092915050565b600080600080600060a08688031215613cf757613cf6613366565b5b600086013567ffffffffffffffff811115613d1557613d1461336b565b5b613d2188828901613a1a565b955050602086013567ffffffffffffffff811115613d4257613d4161336b565b5b613d4e88828901613a1a565b945050604086013567ffffffffffffffff811115613d6f57613d6e61336b565b5b613d7b88828901613add565b935050606086013567ffffffffffffffff811115613d9c57613d9b61336b565b5b613da888828901613bcc565b925050608086013567ffffffffffffffff811115613dc957613dc861336b565b5b613dd588828901613cad565b9150509295509295909350565b60008060008060808587031215613dfc57613dfb613366565b5b6000613e0a878288016135e3565b9450506020613e1b878288016135e3565b9350506040613e2c87828801613b4e565b925050606085013567ffffffffffffffff811115613e4d57613e4c61336b565b5b613e59878288016138e3565b91505092959194509250565b600060ff82169050919050565b613e7b81613e65565b82525050565b6000602082019050613e966000830184613e72565b92915050565b600060208284031215613eb257613eb1613366565b5b6000613ec08482850161385b565b91505092915050565b613ed2816135ba565b82525050565b600082825260208201905092915050565b6000613ef482613694565b613efe8185613ed8565b9350613f0e8185602086016136b0565b613f17816132fa565b840191505092915050565b6000608082019050613f376000830187613ec9565b8181036020830152613f498186613ee9565b90508181036040830152613f5d8185613ee9565b9050613f6c6060830184613401565b95945050505050565b60008060408385031215613f8c57613f8b613366565b5b6000613f9a8582860161385b565b925050602083013567ffffffffffffffff811115613fbb57613fba61336b565b5b613fc785828601613523565b9150509250929050565b6000819050919050565b613fe481613fd1565b8114613fef57600080fd5b50565b60008135905061400181613fdb565b92915050565b60006020828403121561401d5761401c613366565b5b600061402b84828501613ff2565b91505092915050565b600081519050919050565b600061404a82614034565b614054818561328e565b93506140648185602086016136b0565b61406d816132fa565b840191505092915050565b60006020820190508181036000830152614092818461403f565b905092915050565b600080604083850312156140b1576140b0613366565b5b60006140bf858286016135e3565b92505060206140d0858286016135e3565b9150509250929050565b600080fd5b60008083601f8401126140f5576140f461342b565b5b8235905067ffffffffffffffff811115614112576141116140da565b5b60208301915083602082028301111561412e5761412d6139ac565b5b9250929050565b6000806020838503121561414c5761414b613366565b5b600083013567ffffffffffffffff81111561416a5761416961336b565b5b614176858286016140df565b92509250509250929050565b600081519050919050565b600082825260208201905092915050565b6000819050602082019050919050565b600082825260208201905092915050565b60006141ca82614034565b6141d481856141ae565b93506141e48185602086016136b0565b6141ed816132fa565b840191505092915050565b600061420483836141bf565b905092915050565b6000602082019050919050565b600061422482614182565b61422e818561418d565b9350836020820285016142408561419e565b8060005b8581101561427c578484038952815161425d85826141f8565b94506142688361420c565b925060208a01995050600181019050614244565b50829750879550505050505092915050565b600060208201905081810360008301526142a88184614219565b905092915050565b600080600080600060a086880312156142cc576142cb613366565b5b60006142da888289016135e3565b95505060206142eb888289016135e3565b94505060406142fc8882890161385b565b935050606061430d88828901613b4e565b925050608086013567ffffffffffffffff81111561432e5761432d61336b565b5b61433a888289016138e3565b9150509295509295909350565b6000806000806080858703121561436157614360613366565b5b600061436f878288016135e3565b9450506020614380878288016135e3565b93505060406143918782880161385b565b925050606085013567ffffffffffffffff8111156143b2576143b161336b565b5b6143be878288016138e3565b91505092959194509250565b600080604083850312156143e1576143e0613366565b5b60006143ef85828601613ff2565b925050602083013567ffffffffffffffff8111156144105761440f61336b565b5b61441c858286016138e3565b9150509250929050565b600060208201905061443b6000830184613ec9565b92915050565b600067ffffffffffffffff82111561445c5761445b613435565b5b602082029050602081019050919050565b600061448061447b84614441565b613495565b905080838252602082019050602084028301858111156144a3576144a26139ac565b5b835b818110156144cc57806144b88882613ff2565b8452602084019350506020810190506144a5565b5050509392505050565b600082601f8301126144eb576144ea61342b565b5b81356144fb84826020860161446d565b91505092915050565b6000806040838503121561451b5761451a613366565b5b600083013567ffffffffffffffff8111156145395761453861336b565b5b614545858286016144d6565b925050602083013567ffffffffffffffff8111156145665761456561336b565b5b61457285828601613cad565b9150509250929050565b600081519050919050565b600082825260208201905092915050565b6000819050602082019050919050565b60006145b48383613685565b60208301905092915050565b6000602082019050919050565b60006145d88261457c565b6145e28185614587565b93506145ed83614598565b8060005b8381101561461e57815161460588826145a8565b9750614610836145c0565b9250506001810190506145f1565b5085935050505092915050565b6000602082019050818103600083015261464581846145cd565b905092915050565b60006020828403121561466357614662613366565b5b600082013567ffffffffffffffff8111156146815761468061336b565b5b61468d848285016144d6565b91505092915050565b61469f81613370565b82525050565b60006020820190506146ba6000830184614696565b92915050565b600081905092915050565b60006146d783856146c0565b93506146e48385846132eb565b82840190509392505050565b60008160601b9050919050565b6000614708826146f0565b9050919050565b600061471a826146fd565b9050919050565b61473261472d826135ba565b61470f565b82525050565b6000819050919050565b61475361474e82613625565b614738565b82525050565b60006147668286886146cb565b91506147728285614721565b6014820191506147828284614742565b60208201915081905095945050505050565b600061479f82614034565b6147a981856146c0565b93506147b98185602086016136b0565b80840191505092915050565b60006147d18284614794565b915081905092915050565b7f596f75206e656564206120746f6b656e20746f207375626d697420612071756560008201527f7374696f6e000000000000000000000000000000000000000000000000000000602082015250565b6000614838602583613ed8565b9150614843826147dc565b604082019050919050565b600060208201905081810360008301526148678161482b565b9050919050565b7f4e487b7100000000000000000000000000000000000000000000000000000000600052601160045260246000fd5b60006148a882613625565b91507fffffffffffffffffffffffffffffffffffffffffffffffffffffffffffffffff82036148da576148d961486e565b5b600182019050919050565b7f4e487b7100000000000000000000000000000000000000000000000000000000600052602260045260246000fd5b6000600282049050600182168061492c57607f821691505b60208210810361493f5761493e6148e5565b5b50919050565b60008190508160005260206000209050919050565b60006020601f8301049050919050565b600082821b905092915050565b6000600883026149a77fffffffffffffffffffffffffffffffffffffffffffffffffffffffffffffffff8261496a565b6149b1868361496a565b95508019841693508086168417925050509392505050565b6000819050919050565b60006149ee6149e96149e484613625565b6149c9565b613625565b9050919050565b6000819050919050565b614a08836149d3565b614a1c614a14826149f5565b848454614977565b825550505050565b600090565b614a31614a24565b614a3c8184846149ff565b505050565b5b81811015614a6057614a55600082614a29565b600181019050614a42565b5050565b601f821115614aa557614a7681614945565b614a7f8461495a565b81016020851015614a8e578190505b614aa2614a9a8561495a565b830182614a41565b50505b505050565b600082821c905092915050565b6000614ac860001984600802614aaa565b1980831691505092915050565b6000614ae18383614ab7565b9150826002028217905092915050565b614afa82613694565b67ffffffffffffffff811115614b1357614b12613435565b5b614b1d8254614914565b614b28828285614a64565b600060209050601f831160018114614b5b5760008415614b49578287015190505b614b538582614ad5565b865550614bbb565b601f198416614b6986614945565b60005b82811015614b9157848901518255600182019150602085019450602081019050614b6c565b86831015614bae5784890151614baa601f891682614ab7565b8355505b6001600288020188555050505b505050505050565b6000614bce82613625565b9150614bd983613625565b9250828203905081811115614bf157614bf061486e565b5b92915050565b7f4e487b7100000000000000000000000000000000000000000000000000000000600052603260045260246000fd5b6000614c3182613625565b9150614c3c83613625565b9250828201905080821115614c5457614c5361486e565b5b92915050565b6000606082019050614c6f6000830186613ec9565b614c7c602083018561362f565b8181036040830152614c8e818461403f565b9050949350505050565b6000606082019050614cad6000830186613ec9565b614cba6020830185613ec9565b614cc76040830184613ec9565b949350505050565b6000819050919050565b6000614cf4614cef614cea84614ccf565b6149c9565b613e65565b9050919050565b614d0481614cd9565b82525050565b6000606082019050614d1f6000830186613ec9565b614d2c6020830185614cfb565b8181036040830152614d3e818461403f565b9050949350505050565b7f4f6e6c79207468652070726f66696c65206f776e65722063616e20616e73776560008201527f72207175657374696f6e73000000000000000000000000000000000000000000602082015250565b6000614da4602b83613ed8565b9150614daf82614d48565b604082019050919050565b60006020820190508181036000830152614dd381614d97565b9050919050565b7f496e76616c6964207175657374696f6e20494400000000000000000000000000600082015250565b6000614e10601383613ed8565b9150614e1b82614dda565b602082019050919050565b60006020820190508181036000830152614e3f81614e03565b9050919050565b600080fd5b600080fd5b600080fd5b60008083356001602003843603038112614e7257614e71614e46565b5b80840192508235915067ffffffffffffffff821115614e9457614e93614e4b565b5b602083019250600182023603831315614eb057614eaf614e50565b5b509250929050565b6000614ec58284866146cb565b91508190509392505050565b7f416c726561647920636c61696d65642061206672656520746f6b656e00000000600082015250565b6000614f07601c83613ed8565b9150614f1282614ed1565b602082019050919050565b60006020820190508181036000830152614f3681614efa565b9050919050565b7f4f776e61626c653a206e6577206f776e657220697320746865207a65726f206160008201527f6464726573730000000000000000000000000000000000000000000000000000602082015250565b6000614f99602683613ed8565b9150614fa482614f3d565b604082019050919050565b60006020820190508181036000830152614fc881614f8c565b9050919050565b6000819050602082019050919050565b60007fffffffffffffffffffffffffffffffffffffffff00000000000000000000000082169050919050565b60006150178251614fdf565b80915050919050565b600061502b82614034565b8261503584614fcf565b90506150408161500b565b925060148210156150805761507b7fffffffffffffffffffffffffffffffffffffffff0000000000000000000000008360140360080261496a565b831692505b5050919050565b600060a08201905061509c6000830188613ec9565b6150a96020830187613ec9565b6150b66040830186613ec9565b6150c3606083018561362f565b81810360808301526150d5818461403f565b90509695505050505050565b7f4f776e61626c653a2063616c6c6572206973206e6f7420746865206f776e6572600082015250565b6000615117602083613ed8565b9150615122826150e1565b602082019050919050565b600060208201905081810360008301526151468161510a565b9050919050565b60006080820190506151626000830187613ec9565b61516f602083018661362f565b61517c6040830185613ec9565b615189606083018461362f565b95945050505050565b60008190508160005260206000209050919050565b601f8211156151e8576151b981615192565b6151c28461495a565b810160208510156151d1578190505b6151e56151dd8561495a565b830182614a41565b50505b505050565b6151f682614034565b67ffffffffffffffff81111561520f5761520e613435565b5b6152198254614914565b6152248282856151a7565b600060209050601f8311600181146152575760008415615245578287015190505b61524f8582614ad5565b8655506152b7565b601f19841661526586615192565b60005b8281101561528d57848901518255600182019150602085019450602081019050615268565b868310156152aa57848901516152a6601f891682614ab7565b8355505b6001600288020188555050505b505050505050565b60007fffffffffffffffffffff0000000000000000000000000000000000000000000082169050919050565b6000819050919050565b615306615301826152bf565b6152eb565b82525050565b60007fffff00000000000000000000000000000000000000000000000000000000000082169050919050565b6000819050919050565b61535361534e8261530c565b615338565b82525050565b6000819050919050565b61537461536f82614fdf565b615359565b82525050565b600061538682866152f5565b600a820191506153968285615342565b6002820191506153a68284615363565b601482019150819050949350505050565b60006153c38251613fd1565b80915050919050565b60006153d782614034565b826153e184614fcf565b90506153ec816153b7565b9250602082101561542c576154277fffffffffffffffffffffffffffffffffffffffffffffffffffffffffffffffff8360200360080261496a565b831692505b5050919050565b6000606082019050615448600083018661362f565b6154556020830185613ec9565b615462604083018461362f565b949350505050565b600060608201905061547f600083018661362f565b61548c6020830185613401565b818103604083015261549e818461403f565b9050949350505050565b6154b181613fd1565b82525050565b60006040820190506154cc60008301856154a8565b81810360208301526154de818461403f565b90509392505050565b60006154fa6154f584613870565b613495565b90508281526020810184848401111561551657615515613430565b5b6155218482856136b0565b509392505050565b600082601f83011261553e5761553d61342b565b5b815161554e8482602086016154e7565b91505092915050565b60006020828403121561556d5761556c613366565b5b600082015167ffffffffffffffff81111561558b5761558a61336b565b5b61559784828501615529565b91505092915050565b7f4e487b7100000000000000000000000000000000000000000000000000000000600052603160045260246000fdfea2646970667358221220248342bc74c31b7a9eb0d14d2dbc91defe5354a7b4cb2ea010d1c085bb9b0c1964736f6c63430008130033",
  "linkReferences": {},
  "deployedLinkReferences": {}
}