{
  "_format": "hh-sol-artifact-1",
  "contractName": "SimpleAMA",
  "sourceName": "contracts/ama.sol",
  "abi": [
    {
      "inputs": [
        {
          "internalType": "address",
          "name": "newOwner",
          "type": "address"
        }
      ],
      "stateMutability": "nonpayable",
      "type": "constructor"
    },
    {
      "inputs": [],
      "name": "ERC725Y_DataKeysValuesEmptyArray",
      "type": "error"
    },
    {
      "inputs": [],
      "name": "ERC725Y_DataKeysValuesLengthMismatch",
      "type": "error"
    },
    {
      "inputs": [],
      "name": "ERC725Y_MsgValueDisallowed",
      "type": "error"
    },
    {
      "inputs": [
        {
          "internalType": "bytes",
          "name": "storedData",
          "type": "bytes"
        }
      ],
      "name": "InvalidExtensionAddress",
      "type": "error"
    },
    {
      "inputs": [
        {
          "internalType": "bytes",
          "name": "data",
          "type": "bytes"
        }
      ],
      "name": "InvalidFunctionSelector",
      "type": "error"
    },
    {
      "inputs": [],
      "name": "LSP4TokenNameNotEditable",
      "type": "error"
    },
    {
      "inputs": [],
      "name": "LSP4TokenSymbolNotEditable",
      "type": "error"
    },
    {
      "inputs": [],
      "name": "LSP4TokenTypeNotEditable",
      "type": "error"
    },
    {
      "inputs": [
        {
          "internalType": "address",
          "name": "tokenOwner",
          "type": "address"
        },
        {
          "internalType": "uint256",
          "name": "authorizedAmount",
          "type": "uint256"
        },
        {
          "internalType": "address",
          "name": "operator",
          "type": "address"
        },
        {
          "internalType": "uint256",
          "name": "amount",
          "type": "uint256"
        }
      ],
      "name": "LSP7AmountExceedsAuthorizedAmount",
      "type": "error"
    },
    {
      "inputs": [
        {
          "internalType": "uint256",
          "name": "balance",
          "type": "uint256"
        },
        {
          "internalType": "address",
          "name": "tokenOwner",
          "type": "address"
        },
        {
          "internalType": "uint256",
          "name": "amount",
          "type": "uint256"
        }
      ],
      "name": "LSP7AmountExceedsBalance",
      "type": "error"
    },
    {
      "inputs": [
        {
          "internalType": "uint256",
          "name": "callIndex",
          "type": "uint256"
        }
      ],
      "name": "LSP7BatchCallFailed",
      "type": "error"
    },
    {
      "inputs": [],
      "name": "LSP7CannotSendWithAddressZero",
      "type": "error"
    },
    {
      "inputs": [],
      "name": "LSP7CannotUseAddressZeroAsOperator",
      "type": "error"
    },
    {
      "inputs": [
        {
          "internalType": "address",
          "name": "caller",
          "type": "address"
        },
        {
          "internalType": "address",
          "name": "tokenOwner",
          "type": "address"
        },
        {
          "internalType": "address",
          "name": "operator",
          "type": "address"
        }
      ],
      "name": "LSP7DecreaseAllowanceNotAuthorized",
      "type": "error"
    },
    {
      "inputs": [],
      "name": "LSP7DecreasedAllowanceBelowZero",
      "type": "error"
    },
    {
      "inputs": [],
      "name": "LSP7InvalidTransferBatch",
      "type": "error"
    },
    {
      "inputs": [
        {
          "internalType": "address",
          "name": "tokenReceiver",
          "type": "address"
        }
      ],
      "name": "LSP7NotifyTokenReceiverContractMissingLSP1Interface",
      "type": "error"
    },
    {
      "inputs": [
        {
          "internalType": "address",
          "name": "tokenReceiver",
          "type": "address"
        }
      ],
      "name": "LSP7NotifyTokenReceiverIsEOA",
      "type": "error"
    },
    {
      "inputs": [
        {
          "internalType": "address",
          "name": "caller",
          "type": "address"
        },
        {
          "internalType": "address",
          "name": "tokenOwner",
          "type": "address"
        },
        {
          "internalType": "address",
          "name": "operator",
          "type": "address"
        }
      ],
      "name": "LSP7RevokeOperatorNotAuthorized",
      "type": "error"
    },
    {
      "inputs": [],
      "name": "LSP7TokenContractCannotHoldValue",
      "type": "error"
    },
    {
      "inputs": [],
      "name": "LSP7TokenOwnerCannotBeOperator",
      "type": "error"
    },
    {
      "inputs": [
        {
          "internalType": "bytes4",
          "name": "functionSelector",
          "type": "bytes4"
        }
      ],
      "name": "NoExtensionFoundForFunctionSelector",
      "type": "error"
    },
    {
      "inputs": [
        {
          "internalType": "address",
          "name": "operator",
          "type": "address"
        }
      ],
      "name": "OperatorAllowanceCannotBeIncreasedFromZero",
      "type": "error"
    },
    {
      "inputs": [],
      "name": "OwnableCannotSetZeroAddressAsOwner",
      "type": "error"
    },
    {
      "anonymous": false,
      "inputs": [
        {
          "indexed": true,
          "internalType": "bytes32",
          "name": "dataKey",
          "type": "bytes32"
        },
        {
          "indexed": false,
          "internalType": "bytes",
          "name": "dataValue",
          "type": "bytes"
        }
      ],
      "name": "DataChanged",
      "type": "event"
    },
    {
      "anonymous": false,
      "inputs": [
        {
          "indexed": true,
          "internalType": "address",
          "name": "operator",
          "type": "address"
        },
        {
          "indexed": true,
          "internalType": "address",
          "name": "tokenOwner",
          "type": "address"
        },
        {
          "indexed": true,
          "internalType": "uint256",
          "name": "amount",
          "type": "uint256"
        },
        {
          "indexed": false,
          "internalType": "bytes",
          "name": "operatorNotificationData",
          "type": "bytes"
        }
      ],
      "name": "OperatorAuthorizationChanged",
      "type": "event"
    },
    {
      "anonymous": false,
      "inputs": [
        {
          "indexed": true,
          "internalType": "address",
          "name": "operator",
          "type": "address"
        },
        {
          "indexed": true,
          "internalType": "address",
          "name": "tokenOwner",
          "type": "address"
        },
        {
          "indexed": true,
          "internalType": "bool",
          "name": "notified",
          "type": "bool"
        },
        {
          "indexed": false,
          "internalType": "bytes",
          "name": "operatorNotificationData",
          "type": "bytes"
        }
      ],
      "name": "OperatorRevoked",
      "type": "event"
    },
    {
      "anonymous": false,
      "inputs": [
        {
          "indexed": true,
          "internalType": "address",
          "name": "previousOwner",
          "type": "address"
        },
        {
          "indexed": true,
          "internalType": "address",
          "name": "newOwner",
          "type": "address"
        }
      ],
      "name": "OwnershipTransferred",
      "type": "event"
    },
    {
      "anonymous": false,
      "inputs": [
        {
          "indexed": true,
          "internalType": "address",
          "name": "operator",
          "type": "address"
        },
        {
          "indexed": true,
          "internalType": "address",
          "name": "from",
          "type": "address"
        },
        {
          "indexed": true,
          "internalType": "address",
          "name": "to",
          "type": "address"
        },
        {
          "indexed": false,
          "internalType": "uint256",
          "name": "amount",
          "type": "uint256"
        },
        {
          "indexed": false,
          "internalType": "bool",
          "name": "force",
          "type": "bool"
        },
        {
          "indexed": false,
          "internalType": "bytes",
          "name": "data",
          "type": "bytes"
        }
      ],
      "name": "Transfer",
      "type": "event"
    },
    {
      "stateMutability": "payable",
      "type": "fallback"
    },
    {
      "inputs": [
        {
          "internalType": "uint256",
          "name": "_questionId",
          "type": "uint256"
        },
        {
          "internalType": "string",
          "name": "_answerText",
          "type": "string"
        },
        {
          "internalType": "bool",
          "name": "_isPublic",
          "type": "bool"
        }
      ],
      "name": "answerQuestion",
      "outputs": [],
      "stateMutability": "nonpayable",
      "type": "function"
    },
    {
      "inputs": [
        {
          "internalType": "address",
          "name": "operator",
          "type": "address"
        },
        {
          "internalType": "uint256",
          "name": "amount",
          "type": "uint256"
        },
        {
          "internalType": "bytes",
          "name": "operatorNotificationData",
          "type": "bytes"
        }
      ],
      "name": "authorizeOperator",
      "outputs": [],
      "stateMutability": "nonpayable",
      "type": "function"
    },
    {
      "inputs": [
        {
          "internalType": "address",
          "name": "operator",
          "type": "address"
        },
        {
          "internalType": "address",
          "name": "tokenOwner",
          "type": "address"
        }
      ],
      "name": "authorizedAmountFor",
      "outputs": [
        {
          "internalType": "uint256",
          "name": "",
          "type": "uint256"
        }
      ],
      "stateMutability": "view",
      "type": "function"
    },
    {
      "inputs": [
        {
          "internalType": "address",
          "name": "tokenOwner",
          "type": "address"
        }
      ],
      "name": "balanceOf",
      "outputs": [
        {
          "internalType": "uint256",
          "name": "",
          "type": "uint256"
        }
      ],
      "stateMutability": "view",
      "type": "function"
    },
    {
      "inputs": [
        {
          "internalType": "bytes[]",
          "name": "data",
          "type": "bytes[]"
        }
      ],
      "name": "batchCalls",
      "outputs": [
        {
          "internalType": "bytes[]",
          "name": "results",
          "type": "bytes[]"
        }
      ],
      "stateMutability": "nonpayable",
      "type": "function"
    },
    {
      "inputs": [],
      "name": "claimFreeToken",
      "outputs": [],
      "stateMutability": "nonpayable",
      "type": "function"
    },
    {
      "inputs": [],
      "name": "decimals",
      "outputs": [
        {
          "internalType": "uint8",
          "name": "",
          "type": "uint8"
        }
      ],
      "stateMutability": "view",
      "type": "function"
    },
    {
      "inputs": [
        {
          "internalType": "address",
          "name": "operator",
          "type": "address"
        },
        {
          "internalType": "address",
          "name": "tokenOwner",
          "type": "address"
        },
        {
          "internalType": "uint256",
          "name": "subtractedAmount",
          "type": "uint256"
        },
        {
          "internalType": "bytes",
          "name": "operatorNotificationData",
          "type": "bytes"
        }
      ],
      "name": "decreaseAllowance",
      "outputs": [],
      "stateMutability": "nonpayable",
      "type": "function"
    },
    {
      "inputs": [
        {
          "internalType": "bytes32",
          "name": "dataKey",
          "type": "bytes32"
        }
      ],
      "name": "getData",
      "outputs": [
        {
          "internalType": "bytes",
          "name": "dataValue",
          "type": "bytes"
        }
      ],
      "stateMutability": "view",
      "type": "function"
    },
    {
      "inputs": [
        {
          "internalType": "bytes32[]",
          "name": "dataKeys",
          "type": "bytes32[]"
        }
      ],
      "name": "getDataBatch",
      "outputs": [
        {
          "internalType": "bytes[]",
          "name": "dataValues",
          "type": "bytes[]"
        }
      ],
      "stateMutability": "view",
      "type": "function"
    },
    {
      "inputs": [
        {
          "internalType": "address",
          "name": "tokenOwner",
          "type": "address"
        }
      ],
      "name": "getOperatorsOf",
      "outputs": [
        {
          "internalType": "address[]",
          "name": "",
          "type": "address[]"
        }
      ],
      "stateMutability": "view",
      "type": "function"
    },
    {
      "inputs": [],
      "name": "getPublicQuestions",
      "outputs": [
        {
          "components": [
            {
              "internalType": "address",
              "name": "sender",
              "type": "address"
            },
            {
              "internalType": "string",
              "name": "questionText",
              "type": "string"
            },
            {
              "internalType": "string",
              "name": "answerText",
              "type": "string"
            },
            {
              "internalType": "bool",
              "name": "answered",
              "type": "bool"
            },
            {
              "internalType": "bool",
              "name": "isPublic",
              "type": "bool"
            }
          ],
          "internalType": "struct SimpleAMA.Question[]",
          "name": "",
          "type": "tuple[]"
        }
      ],
      "stateMutability": "view",
      "type": "function"
    },
    {
      "inputs": [
        {
          "internalType": "address",
          "name": "",
          "type": "address"
        }
      ],
      "name": "hasReceivedToken",
      "outputs": [
        {
          "internalType": "bool",
          "name": "",
          "type": "bool"
        }
      ],
      "stateMutability": "view",
      "type": "function"
    },
    {
      "inputs": [
        {
          "internalType": "address",
          "name": "operator",
          "type": "address"
        },
        {
          "internalType": "uint256",
          "name": "addedAmount",
          "type": "uint256"
        },
        {
          "internalType": "bytes",
          "name": "operatorNotificationData",
          "type": "bytes"
        }
      ],
      "name": "increaseAllowance",
      "outputs": [],
      "stateMutability": "nonpayable",
      "type": "function"
    },
    {
      "inputs": [],
      "name": "owner",
      "outputs": [
        {
          "internalType": "address",
          "name": "",
          "type": "address"
        }
      ],
      "stateMutability": "view",
      "type": "function"
    },
    {
      "inputs": [],
      "name": "profileOwner",
      "outputs": [
        {
          "internalType": "address",
          "name": "",
          "type": "address"
        }
      ],
      "stateMutability": "view",
      "type": "function"
    },
    {
      "inputs": [],
      "name": "questionCounter",
      "outputs": [
        {
          "internalType": "uint256",
          "name": "",
          "type": "uint256"
        }
      ],
      "stateMutability": "view",
      "type": "function"
    },
    {
      "inputs": [
        {
          "internalType": "uint256",
          "name": "",
          "type": "uint256"
        }
      ],
      "name": "questions",
      "outputs": [
        {
          "internalType": "address",
          "name": "sender",
          "type": "address"
        },
        {
          "internalType": "string",
          "name": "questionText",
          "type": "string"
        },
        {
          "internalType": "string",
          "name": "answerText",
          "type": "string"
        },
        {
          "internalType": "bool",
          "name": "answered",
          "type": "bool"
        },
        {
          "internalType": "bool",
          "name": "isPublic",
          "type": "bool"
        }
      ],
      "stateMutability": "view",
      "type": "function"
    },
    {
      "inputs": [],
      "name": "renounceOwnership",
      "outputs": [],
      "stateMutability": "nonpayable",
      "type": "function"
    },
    {
      "inputs": [
        {
          "internalType": "address",
          "name": "operator",
          "type": "address"
        },
        {
          "internalType": "address",
          "name": "tokenOwner",
          "type": "address"
        },
        {
          "internalType": "bool",
          "name": "notify",
          "type": "bool"
        },
        {
          "internalType": "bytes",
          "name": "operatorNotificationData",
          "type": "bytes"
        }
      ],
      "name": "revokeOperator",
      "outputs": [],
      "stateMutability": "nonpayable",
      "type": "function"
    },
    {
      "inputs": [
        {
          "internalType": "bytes32",
          "name": "dataKey",
          "type": "bytes32"
        },
        {
          "internalType": "bytes",
          "name": "dataValue",
          "type": "bytes"
        }
      ],
      "name": "setData",
      "outputs": [],
      "stateMutability": "payable",
      "type": "function"
    },
    {
      "inputs": [
        {
          "internalType": "bytes32[]",
          "name": "dataKeys",
          "type": "bytes32[]"
        },
        {
          "internalType": "bytes[]",
          "name": "dataValues",
          "type": "bytes[]"
        }
      ],
      "name": "setDataBatch",
      "outputs": [],
      "stateMutability": "payable",
      "type": "function"
    },
    {
      "inputs": [
        {
          "internalType": "string",
          "name": "_questionText",
          "type": "string"
        }
      ],
      "name": "submitQuestion",
      "outputs": [],
      "stateMutability": "nonpayable",
      "type": "function"
    },
    {
      "inputs": [
        {
          "internalType": "bytes4",
          "name": "interfaceId",
          "type": "bytes4"
        }
      ],
      "name": "supportsInterface",
      "outputs": [
        {
          "internalType": "bool",
          "name": "",
          "type": "bool"
        }
      ],
      "stateMutability": "view",
      "type": "function"
    },
    {
      "inputs": [],
      "name": "totalSupply",
      "outputs": [
        {
          "internalType": "uint256",
          "name": "",
          "type": "uint256"
        }
      ],
      "stateMutability": "view",
      "type": "function"
    },
    {
      "inputs": [
        {
          "internalType": "address",
          "name": "from",
          "type": "address"
        },
        {
          "internalType": "address",
          "name": "to",
          "type": "address"
        },
        {
          "internalType": "uint256",
          "name": "amount",
          "type": "uint256"
        },
        {
          "internalType": "bool",
          "name": "force",
          "type": "bool"
        },
        {
          "internalType": "bytes",
          "name": "data",
          "type": "bytes"
        }
      ],
      "name": "transfer",
      "outputs": [],
      "stateMutability": "nonpayable",
      "type": "function"
    },
    {
      "inputs": [
        {
          "internalType": "address[]",
          "name": "from",
          "type": "address[]"
        },
        {
          "internalType": "address[]",
          "name": "to",
          "type": "address[]"
        },
        {
          "internalType": "uint256[]",
          "name": "amount",
          "type": "uint256[]"
        },
        {
          "internalType": "bool[]",
          "name": "force",
          "type": "bool[]"
        },
        {
          "internalType": "bytes[]",
          "name": "data",
          "type": "bytes[]"
        }
      ],
      "name": "transferBatch",
      "outputs": [],
      "stateMutability": "nonpayable",
      "type": "function"
    },
    {
      "inputs": [
        {
          "internalType": "address",
          "name": "newOwner",
          "type": "address"
        }
      ],
      "name": "transferOwnership",
      "outputs": [],
      "stateMutability": "nonpayable",
      "type": "function"
    },
    {
      "stateMutability": "payable",
      "type": "receive"
    }
  ],
  "bytecode": "0x60806040523480156200001157600080fd5b5060405162005ef238038062005ef2833981810160405281019062000037919062000471565b6040518060400160405280601381526020017f46726565205175657374696f6e20546f6b656e000000000000000000000000008152506040518060400160405280600381526020017f4651540000000000000000000000000000000000000000000000000000000000815250826000808484848481620000cc620000c0620002da60201b60201c565b620002e260201b60201c565b600073ffffffffffffffffffffffffffffffffffffffff168173ffffffffffffffffffffffffffffffffffffffff160362000133576040517f1ad8836c00000000000000000000000000000000000000000000000000000000815260040160405180910390fd5b6200014481620002e260201b60201c565b50620001af7feafec4d89fa9619884b60000a4d96624a38f7ac2d8d9a604ecf07c12c77e480c60001b6040518060400160405280600481526020017fa4d9662400000000000000000000000000000000000000000000000000000000815250620003a660201b60201c565b620001e47fdeba1e292f8ba88238e10ab3c7f88bd4be4fac56cad5194b6ecceaf653468af160001b85620003a660201b60201c565b620002197f2f0a68ab07768e01943a599e73362a0e17a63a72e94dd2e384d2c1d4db93275660001b84620003a660201b60201c565b6200026f7fe0261fa95db2eb3b5439bd033cda66d56b96f92f243a8228fd87550ed7bdfdb360001b82604051602001620002549190620004be565b604051602081830303815290604052620003a660201b60201c565b5050505080600260006101000a81548160ff021916908315150217905550505050505080600760006101000a81548173ffffffffffffffffffffffffffffffffffffffff021916908373ffffffffffffffffffffffffffffffffffffffff16021790555050620008e5565b600033905090565b60008060009054906101000a900473ffffffffffffffffffffffffffffffffffffffff169050816000806101000a81548173ffffffffffffffffffffffffffffffffffffffff021916908373ffffffffffffffffffffffffffffffffffffffff1602179055508173ffffffffffffffffffffffffffffffffffffffff168173ffffffffffffffffffffffffffffffffffffffff167f8be0079c531659141344cd1fd0a4f28419497f9722a3daafe3b4186f6b6457e060405160405180910390a35050565b80600160008481526020019081526020016000209081620003c891906200074b565b50817fece574603820d07bc9b91f2a932baadf4628aabcb8afba49776529c14a6104b282604051620003fb9190620008c1565b60405180910390a25050565b600080fd5b600073ffffffffffffffffffffffffffffffffffffffff82169050919050565b600062000439826200040c565b9050919050565b6200044b816200042c565b81146200045757600080fd5b50565b6000815190506200046b8162000440565b92915050565b6000602082840312156200048a576200048962000407565b5b60006200049a848285016200045a565b91505092915050565b6000819050919050565b620004b881620004a3565b82525050565b6000602082019050620004d56000830184620004ad565b92915050565b600081519050919050565b7f4e487b7100000000000000000000000000000000000000000000000000000000600052604160045260246000fd5b7f4e487b7100000000000000000000000000000000000000000000000000000000600052602260045260246000fd5b600060028204905060018216806200055d57607f821691505b60208210810362000573576200057262000515565b5b50919050565b60008190508160005260206000209050919050565b60006020601f8301049050919050565b600082821b905092915050565b600060088302620005dd7fffffffffffffffffffffffffffffffffffffffffffffffffffffffffffffffff826200059e565b620005e986836200059e565b95508019841693508086168417925050509392505050565b6000819050919050565b60006200062c620006266200062084620004a3565b62000601565b620004a3565b9050919050565b6000819050919050565b62000648836200060b565b62000660620006578262000633565b848454620005ab565b825550505050565b600090565b6200067762000668565b620006848184846200063d565b505050565b5b81811015620006ac57620006a06000826200066d565b6001810190506200068a565b5050565b601f821115620006fb57620006c58162000579565b620006d0846200058e565b81016020851015620006e0578190505b620006f8620006ef856200058e565b83018262000689565b50505b505050565b600082821c905092915050565b6000620007206000198460080262000700565b1980831691505092915050565b60006200073b83836200070d565b9150826002028217905092915050565b6200075682620004db565b67ffffffffffffffff811115620007725762000771620004e6565b5b6200077e825462000544565b6200078b828285620006b0565b600060209050601f831160018114620007c35760008415620007ae578287015190505b620007ba85826200072d565b8655506200082a565b601f198416620007d38662000579565b60005b82811015620007fd57848901518255600182019150602085019450602081019050620007d6565b868310156200081d578489015162000819601f8916826200070d565b8355505b6001600288020188555050505b505050505050565b600082825260208201905092915050565b60005b838110156200086357808201518184015260208101905062000846565b60008484015250505050565b6000601f19601f8301169050919050565b60006200088d82620004db565b62000899818562000832565b9350620008ab81856020860162000843565b620008b6816200086f565b840191505092915050565b60006020820190508181036000830152620008dd818462000880565b905092915050565b6155fd80620008f56000396000f3fe6080604052600436106101bb5760003560e01c806373a6f6a6116100ec578063adcea55a1161008a578063d72fc29a11610064578063d72fc29a146106d1578063dedff9c61461070e578063efd55f731461074b578063f2fde38b1461077657610235565b8063adcea55a14610666578063b49506fd1461067d578063b7b064a8146106a657610235565b80637f23690c116100c65780637f23690c146105d85780638da5cb5b146105f4578063979024211461061f578063ac0f05f61461063b57610235565b806373a6f6a614610549578063760d9bba1461058657806378381670146105af57610235565b806331b1b9781161015957806365aeaa951161013357806365aeaa951461047b5780636963d438146104b857806370a08231146104f5578063715018a61461053257610235565b806331b1b978146103d457806354f6127f14610415578063585724781461045257610235565b80632bc1da82116101955780632bc1da821461032e5780632d7667c91461035757806330d0dc3714610380578063313ce567146103a957610235565b806301ffc9a71461029d578063099ee6f2146102da57806318160ddd1461030357610235565b366102355760003403610203576040517fe5099ee30000000000000000000000000000000000000000000000000000000081526004016101fa9061328f565b60405180910390fd5b6040517f388f5adc00000000000000000000000000000000000000000000000000000000815260040160405180910390fd5b60003660606004600036905010156102865782826040517fe5099ee300000000000000000000000000000000000000000000000000000000815260040161027d9291906132fc565b60405180910390fd5b610290838361079f565b9050915050805190602001f35b3480156102a957600080fd5b506102c460048036038101906102bf919061338c565b61091d565b6040516102d191906133d4565b60405180910390f35b3480156102e657600080fd5b5061030160048036038101906102fc9190613515565b61098e565b005b34801561030f57600080fd5b50610318610b61565b6040516103259190613577565b60405180910390f35b34801561033a57600080fd5b50610355600480360381019061035091906136bd565b610b6b565b005b34801561036357600080fd5b5061037e60048036038101906103799190613a87565b610c16565b005b34801561038c57600080fd5b506103a760048036038101906103a29190613b8e565b610d2a565b005b3480156103b557600080fd5b506103be610e27565b6040516103cb9190613c2d565b60405180910390f35b3480156103e057600080fd5b506103fb60048036038101906103f69190613c48565b610e4c565b60405161040c959493929190613d03565b60405180910390f35b34801561042157600080fd5b5061043c60048036038101906104379190613d9a565b610fcc565b6040516104499190613e0b565b60405180910390f35b34801561045e57600080fd5b5061047960048036038101906104749190613e2d565b610fde565b005b34801561048757600080fd5b506104a2600480360381019061049d9190613e9c565b61111b565b6040516104af9190613577565b60405180910390f35b3480156104c457600080fd5b506104df60048036038101906104da9190613f37565b61121d565b6040516104ec9190614090565b60405180910390f35b34801561050157600080fd5b5061051c600480360381019061051791906140b2565b611399565b6040516105299190613577565b60405180910390f35b34801561053e57600080fd5b506105476113e2565b005b34801561055557600080fd5b50610570600480360381019061056b91906140b2565b6113f6565b60405161057d91906133d4565b60405180910390f35b34801561059257600080fd5b506105ad60048036038101906105a891906140df565b611416565b005b3480156105bb57600080fd5b506105d660048036038101906105d19190614176565b611469565b005b6105f260048036038101906105ed91906141f9565b6115af565b005b34801561060057600080fd5b506106096115ff565b6040516106169190614255565b60405180910390f35b61063960048036038101906106349190614333565b611628565b005b34801561064757600080fd5b50610650611678565b60405161065d9190614255565b60405180910390f35b34801561067257600080fd5b5061067b61169e565b005b34801561068957600080fd5b506106a4600480360381019061069f91906136bd565b6117cf565b005b3480156106b257600080fd5b506106bb611815565b6040516106c89190613577565b60405180910390f35b3480156106dd57600080fd5b506106f860048036038101906106f391906140b2565b61181b565b6040516107059190614469565b60405180910390f35b34801561071a57600080fd5b506107356004803603810190610730919061448b565b61186b565b6040516107429190614090565b60405180910390f35b34801561075757600080fd5b5061076061191c565b60405161076d919061466c565b60405180910390f35b34801561078257600080fd5b5061079d600480360381019061079891906140b2565b611c25565b005b606060006107d06000357fffffffff0000000000000000000000000000000000000000000000000000000016611ca8565b509050600073ffffffffffffffffffffffffffffffffffffffff168173ffffffffffffffffffffffffffffffffffffffff1603610868576000357fffffffff00000000000000000000000000000000000000000000000000000000166040517fbb370b2b00000000000000000000000000000000000000000000000000000000815260040161085f919061469d565b60405180910390fd5b6000808273ffffffffffffffffffffffffffffffffffffffff16348787333460405160200161089a9493929190614751565b6040516020818303038152906040526040516108b691906147bd565b60006040518083038185875af1925050503d80600081146108f3576040519150601f19603f3d011682016040523d82523d6000602084013e6108f8565b606091505b5091509150811561090e57809350505050610917565b80518060208301fd5b92915050565b600063c52d600860e01b7bffffffffffffffffffffffffffffffffffffffffffffffffffffffff1916827bffffffffffffffffffffffffffffffffffffffffffffffffffffffff19161480610977575061097682611d62565b5b80610987575061098682611dc3565b5b9050919050565b670de0b6b3a76400006109a033611399565b10156109e1576040517f08c379a00000000000000000000000000000000000000000000000000000000081526004016109d890614846565b60405180910390fd5b600860008154809291906109f490614895565b91905055506040518060a001604052803373ffffffffffffffffffffffffffffffffffffffff1681526020018281526020016040518060200160405280600081525081526020016000151581526020016000151581525060096000600854815260200190815260200160002060008201518160000160006101000a81548173ffffffffffffffffffffffffffffffffffffffff021916908373ffffffffffffffffffffffffffffffffffffffff1602179055506020820151816001019081610abc9190614ae9565b506040820151816002019081610ad29190614ae9565b5060608201518160030160006101000a81548160ff02191690831515021790555060808201518160030160016101000a81548160ff021916908315150217905550905050610b5e33670de0b6b3a76400006040518060400160405280601f81526020017f4275726e20746f6b656e20746f207375626d69742061207175657374696f6e00815250611e2a565b50565b6000600354905090565b6000610b77843361111b565b905060008103610bbe57836040517fcba6e977000000000000000000000000000000000000000000000000000000008152600401610bb59190614255565b60405180910390fd5b60008382610bcc9190614bbb565b9050610bdc338683600187611efa565b6000338285604051602001610bf393929190614bef565b6040516020818303038152906040529050610c0e86826121cd565b505050505050565b600085519050845181141580610c2d575083518114155b80610c39575082518114155b80610c45575081518114155b15610c7c576040517f263eee8d00000000000000000000000000000000000000000000000000000000815260040160405180910390fd5b60005b81811015610d2157610d16878281518110610c9d57610c9c614c2d565b5b6020026020010151878381518110610cb857610cb7614c2d565b5b6020026020010151878481518110610cd357610cd2614c2d565b5b6020026020010151878581518110610cee57610ced614c2d565b5b6020026020010151878681518110610d0957610d08614c2d565b5b6020026020010151611416565b806001019050610c7f565b50505050505050565b8273ffffffffffffffffffffffffffffffffffffffff163373ffffffffffffffffffffffffffffffffffffffff1614158015610d9257508373ffffffffffffffffffffffffffffffffffffffff163373ffffffffffffffffffffffffffffffffffffffff1614155b15610dd8573383856040517f1a525b32000000000000000000000000000000000000000000000000000000008152600401610dcf93929190614c5c565b60405180910390fd5b610de6838560008585611efa565b8115610e2157600083600083604051602001610e0493929190614cce565b6040516020818303038152906040529050610e1f85826121cd565b505b50505050565b6000600260009054906101000a900460ff16610e44576012610e47565b60005b905090565b60096020528060005260406000206000915090508060000160009054906101000a900473ffffffffffffffffffffffffffffffffffffffff1690806001018054610e959061490c565b80601f0160208091040260200160405190810160405280929190818152602001828054610ec19061490c565b8015610f0e5780601f10610ee357610100808354040283529160200191610f0e565b820191906000526020600020905b815481529060010190602001808311610ef157829003601f168201915b505050505090806002018054610f239061490c565b80601f0160208091040260200160405190810160405280929190818152602001828054610f4f9061490c565b8015610f9c5780601f10610f7157610100808354040283529160200191610f9c565b820191906000526020600020905b815481529060010190602001808311610f7f57829003601f168201915b5050505050908060030160009054906101000a900460ff16908060030160019054906101000a900460ff16905085565b6060610fd7826121ff565b9050919050565b600760009054906101000a900473ffffffffffffffffffffffffffffffffffffffff1673ffffffffffffffffffffffffffffffffffffffff163373ffffffffffffffffffffffffffffffffffffffff161461106e576040517f08c379a000000000000000000000000000000000000000000000000000000000815260040161106590614d7e565b60405180910390fd5b6008548311156110b3576040517f08c379a00000000000000000000000000000000000000000000000000000000081526004016110aa90614dea565b60405180910390fd5b6000600960008581526020019081526020016000209050828160020190816110db9190614ae9565b5060018160030160006101000a81548160ff021916908315150217905550818160030160016101000a81548160ff02191690831515021790555050505050565b60008273ffffffffffffffffffffffffffffffffffffffff168273ffffffffffffffffffffffffffffffffffffffff160361119757600460008373ffffffffffffffffffffffffffffffffffffffff1673ffffffffffffffffffffffffffffffffffffffff168152602001908152602001600020549050611217565b600660008373ffffffffffffffffffffffffffffffffffffffff1673ffffffffffffffffffffffffffffffffffffffff16815260200190815260200160002060008473ffffffffffffffffffffffffffffffffffffffff1673ffffffffffffffffffffffffffffffffffffffff1681526020019081526020016000205490505b92915050565b60608282905067ffffffffffffffff81111561123c5761123b6133f9565b5b60405190808252806020026020018201604052801561126f57816020015b606081526020019060019003908161125a5790505b50905060005b83839050811015611392576000803073ffffffffffffffffffffffffffffffffffffffff168686858181106112ad576112ac614c2d565b5b90506020028101906112bf9190614e19565b6040516112cd929190614e7c565b600060405180830381855af49150503d8060008114611308576040519150601f19603f3d011682016040523d82523d6000602084013e61130d565b606091505b5091509150816113665760008151146113295780518082602001fd5b826040517fb774c28400000000000000000000000000000000000000000000000000000000815260040161135d9190613577565b60405180910390fd5b8084848151811061137a57611379614c2d565b5b60200260200101819052508260010192505050611275565b5092915050565b6000600460008373ffffffffffffffffffffffffffffffffffffffff1673ffffffffffffffffffffffffffffffffffffffff168152602001908152602001600020549050919050565b6113ea6122a4565b6113f46000612322565b565b600a6020528060005260406000206000915054906101000a900460ff1681565b8473ffffffffffffffffffffffffffffffffffffffff163373ffffffffffffffffffffffffffffffffffffffff1614611455576114543386856123e6565b5b61146285858585856124eb565b5050505050565b8273ffffffffffffffffffffffffffffffffffffffff163373ffffffffffffffffffffffffffffffffffffffff16141580156114d157508373ffffffffffffffffffffffffffffffffffffffff163373ffffffffffffffffffffffffffffffffffffffff1614155b15611517573383856040517f98ce294500000000000000000000000000000000000000000000000000000000815260040161150e93929190614c5c565b60405180910390fd5b6000611523858561111b565b90508281101561155f576040517f0ef76c3500000000000000000000000000000000000000000000000000000000815260040160405180910390fd5b60008382039050611574858783600187611efa565b600085828560405160200161158b93929190614bef565b60405160208183030381529060405290506115a687826121cd565b50505050505050565b6115b76122a4565b600034146115f1576040517ff36ba73700000000000000000000000000000000000000000000000000000000815260040160405180910390fd5b6115fb82826125f9565b5050565b60008060009054906101000a900473ffffffffffffffffffffffffffffffffffffffff16905090565b6116306122a4565b6000341461166a576040517ff36ba73700000000000000000000000000000000000000000000000000000000815260040160405180910390fd5b611674828261276a565b5050565b600760009054906101000a900473ffffffffffffffffffffffffffffffffffffffff1681565b600a60003373ffffffffffffffffffffffffffffffffffffffff1673ffffffffffffffffffffffffffffffffffffffff16815260200190815260200160002060009054906101000a900460ff161561172b576040517f08c379a000000000000000000000000000000000000000000000000000000000815260040161172290614ee1565b60405180910390fd5b6001600a60003373ffffffffffffffffffffffffffffffffffffffff1673ffffffffffffffffffffffffffffffffffffffff16815260200190815260200160002060006101000a81548160ff0219169083151502179055506117cd33670de0b6b3a764000060016040518060400160405280601b81526020017f4672656520746f6b656e20666f7220414d41207175657374696f6e000000000081525061283a565b565b6117dd338484600185611efa565b60003383836040516020016117f493929190614bef565b604051602081830303815290604052905061180f84826121cd565b50505050565b60085481565b6060611864600560008473ffffffffffffffffffffffffffffffffffffffff1673ffffffffffffffffffffffffffffffffffffffff168152602001908152602001600020612909565b9050919050565b6060815167ffffffffffffffff811115611888576118876133f9565b5b6040519080825280602002602001820160405280156118bb57816020015b60608152602001906001900390816118a65790505b50905060005b8251811015611916576118ed8382815181106118e0576118df614c2d565b5b60200260200101516121ff565b828281518110611900576118ff614c2d565b5b60200260200101819052508060010190506118c1565b50919050565b6060600080600190505b600854811161197a576009600082815260200190815260200160002060030160019054906101000a900460ff161561196757818061196390614895565b9250505b808061197290614895565b915050611926565b5060008167ffffffffffffffff811115611997576119966133f9565b5b6040519080825280602002602001820160405280156119d057816020015b6119bd613209565b8152602001906001900390816119b55790505b509050600080600190505b6008548111611c1b576009600082815260200190815260200160002060030160019054906101000a900460ff1615611c0857600960008281526020019081526020016000206040518060a00160405290816000820160009054906101000a900473ffffffffffffffffffffffffffffffffffffffff1673ffffffffffffffffffffffffffffffffffffffff1673ffffffffffffffffffffffffffffffffffffffff168152602001600182018054611a919061490c565b80601f0160208091040260200160405190810160405280929190818152602001828054611abd9061490c565b8015611b0a5780601f10611adf57610100808354040283529160200191611b0a565b820191906000526020600020905b815481529060010190602001808311611aed57829003601f168201915b50505050508152602001600282018054611b239061490c565b80601f0160208091040260200160405190810160405280929190818152602001828054611b4f9061490c565b8015611b9c5780601f10611b7157610100808354040283529160200191611b9c565b820191906000526020600020905b815481529060010190602001808311611b7f57829003601f168201915b505050505081526020016003820160009054906101000a900460ff161515151581526020016003820160019054906101000a900460ff161515151581525050838381518110611bee57611bed614c2d565b5b60200260200101819052508180611c0490614895565b9250505b8080611c1390614895565b9150506119db565b5081935050505090565b611c2d6122a4565b600073ffffffffffffffffffffffffffffffffffffffff168173ffffffffffffffffffffffffffffffffffffffff1603611c9c576040517f08c379a0000000000000000000000000000000000000000000000000000000008152600401611c9390614f73565b60405180910390fd5b611ca581612322565b50565b6000806000611ce369cee78b4094da8601109660b01b857bffffffffffffffffffffffffffffffffffffffffffffffffffffffff191661292a565b90506000611cf0826121ff565b90506014815114158015611d0657506000815114155b15611d4857806040517f42bfe79f000000000000000000000000000000000000000000000000000000008152600401611d3f9190613e0b565b60405180910390fd5b80611d5290614fe4565b60601c6001935093505050915091565b600063a918fa6b60e01b7bffffffffffffffffffffffffffffffffffffffffffffffffffffffff1916827bffffffffffffffffffffffffffffffffffffffffffffffffffffffff19161480611dbc5750611dbb8261296a565b5b9050919050565b600080611dd66301ffc9a760e01b611ca8565b509050600073ffffffffffffffffffffffffffffffffffffffff168173ffffffffffffffffffffffffffffffffffffffff1603611e17576000915050611e25565b611e2181846129cb565b9150505b919050565b600073ffffffffffffffffffffffffffffffffffffffff168373ffffffffffffffffffffffffffffffffffffffff1603611e90576040517fd2d5ec3000000000000000000000000000000000000000000000000000000000815260040160405180910390fd5b611e9f83600084600085612a8a565b611eae83600084600085612a91565b611ebd83600084600085612cd6565b6000338460008585604051602001611ed995949392919061504b565b6040516020818303038152906040529050611ef48482612cdd565b50505050565b600073ffffffffffffffffffffffffffffffffffffffff168473ffffffffffffffffffffffffffffffffffffffff1603611f60576040517f6355e76600000000000000000000000000000000000000000000000000000000815260040160405180910390fd5b8473ffffffffffffffffffffffffffffffffffffffff168473ffffffffffffffffffffffffffffffffffffffff1603611fc5576040517fdab7504700000000000000000000000000000000000000000000000000000000815260040160405180910390fd5b82600660008773ffffffffffffffffffffffffffffffffffffffff1673ffffffffffffffffffffffffffffffffffffffff16815260200190815260200160002060008673ffffffffffffffffffffffffffffffffffffffff1673ffffffffffffffffffffffffffffffffffffffff168152602001908152602001600020819055506000831461210b5761209f84600560008873ffffffffffffffffffffffffffffffffffffffff1673ffffffffffffffffffffffffffffffffffffffff168152602001908152602001600020612d0f90919063ffffffff16565b50828573ffffffffffffffffffffffffffffffffffffffff168573ffffffffffffffffffffffffffffffffffffffff167ff772a43bfdf4729b196e3fb54a818b91a2ca6c49d10b2e16278752f9f515c25d846040516120fe9190613e0b565b60405180910390a46121c6565b61215c84600560008873ffffffffffffffffffffffffffffffffffffffff1673ffffffffffffffffffffffffffffffffffffffff168152602001908152602001600020612d3f90919063ffffffff16565b508115158573ffffffffffffffffffffffffffffffffffffffff168573ffffffffffffffffffffffffffffffffffffffff167f0ebf5762d8855cbe012d2ca42fb33a81175e17c8a8751f8859931ba453bd4167846040516121bd9190613e0b565b60405180910390a45b5050505050565b6121fb827f386072cc5a58e61263b434c722725f21031cd06e7c552cfaa06db5de8a320dbc60001b83612d6f565b5050565b606060016000838152602001908152602001600020805461221f9061490c565b80601f016020809104026020016040519081016040528092919081815260200182805461224b9061490c565b80156122985780601f1061226d57610100808354040283529160200191612298565b820191906000526020600020905b81548152906001019060200180831161227b57829003601f168201915b50505050509050919050565b6122ac612e2e565b73ffffffffffffffffffffffffffffffffffffffff166122ca6115ff565b73ffffffffffffffffffffffffffffffffffffffff1614612320576040517f08c379a0000000000000000000000000000000000000000000000000000000008152600401612317906150f1565b60405180910390fd5b565b60008060009054906101000a900473ffffffffffffffffffffffffffffffffffffffff169050816000806101000a81548173ffffffffffffffffffffffffffffffffffffffff021916908373ffffffffffffffffffffffffffffffffffffffff1602179055508173ffffffffffffffffffffffffffffffffffffffff168173ffffffffffffffffffffffffffffffffffffffff167f8be0079c531659141344cd1fd0a4f28419497f9722a3daafe3b4186f6b6457e060405160405180910390a35050565b6000600660008473ffffffffffffffffffffffffffffffffffffffff1673ffffffffffffffffffffffffffffffffffffffff16815260200190815260200160002060008573ffffffffffffffffffffffffffffffffffffffff1673ffffffffffffffffffffffffffffffffffffffff168152602001908152602001600020549050600081148061247557508082115b156124bd57828185846040517ff3a6b6910000000000000000000000000000000000000000000000000000000081526004016124b49493929190615111565b60405180910390fd5b6124e5838584846124ce9190615156565b600060405180602001604052806000815250611efa565b50505050565b600073ffffffffffffffffffffffffffffffffffffffff168573ffffffffffffffffffffffffffffffffffffffff1614806125525750600073ffffffffffffffffffffffffffffffffffffffff168473ffffffffffffffffffffffffffffffffffffffff16145b15612589576040517fd2d5ec3000000000000000000000000000000000000000000000000000000000815260040160405180910390fd5b6125968585858585612a8a565b6125a38585858585612a91565b6125b08585858585612cd6565b600033868686856040516020016125cb95949392919061504b565b60405160208183030381529060405290506125e68682612cdd565b6125f1858483612e36565b505050505050565b7fdeba1e292f8ba88238e10ab3c7f88bd4be4fac56cad5194b6ecceaf653468af160001b8203612655576040517f85c169bd00000000000000000000000000000000000000000000000000000000815260040160405180910390fd5b7f2f0a68ab07768e01943a599e73362a0e17a63a72e94dd2e384d2c1d4db93275660001b82036126b1576040517f76755b3800000000000000000000000000000000000000000000000000000000815260040160405180910390fd5b7fe0261fa95db2eb3b5439bd033cda66d56b96f92f243a8228fd87550ed7bdfdb360001b820361270d576040517f4ef6d7fb00000000000000000000000000000000000000000000000000000000815260040160405180910390fd5b8060016000848152602001908152602001600020908161272d91906151e5565b50817fece574603820d07bc9b91f2a932baadf4628aabcb8afba49776529c14a6104b28260405161275e9190613e0b565b60405180910390a25050565b80518251146127a5576040517f3bcc897900000000000000000000000000000000000000000000000000000000815260040160405180910390fd5b60008251036127e0576040517f97da5f9500000000000000000000000000000000000000000000000000000000815260040160405180910390fd5b60005b82518110156128355761282a83828151811061280257612801614c2d565b5b602002602001015183838151811061281d5761281c614c2d565b5b60200260200101516125f9565b8060010190506127e3565b505050565b600073ffffffffffffffffffffffffffffffffffffffff168473ffffffffffffffffffffffffffffffffffffffff16036128a0576040517fd2d5ec3000000000000000000000000000000000000000000000000000000000815260040160405180910390fd5b6128ae600085858585612a8a565b6128bc600085858585612a91565b6128ca600085858585612cd6565b60003360008686856040516020016128e695949392919061504b565b6040516020818303038152906040529050612902858483612e36565b5050505050565b6060600061291983600001612f9c565b905060608190508092505050919050565b60008083600060f01b8460405160200161294693929190615372565b604051602081830303815290604052905080612961906153c4565b91505092915050565b600063629aa69460e01b7bffffffffffffffffffffffffffffffffffffffffffffffffffffffff1916827bffffffffffffffffffffffffffffffffffffffffffffffffffffffff191614806129c457506129c382612ff8565b5b9050919050565b6000806301ffc9a760e01b836040516024016129e7919061469d565b604051602081830303815290604052907bffffffffffffffffffffffffffffffffffffffffffffffffffffffff19166020820180517bffffffffffffffffffffffffffffffffffffffffffffffffffffffff838183161783525050505090506000806000602060008551602087018a617530fa92503d91506000519050828015612a72575060208210155b8015612a7e5750600081115b94505050505092915050565b5050505050565b600073ffffffffffffffffffffffffffffffffffffffff168573ffffffffffffffffffffffffffffffffffffffff1603612ae3578260036000828254612ad79190614bbb565b92505081905550612bb8565b6000600460008773ffffffffffffffffffffffffffffffffffffffff1673ffffffffffffffffffffffffffffffffffffffff16815260200190815260200160002054905083811015612b70578086856040517f08d47949000000000000000000000000000000000000000000000000000000008152600401612b679392919061542b565b60405180910390fd5b838103600460008873ffffffffffffffffffffffffffffffffffffffff1673ffffffffffffffffffffffffffffffffffffffff16815260200190815260200160002081905550505b600073ffffffffffffffffffffffffffffffffffffffff168473ffffffffffffffffffffffffffffffffffffffff1603612c015782600360008282540392505081905550612c4f565b82600460008673ffffffffffffffffffffffffffffffffffffffff1673ffffffffffffffffffffffffffffffffffffffff168152602001908152602001600020600082825401925050819055505b8373ffffffffffffffffffffffffffffffffffffffff168573ffffffffffffffffffffffffffffffffffffffff163373ffffffffffffffffffffffffffffffffffffffff167f3997e418d2cef0b3b0e907b1e39605c3f7d32dbd061e82ea5b4a770d46a160a6868686604051612cc793929190615462565b60405180910390a45050505050565b5050505050565b612d0b827f429ac7a06903dbc9c13dfcb3c9d11df8194581fa047c96d7a4171fc7402958ea60001b83612d6f565b5050565b6000612d37836000018373ffffffffffffffffffffffffffffffffffffffff1660001b613062565b905092915050565b6000612d67836000018373ffffffffffffffffffffffffffffffffffffffff1660001b6130d2565b905092915050565b612d9f636bb56a1460e01b8473ffffffffffffffffffffffffffffffffffffffff166129cb90919063ffffffff16565b15612e29578273ffffffffffffffffffffffffffffffffffffffff16636bb56a1483836040518363ffffffff1660e01b8152600401612ddf9291906154af565b6000604051808303816000875af1158015612dfe573d6000803e3d6000fd5b505050506040513d6000823e3d601f19601f82011682018060405250810190612e27919061554f565b505b505050565b600033905090565b612e4783636bb56a1460e01b6129cb565b15612ef8578273ffffffffffffffffffffffffffffffffffffffff16636bb56a147f20804611b3e2ea21c480dc465142210acf4a2485947541770ec1fb87dee4a55c60001b836040518363ffffffff1660e01b8152600401612eaa9291906154af565b6000604051808303816000875af1158015612ec9573d6000803e3d6000fd5b505050506040513d6000823e3d601f19601f82011682018060405250810190612ef2919061554f565b50612f97565b81612f965760008373ffffffffffffffffffffffffffffffffffffffff163b14612f5957826040517fa608fbb6000000000000000000000000000000000000000000000000000000008152600401612f509190614255565b60405180910390fd5b826040517f26c247f4000000000000000000000000000000000000000000000000000000008152600401612f8d9190614255565b60405180910390fd5b5b505050565b606081600001805480602002602001604051908101604052809291908181526020018280548015612fec57602002820191906000526020600020905b815481526020019060010190808311612fd8575b50505050509050919050565b60007f01ffc9a7000000000000000000000000000000000000000000000000000000007bffffffffffffffffffffffffffffffffffffffffffffffffffffffff1916827bffffffffffffffffffffffffffffffffffffffffffffffffffffffff1916149050919050565b600061306e83836131e6565b6130c75782600001829080600181540180825580915050600190039060005260206000200160009091909190915055826000018054905083600101600084815260200190815260200160002081905550600190506130cc565b600090505b92915050565b600080836001016000848152602001908152602001600020549050600081146131da5760006001826131049190615156565b905060006001866000018054905061311c9190615156565b905081811461318b57600086600001828154811061313d5761313c614c2d565b5b906000526020600020015490508087600001848154811061316157613160614c2d565b5b90600052602060002001819055508387600101600083815260200190815260200160002081905550505b8560000180548061319f5761319e615598565b5b6001900381819060005260206000200160009055905585600101600086815260200190815260200160002060009055600193505050506131e0565b60009150505b92915050565b600080836001016000848152602001908152602001600020541415905092915050565b6040518060a00160405280600073ffffffffffffffffffffffffffffffffffffffff16815260200160608152602001606081526020016000151581526020016000151581525090565b600082825260208201905092915050565b60008082015250565b6000613279600483613252565b915061328482613263565b602082019050919050565b600060208201905081810360008301526132a88161326c565b9050919050565b82818337600083830152505050565b6000601f19601f8301169050919050565b60006132db8385613252565b93506132e88385846132af565b6132f1836132be565b840190509392505050565b600060208201905081810360008301526133178184866132cf565b90509392505050565b6000604051905090565b600080fd5b600080fd5b60007fffffffff0000000000000000000000000000000000000000000000000000000082169050919050565b61336981613334565b811461337457600080fd5b50565b60008135905061338681613360565b92915050565b6000602082840312156133a2576133a161332a565b5b60006133b084828501613377565b91505092915050565b60008115159050919050565b6133ce816133b9565b82525050565b60006020820190506133e960008301846133c5565b92915050565b600080fd5b600080fd5b7f4e487b7100000000000000000000000000000000000000000000000000000000600052604160045260246000fd5b613431826132be565b810181811067ffffffffffffffff821117156134505761344f6133f9565b5b80604052505050565b6000613463613320565b905061346f8282613428565b919050565b600067ffffffffffffffff82111561348f5761348e6133f9565b5b613498826132be565b9050602081019050919050565b60006134b86134b384613474565b613459565b9050828152602081018484840111156134d4576134d36133f4565b5b6134df8482856132af565b509392505050565b600082601f8301126134fc576134fb6133ef565b5b813561350c8482602086016134a5565b91505092915050565b60006020828403121561352b5761352a61332a565b5b600082013567ffffffffffffffff8111156135495761354861332f565b5b613555848285016134e7565b91505092915050565b6000819050919050565b6135718161355e565b82525050565b600060208201905061358c6000830184613568565b92915050565b600073ffffffffffffffffffffffffffffffffffffffff82169050919050565b60006135bd82613592565b9050919050565b6135cd816135b2565b81146135d857600080fd5b50565b6000813590506135ea816135c4565b92915050565b6135f98161355e565b811461360457600080fd5b50565b600081359050613616816135f0565b92915050565b600067ffffffffffffffff821115613637576136366133f9565b5b613640826132be565b9050602081019050919050565b600061366061365b8461361c565b613459565b90508281526020810184848401111561367c5761367b6133f4565b5b6136878482856132af565b509392505050565b600082601f8301126136a4576136a36133ef565b5b81356136b484826020860161364d565b91505092915050565b6000806000606084860312156136d6576136d561332a565b5b60006136e4868287016135db565b93505060206136f586828701613607565b925050604084013567ffffffffffffffff8111156137165761371561332f565b5b6137228682870161368f565b9150509250925092565b600067ffffffffffffffff821115613747576137466133f9565b5b602082029050602081019050919050565b600080fd5b600061377061376b8461372c565b613459565b9050808382526020820190506020840283018581111561379357613792613758565b5b835b818110156137bc57806137a888826135db565b845260208401935050602081019050613795565b5050509392505050565b600082601f8301126137db576137da6133ef565b5b81356137eb84826020860161375d565b91505092915050565b600067ffffffffffffffff82111561380f5761380e6133f9565b5b602082029050602081019050919050565b600061383361382e846137f4565b613459565b9050808382526020820190506020840283018581111561385657613855613758565b5b835b8181101561387f578061386b8882613607565b845260208401935050602081019050613858565b5050509392505050565b600082601f83011261389e5761389d6133ef565b5b81356138ae848260208601613820565b91505092915050565b600067ffffffffffffffff8211156138d2576138d16133f9565b5b602082029050602081019050919050565b6138ec816133b9565b81146138f757600080fd5b50565b600081359050613909816138e3565b92915050565b600061392261391d846138b7565b613459565b9050808382526020820190506020840283018581111561394557613944613758565b5b835b8181101561396e578061395a88826138fa565b845260208401935050602081019050613947565b5050509392505050565b600082601f83011261398d5761398c6133ef565b5b813561399d84826020860161390f565b91505092915050565b600067ffffffffffffffff8211156139c1576139c06133f9565b5b602082029050602081019050919050565b60006139e56139e0846139a6565b613459565b90508083825260208201905060208402830185811115613a0857613a07613758565b5b835b81811015613a4f57803567ffffffffffffffff811115613a2d57613a2c6133ef565b5b808601613a3a898261368f565b85526020850194505050602081019050613a0a565b5050509392505050565b600082601f830112613a6e57613a6d6133ef565b5b8135613a7e8482602086016139d2565b91505092915050565b600080600080600060a08688031215613aa357613aa261332a565b5b600086013567ffffffffffffffff811115613ac157613ac061332f565b5b613acd888289016137c6565b955050602086013567ffffffffffffffff811115613aee57613aed61332f565b5b613afa888289016137c6565b945050604086013567ffffffffffffffff811115613b1b57613b1a61332f565b5b613b2788828901613889565b935050606086013567ffffffffffffffff811115613b4857613b4761332f565b5b613b5488828901613978565b925050608086013567ffffffffffffffff811115613b7557613b7461332f565b5b613b8188828901613a59565b9150509295509295909350565b60008060008060808587031215613ba857613ba761332a565b5b6000613bb6878288016135db565b9450506020613bc7878288016135db565b9350506040613bd8878288016138fa565b925050606085013567ffffffffffffffff811115613bf957613bf861332f565b5b613c058782880161368f565b91505092959194509250565b600060ff82169050919050565b613c2781613c11565b82525050565b6000602082019050613c426000830184613c1e565b92915050565b600060208284031215613c5e57613c5d61332a565b5b6000613c6c84828501613607565b91505092915050565b613c7e816135b2565b82525050565b600081519050919050565b600082825260208201905092915050565b60005b83811015613cbe578082015181840152602081019050613ca3565b60008484015250505050565b6000613cd582613c84565b613cdf8185613c8f565b9350613cef818560208601613ca0565b613cf8816132be565b840191505092915050565b600060a082019050613d186000830188613c75565b8181036020830152613d2a8187613cca565b90508181036040830152613d3e8186613cca565b9050613d4d60608301856133c5565b613d5a60808301846133c5565b9695505050505050565b6000819050919050565b613d7781613d64565b8114613d8257600080fd5b50565b600081359050613d9481613d6e565b92915050565b600060208284031215613db057613daf61332a565b5b6000613dbe84828501613d85565b91505092915050565b600081519050919050565b6000613ddd82613dc7565b613de78185613252565b9350613df7818560208601613ca0565b613e00816132be565b840191505092915050565b60006020820190508181036000830152613e258184613dd2565b905092915050565b600080600060608486031215613e4657613e4561332a565b5b6000613e5486828701613607565b935050602084013567ffffffffffffffff811115613e7557613e7461332f565b5b613e81868287016134e7565b9250506040613e92868287016138fa565b9150509250925092565b60008060408385031215613eb357613eb261332a565b5b6000613ec1858286016135db565b9250506020613ed2858286016135db565b9150509250929050565b600080fd5b60008083601f840112613ef757613ef66133ef565b5b8235905067ffffffffffffffff811115613f1457613f13613edc565b5b602083019150836020820283011115613f3057613f2f613758565b5b9250929050565b60008060208385031215613f4e57613f4d61332a565b5b600083013567ffffffffffffffff811115613f6c57613f6b61332f565b5b613f7885828601613ee1565b92509250509250929050565b600081519050919050565b600082825260208201905092915050565b6000819050602082019050919050565b600082825260208201905092915050565b6000613fcc82613dc7565b613fd68185613fb0565b9350613fe6818560208601613ca0565b613fef816132be565b840191505092915050565b60006140068383613fc1565b905092915050565b6000602082019050919050565b600061402682613f84565b6140308185613f8f565b93508360208202850161404285613fa0565b8060005b8581101561407e578484038952815161405f8582613ffa565b945061406a8361400e565b925060208a01995050600181019050614046565b50829750879550505050505092915050565b600060208201905081810360008301526140aa818461401b565b905092915050565b6000602082840312156140c8576140c761332a565b5b60006140d6848285016135db565b91505092915050565b600080600080600060a086880312156140fb576140fa61332a565b5b6000614109888289016135db565b955050602061411a888289016135db565b945050604061412b88828901613607565b935050606061413c888289016138fa565b925050608086013567ffffffffffffffff81111561415d5761415c61332f565b5b6141698882890161368f565b9150509295509295909350565b600080600080608085870312156141905761418f61332a565b5b600061419e878288016135db565b94505060206141af878288016135db565b93505060406141c087828801613607565b925050606085013567ffffffffffffffff8111156141e1576141e061332f565b5b6141ed8782880161368f565b91505092959194509250565b600080604083850312156142105761420f61332a565b5b600061421e85828601613d85565b925050602083013567ffffffffffffffff81111561423f5761423e61332f565b5b61424b8582860161368f565b9150509250929050565b600060208201905061426a6000830184613c75565b92915050565b600067ffffffffffffffff82111561428b5761428a6133f9565b5b602082029050602081019050919050565b60006142af6142aa84614270565b613459565b905080838252602082019050602084028301858111156142d2576142d1613758565b5b835b818110156142fb57806142e78882613d85565b8452602084019350506020810190506142d4565b5050509392505050565b600082601f83011261431a576143196133ef565b5b813561432a84826020860161429c565b91505092915050565b6000806040838503121561434a5761434961332a565b5b600083013567ffffffffffffffff8111156143685761436761332f565b5b61437485828601614305565b925050602083013567ffffffffffffffff8111156143955761439461332f565b5b6143a185828601613a59565b9150509250929050565b600081519050919050565b600082825260208201905092915050565b6000819050602082019050919050565b6143e0816135b2565b82525050565b60006143f283836143d7565b60208301905092915050565b6000602082019050919050565b6000614416826143ab565b61442081856143b6565b935061442b836143c7565b8060005b8381101561445c57815161444388826143e6565b975061444e836143fe565b92505060018101905061442f565b5085935050505092915050565b60006020820190508181036000830152614483818461440b565b905092915050565b6000602082840312156144a1576144a061332a565b5b600082013567ffffffffffffffff8111156144bf576144be61332f565b5b6144cb84828501614305565b91505092915050565b600081519050919050565b600082825260208201905092915050565b6000819050602082019050919050565b600082825260208201905092915050565b600061451c82613c84565b6145268185614500565b9350614536818560208601613ca0565b61453f816132be565b840191505092915050565b614553816133b9565b82525050565b600060a08301600083015161457160008601826143d7565b50602083015184820360208601526145898282614511565b915050604083015184820360408601526145a38282614511565b91505060608301516145b8606086018261454a565b5060808301516145cb608086018261454a565b508091505092915050565b60006145e28383614559565b905092915050565b6000602082019050919050565b6000614602826144d4565b61460c81856144df565b93508360208202850161461e856144f0565b8060005b8581101561465a578484038952815161463b85826145d6565b9450614646836145ea565b925060208a01995050600181019050614622565b50829750879550505050505092915050565b6000602082019050818103600083015261468681846145f7565b905092915050565b61469781613334565b82525050565b60006020820190506146b2600083018461468e565b92915050565b600081905092915050565b60006146cf83856146b8565b93506146dc8385846132af565b82840190509392505050565b60008160601b9050919050565b6000614700826146e8565b9050919050565b6000614712826146f5565b9050919050565b61472a614725826135b2565b614707565b82525050565b6000819050919050565b61474b6147468261355e565b614730565b82525050565b600061475e8286886146c3565b915061476a8285614719565b60148201915061477a828461473a565b60208201915081905095945050505050565b600061479782613dc7565b6147a181856146b8565b93506147b1818560208601613ca0565b80840191505092915050565b60006147c9828461478c565b915081905092915050565b7f596f75206e656564206120746f6b656e20746f207375626d697420612071756560008201527f7374696f6e000000000000000000000000000000000000000000000000000000602082015250565b6000614830602583613c8f565b915061483b826147d4565b604082019050919050565b6000602082019050818103600083015261485f81614823565b9050919050565b7f4e487b7100000000000000000000000000000000000000000000000000000000600052601160045260246000fd5b60006148a08261355e565b91507fffffffffffffffffffffffffffffffffffffffffffffffffffffffffffffffff82036148d2576148d1614866565b5b600182019050919050565b7f4e487b7100000000000000000000000000000000000000000000000000000000600052602260045260246000fd5b6000600282049050600182168061492457607f821691505b602082108103614937576149366148dd565b5b50919050565b60008190508160005260206000209050919050565b60006020601f8301049050919050565b600082821b905092915050565b60006008830261499f7fffffffffffffffffffffffffffffffffffffffffffffffffffffffffffffffff82614962565b6149a98683614962565b95508019841693508086168417925050509392505050565b6000819050919050565b60006149e66149e16149dc8461355e565b6149c1565b61355e565b9050919050565b6000819050919050565b614a00836149cb565b614a14614a0c826149ed565b84845461496f565b825550505050565b600090565b614a29614a1c565b614a348184846149f7565b505050565b5b81811015614a5857614a4d600082614a21565b600181019050614a3a565b5050565b601f821115614a9d57614a6e8161493d565b614a7784614952565b81016020851015614a86578190505b614a9a614a9285614952565b830182614a39565b50505b505050565b600082821c905092915050565b6000614ac060001984600802614aa2565b1980831691505092915050565b6000614ad98383614aaf565b9150826002028217905092915050565b614af282613c84565b67ffffffffffffffff811115614b0b57614b0a6133f9565b5b614b15825461490c565b614b20828285614a5c565b600060209050601f831160018114614b535760008415614b41578287015190505b614b4b8582614acd565b865550614bb3565b601f198416614b618661493d565b60005b82811015614b8957848901518255600182019150602085019450602081019050614b64565b86831015614ba65784890151614ba2601f891682614aaf565b8355505b6001600288020188555050505b505050505050565b6000614bc68261355e565b9150614bd18361355e565b9250828201905080821115614be957614be8614866565b5b92915050565b6000606082019050614c046000830186613c75565b614c116020830185613568565b8181036040830152614c238184613dd2565b9050949350505050565b7f4e487b7100000000000000000000000000000000000000000000000000000000600052603260045260246000fd5b6000606082019050614c716000830186613c75565b614c7e6020830185613c75565b614c8b6040830184613c75565b949350505050565b6000819050919050565b6000614cb8614cb3614cae84614c93565b6149c1565b613c11565b9050919050565b614cc881614c9d565b82525050565b6000606082019050614ce36000830186613c75565b614cf06020830185614cbf565b8181036040830152614d028184613dd2565b9050949350505050565b7f4f6e6c79207468652070726f66696c65206f776e65722063616e20616e73776560008201527f72207175657374696f6e73000000000000000000000000000000000000000000602082015250565b6000614d68602b83613c8f565b9150614d7382614d0c565b604082019050919050565b60006020820190508181036000830152614d9781614d5b565b9050919050565b7f496e76616c6964207175657374696f6e20494400000000000000000000000000600082015250565b6000614dd4601383613c8f565b9150614ddf82614d9e565b602082019050919050565b60006020820190508181036000830152614e0381614dc7565b9050919050565b600080fd5b600080fd5b600080fd5b60008083356001602003843603038112614e3657614e35614e0a565b5b80840192508235915067ffffffffffffffff821115614e5857614e57614e0f565b5b602083019250600182023603831315614e7457614e73614e14565b5b509250929050565b6000614e898284866146c3565b91508190509392505050565b7f416c726561647920636c61696d65642061206672656520746f6b656e00000000600082015250565b6000614ecb601c83613c8f565b9150614ed682614e95565b602082019050919050565b60006020820190508181036000830152614efa81614ebe565b9050919050565b7f4f776e61626c653a206e6577206f776e657220697320746865207a65726f206160008201527f6464726573730000000000000000000000000000000000000000000000000000602082015250565b6000614f5d602683613c8f565b9150614f6882614f01565b604082019050919050565b60006020820190508181036000830152614f8c81614f50565b9050919050565b6000819050602082019050919050565b60007fffffffffffffffffffffffffffffffffffffffff00000000000000000000000082169050919050565b6000614fdb8251614fa3565b80915050919050565b6000614fef82613dc7565b82614ff984614f93565b905061500481614fcf565b925060148210156150445761503f7fffffffffffffffffffffffffffffffffffffffff00000000000000000000000083601403600802614962565b831692505b5050919050565b600060a0820190506150606000830188613c75565b61506d6020830187613c75565b61507a6040830186613c75565b6150876060830185613568565b81810360808301526150998184613dd2565b90509695505050505050565b7f4f776e61626c653a2063616c6c6572206973206e6f7420746865206f776e6572600082015250565b60006150db602083613c8f565b91506150e6826150a5565b602082019050919050565b6000602082019050818103600083015261510a816150ce565b9050919050565b60006080820190506151266000830187613c75565b6151336020830186613568565b6151406040830185613c75565b61514d6060830184613568565b95945050505050565b60006151618261355e565b915061516c8361355e565b925082820390508181111561518457615183614866565b5b92915050565b60008190508160005260206000209050919050565b601f8211156151e0576151b18161518a565b6151ba84614952565b810160208510156151c9578190505b6151dd6151d585614952565b830182614a39565b50505b505050565b6151ee82613dc7565b67ffffffffffffffff811115615207576152066133f9565b5b615211825461490c565b61521c82828561519f565b600060209050601f83116001811461524f576000841561523d578287015190505b6152478582614acd565b8655506152af565b601f19841661525d8661518a565b60005b8281101561528557848901518255600182019150602085019450602081019050615260565b868310156152a2578489015161529e601f891682614aaf565b8355505b6001600288020188555050505b505050505050565b60007fffffffffffffffffffff0000000000000000000000000000000000000000000082169050919050565b6000819050919050565b6152fe6152f9826152b7565b6152e3565b82525050565b60007fffff00000000000000000000000000000000000000000000000000000000000082169050919050565b6000819050919050565b61534b61534682615304565b615330565b82525050565b6000819050919050565b61536c61536782614fa3565b615351565b82525050565b600061537e82866152ed565b600a8201915061538e828561533a565b60028201915061539e828461535b565b601482019150819050949350505050565b60006153bb8251613d64565b80915050919050565b60006153cf82613dc7565b826153d984614f93565b90506153e4816153af565b925060208210156154245761541f7fffffffffffffffffffffffffffffffffffffffffffffffffffffffffffffffff83602003600802614962565b831692505b5050919050565b60006060820190506154406000830186613568565b61544d6020830185613c75565b61545a6040830184613568565b949350505050565b60006060820190506154776000830186613568565b61548460208301856133c5565b81810360408301526154968184613dd2565b9050949350505050565b6154a981613d64565b82525050565b60006040820190506154c460008301856154a0565b81810360208301526154d68184613dd2565b90509392505050565b60006154f26154ed8461361c565b613459565b90508281526020810184848401111561550e5761550d6133f4565b5b615519848285613ca0565b509392505050565b600082601f830112615536576155356133ef565b5b81516155468482602086016154df565b91505092915050565b6000602082840312156155655761556461332a565b5b600082015167ffffffffffffffff8111156155835761558261332f565b5b61558f84828501615521565b91505092915050565b7f4e487b7100000000000000000000000000000000000000000000000000000000600052603160045260246000fdfea26469706673582212205561ce7e909793c298902968e15be71b681f75dc4e2238312c60a2db2f17b73464736f6c63430008130033",
  "linkReferences": {},
  "deployedLinkReferences": {}
}