{
  "_format": "hh-sol-artifact-1",
  "contractName": "SimpleAMA",
  "sourceName": "contracts/ama.sol",
  "abi": [
    {
      "inputs": [
        {
          "internalType": "address",
          "name": "newOwner",
          "type": "address"
        }
      ],
      "stateMutability": "nonpayable",
      "type": "constructor"
    },
    {
      "inputs": [],
      "name": "ERC725Y_DataKeysValuesEmptyArray",
      "type": "error"
    },
    {
      "inputs": [],
      "name": "ERC725Y_DataKeysValuesLengthMismatch",
      "type": "error"
    },
    {
      "inputs": [],
      "name": "ERC725Y_MsgValueDisallowed",
      "type": "error"
    },
    {
      "inputs": [
        {
          "internalType": "bytes",
          "name": "storedData",
          "type": "bytes"
        }
      ],
      "name": "InvalidExtensionAddress",
      "type": "error"
    },
    {
      "inputs": [
        {
          "internalType": "bytes",
          "name": "data",
          "type": "bytes"
        }
      ],
      "name": "InvalidFunctionSelector",
      "type": "error"
    },
    {
      "inputs": [],
      "name": "LSP4TokenNameNotEditable",
      "type": "error"
    },
    {
      "inputs": [],
      "name": "LSP4TokenSymbolNotEditable",
      "type": "error"
    },
    {
      "inputs": [],
      "name": "LSP4TokenTypeNotEditable",
      "type": "error"
    },
    {
      "inputs": [
        {
          "internalType": "address",
          "name": "tokenOwner",
          "type": "address"
        },
        {
          "internalType": "uint256",
          "name": "authorizedAmount",
          "type": "uint256"
        },
        {
          "internalType": "address",
          "name": "operator",
          "type": "address"
        },
        {
          "internalType": "uint256",
          "name": "amount",
          "type": "uint256"
        }
      ],
      "name": "LSP7AmountExceedsAuthorizedAmount",
      "type": "error"
    },
    {
      "inputs": [
        {
          "internalType": "uint256",
          "name": "balance",
          "type": "uint256"
        },
        {
          "internalType": "address",
          "name": "tokenOwner",
          "type": "address"
        },
        {
          "internalType": "uint256",
          "name": "amount",
          "type": "uint256"
        }
      ],
      "name": "LSP7AmountExceedsBalance",
      "type": "error"
    },
    {
      "inputs": [
        {
          "internalType": "uint256",
          "name": "callIndex",
          "type": "uint256"
        }
      ],
      "name": "LSP7BatchCallFailed",
      "type": "error"
    },
    {
      "inputs": [],
      "name": "LSP7CannotSendWithAddressZero",
      "type": "error"
    },
    {
      "inputs": [],
      "name": "LSP7CannotUseAddressZeroAsOperator",
      "type": "error"
    },
    {
      "inputs": [
        {
          "internalType": "address",
          "name": "caller",
          "type": "address"
        },
        {
          "internalType": "address",
          "name": "tokenOwner",
          "type": "address"
        },
        {
          "internalType": "address",
          "name": "operator",
          "type": "address"
        }
      ],
      "name": "LSP7DecreaseAllowanceNotAuthorized",
      "type": "error"
    },
    {
      "inputs": [],
      "name": "LSP7DecreasedAllowanceBelowZero",
      "type": "error"
    },
    {
      "inputs": [],
      "name": "LSP7InvalidTransferBatch",
      "type": "error"
    },
    {
      "inputs": [
        {
          "internalType": "address",
          "name": "tokenReceiver",
          "type": "address"
        }
      ],
      "name": "LSP7NotifyTokenReceiverContractMissingLSP1Interface",
      "type": "error"
    },
    {
      "inputs": [
        {
          "internalType": "address",
          "name": "tokenReceiver",
          "type": "address"
        }
      ],
      "name": "LSP7NotifyTokenReceiverIsEOA",
      "type": "error"
    },
    {
      "inputs": [
        {
          "internalType": "address",
          "name": "caller",
          "type": "address"
        },
        {
          "internalType": "address",
          "name": "tokenOwner",
          "type": "address"
        },
        {
          "internalType": "address",
          "name": "operator",
          "type": "address"
        }
      ],
      "name": "LSP7RevokeOperatorNotAuthorized",
      "type": "error"
    },
    {
      "inputs": [],
      "name": "LSP7TokenContractCannotHoldValue",
      "type": "error"
    },
    {
      "inputs": [],
      "name": "LSP7TokenOwnerCannotBeOperator",
      "type": "error"
    },
    {
      "inputs": [
        {
          "internalType": "bytes4",
          "name": "functionSelector",
          "type": "bytes4"
        }
      ],
      "name": "NoExtensionFoundForFunctionSelector",
      "type": "error"
    },
    {
      "inputs": [
        {
          "internalType": "address",
          "name": "operator",
          "type": "address"
        }
      ],
      "name": "OperatorAllowanceCannotBeIncreasedFromZero",
      "type": "error"
    },
    {
      "inputs": [],
      "name": "OwnableCannotSetZeroAddressAsOwner",
      "type": "error"
    },
    {
      "anonymous": false,
      "inputs": [
        {
          "indexed": true,
          "internalType": "bytes32",
          "name": "dataKey",
          "type": "bytes32"
        },
        {
          "indexed": false,
          "internalType": "bytes",
          "name": "dataValue",
          "type": "bytes"
        }
      ],
      "name": "DataChanged",
      "type": "event"
    },
    {
      "anonymous": false,
      "inputs": [
        {
          "indexed": true,
          "internalType": "address",
          "name": "operator",
          "type": "address"
        },
        {
          "indexed": true,
          "internalType": "address",
          "name": "tokenOwner",
          "type": "address"
        },
        {
          "indexed": true,
          "internalType": "uint256",
          "name": "amount",
          "type": "uint256"
        },
        {
          "indexed": false,
          "internalType": "bytes",
          "name": "operatorNotificationData",
          "type": "bytes"
        }
      ],
      "name": "OperatorAuthorizationChanged",
      "type": "event"
    },
    {
      "anonymous": false,
      "inputs": [
        {
          "indexed": true,
          "internalType": "address",
          "name": "operator",
          "type": "address"
        },
        {
          "indexed": true,
          "internalType": "address",
          "name": "tokenOwner",
          "type": "address"
        },
        {
          "indexed": true,
          "internalType": "bool",
          "name": "notified",
          "type": "bool"
        },
        {
          "indexed": false,
          "internalType": "bytes",
          "name": "operatorNotificationData",
          "type": "bytes"
        }
      ],
      "name": "OperatorRevoked",
      "type": "event"
    },
    {
      "anonymous": false,
      "inputs": [
        {
          "indexed": true,
          "internalType": "address",
          "name": "previousOwner",
          "type": "address"
        },
        {
          "indexed": true,
          "internalType": "address",
          "name": "newOwner",
          "type": "address"
        }
      ],
      "name": "OwnershipTransferred",
      "type": "event"
    },
    {
      "anonymous": false,
      "inputs": [
        {
          "indexed": true,
          "internalType": "address",
          "name": "operator",
          "type": "address"
        },
        {
          "indexed": true,
          "internalType": "address",
          "name": "from",
          "type": "address"
        },
        {
          "indexed": true,
          "internalType": "address",
          "name": "to",
          "type": "address"
        },
        {
          "indexed": false,
          "internalType": "uint256",
          "name": "amount",
          "type": "uint256"
        },
        {
          "indexed": false,
          "internalType": "bool",
          "name": "force",
          "type": "bool"
        },
        {
          "indexed": false,
          "internalType": "bytes",
          "name": "data",
          "type": "bytes"
        }
      ],
      "name": "Transfer",
      "type": "event"
    },
    {
      "stateMutability": "payable",
      "type": "fallback"
    },
    {
      "inputs": [
        {
          "internalType": "uint256",
          "name": "_questionId",
          "type": "uint256"
        },
        {
          "internalType": "string",
          "name": "_answerText",
          "type": "string"
        }
      ],
      "name": "answerQuestion",
      "outputs": [],
      "stateMutability": "nonpayable",
      "type": "function"
    },
    {
      "inputs": [
        {
          "internalType": "address",
          "name": "operator",
          "type": "address"
        },
        {
          "internalType": "uint256",
          "name": "amount",
          "type": "uint256"
        },
        {
          "internalType": "bytes",
          "name": "operatorNotificationData",
          "type": "bytes"
        }
      ],
      "name": "authorizeOperator",
      "outputs": [],
      "stateMutability": "nonpayable",
      "type": "function"
    },
    {
      "inputs": [
        {
          "internalType": "address",
          "name": "operator",
          "type": "address"
        },
        {
          "internalType": "address",
          "name": "tokenOwner",
          "type": "address"
        }
      ],
      "name": "authorizedAmountFor",
      "outputs": [
        {
          "internalType": "uint256",
          "name": "",
          "type": "uint256"
        }
      ],
      "stateMutability": "view",
      "type": "function"
    },
    {
      "inputs": [
        {
          "internalType": "address",
          "name": "tokenOwner",
          "type": "address"
        }
      ],
      "name": "balanceOf",
      "outputs": [
        {
          "internalType": "uint256",
          "name": "",
          "type": "uint256"
        }
      ],
      "stateMutability": "view",
      "type": "function"
    },
    {
      "inputs": [
        {
          "internalType": "bytes[]",
          "name": "data",
          "type": "bytes[]"
        }
      ],
      "name": "batchCalls",
      "outputs": [
        {
          "internalType": "bytes[]",
          "name": "results",
          "type": "bytes[]"
        }
      ],
      "stateMutability": "nonpayable",
      "type": "function"
    },
    {
      "inputs": [],
      "name": "claimFreeToken",
      "outputs": [],
      "stateMutability": "nonpayable",
      "type": "function"
    },
    {
      "inputs": [],
      "name": "decimals",
      "outputs": [
        {
          "internalType": "uint8",
          "name": "",
          "type": "uint8"
        }
      ],
      "stateMutability": "view",
      "type": "function"
    },
    {
      "inputs": [
        {
          "internalType": "address",
          "name": "operator",
          "type": "address"
        },
        {
          "internalType": "address",
          "name": "tokenOwner",
          "type": "address"
        },
        {
          "internalType": "uint256",
          "name": "subtractedAmount",
          "type": "uint256"
        },
        {
          "internalType": "bytes",
          "name": "operatorNotificationData",
          "type": "bytes"
        }
      ],
      "name": "decreaseAllowance",
      "outputs": [],
      "stateMutability": "nonpayable",
      "type": "function"
    },
    {
      "inputs": [],
      "name": "getAllQuestions",
      "outputs": [
        {
          "components": [
            {
              "internalType": "address",
              "name": "sender",
              "type": "address"
            },
            {
              "internalType": "string",
              "name": "questionText",
              "type": "string"
            },
            {
              "internalType": "string",
              "name": "answerText",
              "type": "string"
            },
            {
              "internalType": "bool",
              "name": "answered",
              "type": "bool"
            }
          ],
          "internalType": "struct SimpleAMA.Question[]",
          "name": "",
          "type": "tuple[]"
        }
      ],
      "stateMutability": "view",
      "type": "function"
    },
    {
      "inputs": [
        {
          "internalType": "bytes32",
          "name": "dataKey",
          "type": "bytes32"
        }
      ],
      "name": "getData",
      "outputs": [
        {
          "internalType": "bytes",
          "name": "dataValue",
          "type": "bytes"
        }
      ],
      "stateMutability": "view",
      "type": "function"
    },
    {
      "inputs": [
        {
          "internalType": "bytes32[]",
          "name": "dataKeys",
          "type": "bytes32[]"
        }
      ],
      "name": "getDataBatch",
      "outputs": [
        {
          "internalType": "bytes[]",
          "name": "dataValues",
          "type": "bytes[]"
        }
      ],
      "stateMutability": "view",
      "type": "function"
    },
    {
      "inputs": [
        {
          "internalType": "address",
          "name": "tokenOwner",
          "type": "address"
        }
      ],
      "name": "getOperatorsOf",
      "outputs": [
        {
          "internalType": "address[]",
          "name": "",
          "type": "address[]"
        }
      ],
      "stateMutability": "view",
      "type": "function"
    },
    {
      "inputs": [
        {
          "internalType": "address",
          "name": "",
          "type": "address"
        }
      ],
      "name": "hasReceivedToken",
      "outputs": [
        {
          "internalType": "bool",
          "name": "",
          "type": "bool"
        }
      ],
      "stateMutability": "view",
      "type": "function"
    },
    {
      "inputs": [
        {
          "internalType": "address",
          "name": "user",
          "type": "address"
        }
      ],
      "name": "hasSubmittedQuestion",
      "outputs": [
        {
          "internalType": "bool",
          "name": "",
          "type": "bool"
        }
      ],
      "stateMutability": "view",
      "type": "function"
    },
    {
      "inputs": [
        {
          "internalType": "address",
          "name": "operator",
          "type": "address"
        },
        {
          "internalType": "uint256",
          "name": "addedAmount",
          "type": "uint256"
        },
        {
          "internalType": "bytes",
          "name": "operatorNotificationData",
          "type": "bytes"
        }
      ],
      "name": "increaseAllowance",
      "outputs": [],
      "stateMutability": "nonpayable",
      "type": "function"
    },
    {
      "inputs": [],
      "name": "owner",
      "outputs": [
        {
          "internalType": "address",
          "name": "",
          "type": "address"
        }
      ],
      "stateMutability": "view",
      "type": "function"
    },
    {
      "inputs": [],
      "name": "profileOwner",
      "outputs": [
        {
          "internalType": "address",
          "name": "",
          "type": "address"
        }
      ],
      "stateMutability": "view",
      "type": "function"
    },
    {
      "inputs": [],
      "name": "questionCounter",
      "outputs": [
        {
          "internalType": "uint256",
          "name": "",
          "type": "uint256"
        }
      ],
      "stateMutability": "view",
      "type": "function"
    },
    {
      "inputs": [
        {
          "internalType": "uint256",
          "name": "",
          "type": "uint256"
        }
      ],
      "name": "questions",
      "outputs": [
        {
          "internalType": "address",
          "name": "sender",
          "type": "address"
        },
        {
          "internalType": "string",
          "name": "questionText",
          "type": "string"
        },
        {
          "internalType": "string",
          "name": "answerText",
          "type": "string"
        },
        {
          "internalType": "bool",
          "name": "answered",
          "type": "bool"
        }
      ],
      "stateMutability": "view",
      "type": "function"
    },
    {
      "inputs": [],
      "name": "renounceOwnership",
      "outputs": [],
      "stateMutability": "nonpayable",
      "type": "function"
    },
    {
      "inputs": [
        {
          "internalType": "address",
          "name": "operator",
          "type": "address"
        },
        {
          "internalType": "address",
          "name": "tokenOwner",
          "type": "address"
        },
        {
          "internalType": "bool",
          "name": "notify",
          "type": "bool"
        },
        {
          "internalType": "bytes",
          "name": "operatorNotificationData",
          "type": "bytes"
        }
      ],
      "name": "revokeOperator",
      "outputs": [],
      "stateMutability": "nonpayable",
      "type": "function"
    },
    {
      "inputs": [
        {
          "internalType": "bytes32",
          "name": "dataKey",
          "type": "bytes32"
        },
        {
          "internalType": "bytes",
          "name": "dataValue",
          "type": "bytes"
        }
      ],
      "name": "setData",
      "outputs": [],
      "stateMutability": "payable",
      "type": "function"
    },
    {
      "inputs": [
        {
          "internalType": "bytes32[]",
          "name": "dataKeys",
          "type": "bytes32[]"
        },
        {
          "internalType": "bytes[]",
          "name": "dataValues",
          "type": "bytes[]"
        }
      ],
      "name": "setDataBatch",
      "outputs": [],
      "stateMutability": "payable",
      "type": "function"
    },
    {
      "inputs": [
        {
          "internalType": "string",
          "name": "_questionText",
          "type": "string"
        }
      ],
      "name": "submitQuestion",
      "outputs": [],
      "stateMutability": "nonpayable",
      "type": "function"
    },
    {
      "inputs": [
        {
          "internalType": "bytes4",
          "name": "interfaceId",
          "type": "bytes4"
        }
      ],
      "name": "supportsInterface",
      "outputs": [
        {
          "internalType": "bool",
          "name": "",
          "type": "bool"
        }
      ],
      "stateMutability": "view",
      "type": "function"
    },
    {
      "inputs": [],
      "name": "totalSupply",
      "outputs": [
        {
          "internalType": "uint256",
          "name": "",
          "type": "uint256"
        }
      ],
      "stateMutability": "view",
      "type": "function"
    },
    {
      "inputs": [
        {
          "internalType": "address",
          "name": "from",
          "type": "address"
        },
        {
          "internalType": "address",
          "name": "to",
          "type": "address"
        },
        {
          "internalType": "uint256",
          "name": "amount",
          "type": "uint256"
        },
        {
          "internalType": "bool",
          "name": "force",
          "type": "bool"
        },
        {
          "internalType": "bytes",
          "name": "data",
          "type": "bytes"
        }
      ],
      "name": "transfer",
      "outputs": [],
      "stateMutability": "nonpayable",
      "type": "function"
    },
    {
      "inputs": [
        {
          "internalType": "address[]",
          "name": "from",
          "type": "address[]"
        },
        {
          "internalType": "address[]",
          "name": "to",
          "type": "address[]"
        },
        {
          "internalType": "uint256[]",
          "name": "amount",
          "type": "uint256[]"
        },
        {
          "internalType": "bool[]",
          "name": "force",
          "type": "bool[]"
        },
        {
          "internalType": "bytes[]",
          "name": "data",
          "type": "bytes[]"
        }
      ],
      "name": "transferBatch",
      "outputs": [],
      "stateMutability": "nonpayable",
      "type": "function"
    },
    {
      "inputs": [
        {
          "internalType": "address",
          "name": "newOwner",
          "type": "address"
        }
      ],
      "name": "transferOwnership",
      "outputs": [],
      "stateMutability": "nonpayable",
      "type": "function"
    },
    {
      "stateMutability": "payable",
      "type": "receive"
    }
  ],
  "bytecode": "0x60806040523480156200001157600080fd5b5060405162005ea038038062005ea0833981810160405281019062000037919062000471565b6040518060400160405280601381526020017f46726565205175657374696f6e20546f6b656e000000000000000000000000008152506040518060400160405280600381526020017f4651540000000000000000000000000000000000000000000000000000000000815250826000808484848481620000cc620000c0620002da60201b60201c565b620002e260201b60201c565b600073ffffffffffffffffffffffffffffffffffffffff168173ffffffffffffffffffffffffffffffffffffffff160362000133576040517f1ad8836c00000000000000000000000000000000000000000000000000000000815260040160405180910390fd5b6200014481620002e260201b60201c565b50620001af7feafec4d89fa9619884b60000a4d96624a38f7ac2d8d9a604ecf07c12c77e480c60001b6040518060400160405280600481526020017fa4d9662400000000000000000000000000000000000000000000000000000000815250620003a660201b60201c565b620001e47fdeba1e292f8ba88238e10ab3c7f88bd4be4fac56cad5194b6ecceaf653468af160001b85620003a660201b60201c565b620002197f2f0a68ab07768e01943a599e73362a0e17a63a72e94dd2e384d2c1d4db93275660001b84620003a660201b60201c565b6200026f7fe0261fa95db2eb3b5439bd033cda66d56b96f92f243a8228fd87550ed7bdfdb360001b82604051602001620002549190620004be565b604051602081830303815290604052620003a660201b60201c565b5050505080600260006101000a81548160ff021916908315150217905550505050505080600760006101000a81548173ffffffffffffffffffffffffffffffffffffffff021916908373ffffffffffffffffffffffffffffffffffffffff16021790555050620008e5565b600033905090565b60008060009054906101000a900473ffffffffffffffffffffffffffffffffffffffff169050816000806101000a81548173ffffffffffffffffffffffffffffffffffffffff021916908373ffffffffffffffffffffffffffffffffffffffff1602179055508173ffffffffffffffffffffffffffffffffffffffff168173ffffffffffffffffffffffffffffffffffffffff167f8be0079c531659141344cd1fd0a4f28419497f9722a3daafe3b4186f6b6457e060405160405180910390a35050565b80600160008481526020019081526020016000209081620003c891906200074b565b50817fece574603820d07bc9b91f2a932baadf4628aabcb8afba49776529c14a6104b282604051620003fb9190620008c1565b60405180910390a25050565b600080fd5b600073ffffffffffffffffffffffffffffffffffffffff82169050919050565b600062000439826200040c565b9050919050565b6200044b816200042c565b81146200045757600080fd5b50565b6000815190506200046b8162000440565b92915050565b6000602082840312156200048a576200048962000407565b5b60006200049a848285016200045a565b91505092915050565b6000819050919050565b620004b881620004a3565b82525050565b6000602082019050620004d56000830184620004ad565b92915050565b600081519050919050565b7f4e487b7100000000000000000000000000000000000000000000000000000000600052604160045260246000fd5b7f4e487b7100000000000000000000000000000000000000000000000000000000600052602260045260246000fd5b600060028204905060018216806200055d57607f821691505b60208210810362000573576200057262000515565b5b50919050565b60008190508160005260206000209050919050565b60006020601f8301049050919050565b600082821b905092915050565b600060088302620005dd7fffffffffffffffffffffffffffffffffffffffffffffffffffffffffffffffff826200059e565b620005e986836200059e565b95508019841693508086168417925050509392505050565b6000819050919050565b60006200062c620006266200062084620004a3565b62000601565b620004a3565b9050919050565b6000819050919050565b62000648836200060b565b62000660620006578262000633565b848454620005ab565b825550505050565b600090565b6200067762000668565b620006848184846200063d565b505050565b5b81811015620006ac57620006a06000826200066d565b6001810190506200068a565b5050565b601f821115620006fb57620006c58162000579565b620006d0846200058e565b81016020851015620006e0578190505b620006f8620006ef856200058e565b83018262000689565b50505b505050565b600082821c905092915050565b6000620007206000198460080262000700565b1980831691505092915050565b60006200073b83836200070d565b9150826002028217905092915050565b6200075682620004db565b67ffffffffffffffff811115620007725762000771620004e6565b5b6200077e825462000544565b6200078b828285620006b0565b600060209050601f831160018114620007c35760008415620007ae578287015190505b620007ba85826200072d565b8655506200082a565b601f198416620007d38662000579565b60005b82811015620007fd57848901518255600182019150602085019450602081019050620007d6565b868310156200081d578489015162000819601f8916826200070d565b8355505b6001600288020188555050505b505050505050565b600082825260208201905092915050565b60005b838110156200086357808201518184015260208101905062000846565b60008484015250505050565b6000601f19601f8301169050919050565b60006200088d82620004db565b62000899818562000832565b9350620008ab81856020860162000843565b620008b6816200086f565b840191505092915050565b60006020820190508181036000830152620008dd818462000880565b905092915050565b6155ab80620008f56000396000f3fe6080604052600436106101c65760003560e01c806370a08231116100f75780639790242111610095578063b7b064a811610064578063b7b064a814610718578063d72fc29a14610743578063dedff9c614610780578063f2fde38b146107bd57610240565b80639790242114610691578063ac0f05f6146106ad578063adcea55a146106d8578063b49506fd146106ef57610240565b8063760d9bba116100d1578063760d9bba146105f857806378381670146106215780637f23690c1461064a5780638da5cb5b1461066657610240565b806370a0823114610567578063715018a6146105a457806373a6f6a6146105bb57610240565b806330d0dc3711610164578063447e52a01161013e578063447e52a01461048757806354f6127f146104b057806365aeaa95146104ed5780636963d4381461052a57610240565b806330d0dc37146103f3578063313ce5671461041c57806331b1b9781461044757610240565b806318160ddd116101a057806318160ddd1461034b5780632af9338e146103765780632bc1da82146103a15780632d7667c9146103ca57610240565b806301ffc9a7146102a8578063099ee6f2146102e55780630f86c6181461030e57610240565b36610240576000340361020e576040517fe5099ee300000000000000000000000000000000000000000000000000000000815260040161020590613271565b60405180910390fd5b6040517f388f5adc00000000000000000000000000000000000000000000000000000000815260040160405180910390fd5b60003660606004600036905010156102915782826040517fe5099ee30000000000000000000000000000000000000000000000000000000081526004016102889291906132de565b60405180910390fd5b61029b83836107e6565b9050915050805190602001f35b3480156102b457600080fd5b506102cf60048036038101906102ca919061336e565b610964565b6040516102dc91906133b6565b60405180910390f35b3480156102f157600080fd5b5061030c600480360381019061030791906134f7565b6109d5565b005b34801561031a57600080fd5b506103356004803603810190610330919061359e565b610b7f565b60405161034291906133b6565b60405180910390f35b34801561035757600080fd5b50610360610c21565b60405161036d91906135e4565b60405180910390f35b34801561038257600080fd5b5061038b610c2b565b60405161039891906137c8565b60405180910390f35b3480156103ad57600080fd5b506103c860048036038101906103c391906138b7565b610e8f565b005b3480156103d657600080fd5b506103f160048036038101906103ec9190613c81565b610f3a565b005b3480156103ff57600080fd5b5061041a60048036038101906104159190613d88565b61104e565b005b34801561042857600080fd5b5061043161114b565b60405161043e9190613e27565b60405180910390f35b34801561045357600080fd5b5061046e60048036038101906104699190613e42565b611170565b60405161047e9493929190613ec8565b60405180910390f35b34801561049357600080fd5b506104ae60048036038101906104a99190613f1b565b6112dd565b005b3480156104bc57600080fd5b506104d760048036038101906104d29190613fad565b6113fd565b6040516104e4919061401e565b60405180910390f35b3480156104f957600080fd5b50610514600480360381019061050f9190614040565b61140f565b60405161052191906135e4565b60405180910390f35b34801561053657600080fd5b50610551600480360381019061054c91906140db565b611511565b60405161055e9190614234565b60405180910390f35b34801561057357600080fd5b5061058e6004803603810190610589919061359e565b61168d565b60405161059b91906135e4565b60405180910390f35b3480156105b057600080fd5b506105b96116d6565b005b3480156105c757600080fd5b506105e260048036038101906105dd919061359e565b6116ea565b6040516105ef91906133b6565b60405180910390f35b34801561060457600080fd5b5061061f600480360381019061061a9190614256565b61170a565b005b34801561062d57600080fd5b50610648600480360381019061064391906142ed565b61175d565b005b610664600480360381019061065f9190614370565b6118a3565b005b34801561067257600080fd5b5061067b6118f3565b60405161068891906143cc565b60405180910390f35b6106ab60048036038101906106a691906144aa565b61191c565b005b3480156106b957600080fd5b506106c261196c565b6040516106cf91906143cc565b60405180910390f35b3480156106e457600080fd5b506106ed611992565b005b3480156106fb57600080fd5b50610716600480360381019061071191906138b7565b611ac3565b005b34801561072457600080fd5b5061072d611b09565b60405161073a91906135e4565b60405180910390f35b34801561074f57600080fd5b5061076a6004803603810190610765919061359e565b611b0f565b60405161077791906145d1565b60405180910390f35b34801561078c57600080fd5b506107a760048036038101906107a291906145f3565b611b5f565b6040516107b49190614234565b60405180910390f35b3480156107c957600080fd5b506107e460048036038101906107df919061359e565b611c10565b005b606060006108176000357fffffffff0000000000000000000000000000000000000000000000000000000016611c93565b509050600073ffffffffffffffffffffffffffffffffffffffff168173ffffffffffffffffffffffffffffffffffffffff16036108af576000357fffffffff00000000000000000000000000000000000000000000000000000000166040517fbb370b2b0000000000000000000000000000000000000000000000000000000081526004016108a6919061464b565b60405180910390fd5b6000808273ffffffffffffffffffffffffffffffffffffffff1634878733346040516020016108e194939291906146ff565b6040516020818303038152906040526040516108fd919061476b565b60006040518083038185875af1925050503d806000811461093a576040519150601f19603f3d011682016040523d82523d6000602084013e61093f565b606091505b509150915081156109555780935050505061095e565b80518060208301fd5b92915050565b600063c52d600860e01b7bffffffffffffffffffffffffffffffffffffffffffffffffffffffff1916827bffffffffffffffffffffffffffffffffffffffffffffffffffffffff191614806109be57506109bd82611d4d565b5b806109ce57506109cd82611dae565b5b9050919050565b670de0b6b3a76400006109e73361168d565b1015610a28576040517f08c379a0000000000000000000000000000000000000000000000000000000008152600401610a1f906147f4565b60405180910390fd5b60086000815480929190610a3b90614843565b919050555060405180608001604052803373ffffffffffffffffffffffffffffffffffffffff1681526020018281526020016040518060200160405280600081525081526020016000151581525060096000600854815260200190815260200160002060008201518160000160006101000a81548173ffffffffffffffffffffffffffffffffffffffff021916908373ffffffffffffffffffffffffffffffffffffffff1602179055506020820151816001019081610afa9190614a97565b506040820151816002019081610b109190614a97565b5060608201518160030160006101000a81548160ff021916908315150217905550905050610b7c33670de0b6b3a76400006040518060400160405280601f81526020017f4275726e20746f6b656e20746f207375626d69742061207175657374696f6e00815250611e15565b50565b600080600190505b6008548111610c16578273ffffffffffffffffffffffffffffffffffffffff166009600083815260200190815260200160002060000160009054906101000a900473ffffffffffffffffffffffffffffffffffffffff1673ffffffffffffffffffffffffffffffffffffffff1603610c03576001915050610c1c565b8080610c0e90614843565b915050610b87565b50600090505b919050565b6000600354905090565b6060600060085467ffffffffffffffff811115610c4b57610c4a6133db565b5b604051908082528060200260200182016040528015610c8457816020015b610c716131f4565b815260200190600190039081610c695790505b5090506000600190505b6008548111610e8757600960008281526020019081526020016000206040518060800160405290816000820160009054906101000a900473ffffffffffffffffffffffffffffffffffffffff1673ffffffffffffffffffffffffffffffffffffffff1673ffffffffffffffffffffffffffffffffffffffff168152602001600182018054610d1b906148ba565b80601f0160208091040260200160405190810160405280929190818152602001828054610d47906148ba565b8015610d945780601f10610d6957610100808354040283529160200191610d94565b820191906000526020600020905b815481529060010190602001808311610d7757829003601f168201915b50505050508152602001600282018054610dad906148ba565b80601f0160208091040260200160405190810160405280929190818152602001828054610dd9906148ba565b8015610e265780601f10610dfb57610100808354040283529160200191610e26565b820191906000526020600020905b815481529060010190602001808311610e0957829003601f168201915b505050505081526020016003820160009054906101000a900460ff16151515158152505082600183610e589190614b69565b81518110610e6957610e68614b9d565b5b60200260200101819052508080610e7f90614843565b915050610c8e565b508091505090565b6000610e9b843361140f565b905060008103610ee257836040517fcba6e977000000000000000000000000000000000000000000000000000000008152600401610ed991906143cc565b60405180910390fd5b60008382610ef09190614bcc565b9050610f00338683600187611ee5565b6000338285604051602001610f1793929190614c00565b6040516020818303038152906040529050610f3286826121b8565b505050505050565b600085519050845181141580610f51575083518114155b80610f5d575082518114155b80610f69575081518114155b15610fa0576040517f263eee8d00000000000000000000000000000000000000000000000000000000815260040160405180910390fd5b60005b818110156110455761103a878281518110610fc157610fc0614b9d565b5b6020026020010151878381518110610fdc57610fdb614b9d565b5b6020026020010151878481518110610ff757610ff6614b9d565b5b602002602001015187858151811061101257611011614b9d565b5b602002602001015187868151811061102d5761102c614b9d565b5b602002602001015161170a565b806001019050610fa3565b50505050505050565b8273ffffffffffffffffffffffffffffffffffffffff163373ffffffffffffffffffffffffffffffffffffffff16141580156110b657508373ffffffffffffffffffffffffffffffffffffffff163373ffffffffffffffffffffffffffffffffffffffff1614155b156110fc573383856040517f1a525b320000000000000000000000000000000000000000000000000000000081526004016110f393929190614c3e565b60405180910390fd5b61110a838560008585611ee5565b81156111455760008360008360405160200161112893929190614cb0565b604051602081830303815290604052905061114385826121b8565b505b50505050565b6000600260009054906101000a900460ff1661116857601261116b565b60005b905090565b60096020528060005260406000206000915090508060000160009054906101000a900473ffffffffffffffffffffffffffffffffffffffff16908060010180546111b9906148ba565b80601f01602080910402602001604051908101604052809291908181526020018280546111e5906148ba565b80156112325780601f1061120757610100808354040283529160200191611232565b820191906000526020600020905b81548152906001019060200180831161121557829003601f168201915b505050505090806002018054611247906148ba565b80601f0160208091040260200160405190810160405280929190818152602001828054611273906148ba565b80156112c05780601f10611295576101008083540402835291602001916112c0565b820191906000526020600020905b8154815290600101906020018083116112a357829003601f168201915b5050505050908060030160009054906101000a900460ff16905084565b600760009054906101000a900473ffffffffffffffffffffffffffffffffffffffff1673ffffffffffffffffffffffffffffffffffffffff163373ffffffffffffffffffffffffffffffffffffffff161461136d576040517f08c379a000000000000000000000000000000000000000000000000000000000815260040161136490614d60565b60405180910390fd5b6008548211156113b2576040517f08c379a00000000000000000000000000000000000000000000000000000000081526004016113a990614dcc565b60405180910390fd5b6000600960008481526020019081526020016000209050818160020190816113da9190614a97565b5060018160030160006101000a81548160ff021916908315150217905550505050565b6060611408826121ea565b9050919050565b60008273ffffffffffffffffffffffffffffffffffffffff168273ffffffffffffffffffffffffffffffffffffffff160361148b57600460008373ffffffffffffffffffffffffffffffffffffffff1673ffffffffffffffffffffffffffffffffffffffff16815260200190815260200160002054905061150b565b600660008373ffffffffffffffffffffffffffffffffffffffff1673ffffffffffffffffffffffffffffffffffffffff16815260200190815260200160002060008473ffffffffffffffffffffffffffffffffffffffff1673ffffffffffffffffffffffffffffffffffffffff1681526020019081526020016000205490505b92915050565b60608282905067ffffffffffffffff8111156115305761152f6133db565b5b60405190808252806020026020018201604052801561156357816020015b606081526020019060019003908161154e5790505b50905060005b83839050811015611686576000803073ffffffffffffffffffffffffffffffffffffffff168686858181106115a1576115a0614b9d565b5b90506020028101906115b39190614dfb565b6040516115c1929190614e5e565b600060405180830381855af49150503d80600081146115fc576040519150601f19603f3d011682016040523d82523d6000602084013e611601565b606091505b50915091508161165a57600081511461161d5780518082602001fd5b826040517fb774c28400000000000000000000000000000000000000000000000000000000815260040161165191906135e4565b60405180910390fd5b8084848151811061166e5761166d614b9d565b5b60200260200101819052508260010192505050611569565b5092915050565b6000600460008373ffffffffffffffffffffffffffffffffffffffff1673ffffffffffffffffffffffffffffffffffffffff168152602001908152602001600020549050919050565b6116de61228f565b6116e8600061230d565b565b600a6020528060005260406000206000915054906101000a900460ff1681565b8473ffffffffffffffffffffffffffffffffffffffff163373ffffffffffffffffffffffffffffffffffffffff1614611749576117483386856123d1565b5b61175685858585856124d6565b5050505050565b8273ffffffffffffffffffffffffffffffffffffffff163373ffffffffffffffffffffffffffffffffffffffff16141580156117c557508373ffffffffffffffffffffffffffffffffffffffff163373ffffffffffffffffffffffffffffffffffffffff1614155b1561180b573383856040517f98ce294500000000000000000000000000000000000000000000000000000000815260040161180293929190614c3e565b60405180910390fd5b6000611817858561140f565b905082811015611853576040517f0ef76c3500000000000000000000000000000000000000000000000000000000815260040160405180910390fd5b60008382039050611868858783600187611ee5565b600085828560405160200161187f93929190614c00565b604051602081830303815290604052905061189a87826121b8565b50505050505050565b6118ab61228f565b600034146118e5576040517ff36ba73700000000000000000000000000000000000000000000000000000000815260040160405180910390fd5b6118ef82826125e4565b5050565b60008060009054906101000a900473ffffffffffffffffffffffffffffffffffffffff16905090565b61192461228f565b6000341461195e576040517ff36ba73700000000000000000000000000000000000000000000000000000000815260040160405180910390fd5b6119688282612755565b5050565b600760009054906101000a900473ffffffffffffffffffffffffffffffffffffffff1681565b600a60003373ffffffffffffffffffffffffffffffffffffffff1673ffffffffffffffffffffffffffffffffffffffff16815260200190815260200160002060009054906101000a900460ff1615611a1f576040517f08c379a0000000000000000000000000000000000000000000000000000000008152600401611a1690614ec3565b60405180910390fd5b6001600a60003373ffffffffffffffffffffffffffffffffffffffff1673ffffffffffffffffffffffffffffffffffffffff16815260200190815260200160002060006101000a81548160ff021916908315150217905550611ac133670de0b6b3a764000060016040518060400160405280601b81526020017f4672656520746f6b656e20666f7220414d41207175657374696f6e0000000000815250612825565b565b611ad1338484600185611ee5565b6000338383604051602001611ae893929190614c00565b6040516020818303038152906040529050611b0384826121b8565b50505050565b60085481565b6060611b58600560008473ffffffffffffffffffffffffffffffffffffffff1673ffffffffffffffffffffffffffffffffffffffff1681526020019081526020016000206128f4565b9050919050565b6060815167ffffffffffffffff811115611b7c57611b7b6133db565b5b604051908082528060200260200182016040528015611baf57816020015b6060815260200190600190039081611b9a5790505b50905060005b8251811015611c0a57611be1838281518110611bd457611bd3614b9d565b5b60200260200101516121ea565b828281518110611bf457611bf3614b9d565b5b6020026020010181905250806001019050611bb5565b50919050565b611c1861228f565b600073ffffffffffffffffffffffffffffffffffffffff168173ffffffffffffffffffffffffffffffffffffffff1603611c87576040517f08c379a0000000000000000000000000000000000000000000000000000000008152600401611c7e90614f55565b60405180910390fd5b611c908161230d565b50565b6000806000611cce69cee78b4094da8601109660b01b857bffffffffffffffffffffffffffffffffffffffffffffffffffffffff1916612915565b90506000611cdb826121ea565b90506014815114158015611cf157506000815114155b15611d3357806040517f42bfe79f000000000000000000000000000000000000000000000000000000008152600401611d2a919061401e565b60405180910390fd5b80611d3d90614fc6565b60601c6001935093505050915091565b600063a918fa6b60e01b7bffffffffffffffffffffffffffffffffffffffffffffffffffffffff1916827bffffffffffffffffffffffffffffffffffffffffffffffffffffffff19161480611da75750611da682612955565b5b9050919050565b600080611dc16301ffc9a760e01b611c93565b509050600073ffffffffffffffffffffffffffffffffffffffff168173ffffffffffffffffffffffffffffffffffffffff1603611e02576000915050611e10565b611e0c81846129b6565b9150505b919050565b600073ffffffffffffffffffffffffffffffffffffffff168373ffffffffffffffffffffffffffffffffffffffff1603611e7b576040517fd2d5ec3000000000000000000000000000000000000000000000000000000000815260040160405180910390fd5b611e8a83600084600085612a75565b611e9983600084600085612a7c565b611ea883600084600085612cc1565b6000338460008585604051602001611ec495949392919061502d565b6040516020818303038152906040529050611edf8482612cc8565b50505050565b600073ffffffffffffffffffffffffffffffffffffffff168473ffffffffffffffffffffffffffffffffffffffff1603611f4b576040517f6355e76600000000000000000000000000000000000000000000000000000000815260040160405180910390fd5b8473ffffffffffffffffffffffffffffffffffffffff168473ffffffffffffffffffffffffffffffffffffffff1603611fb0576040517fdab7504700000000000000000000000000000000000000000000000000000000815260040160405180910390fd5b82600660008773ffffffffffffffffffffffffffffffffffffffff1673ffffffffffffffffffffffffffffffffffffffff16815260200190815260200160002060008673ffffffffffffffffffffffffffffffffffffffff1673ffffffffffffffffffffffffffffffffffffffff16815260200190815260200160002081905550600083146120f65761208a84600560008873ffffffffffffffffffffffffffffffffffffffff1673ffffffffffffffffffffffffffffffffffffffff168152602001908152602001600020612cfa90919063ffffffff16565b50828573ffffffffffffffffffffffffffffffffffffffff168573ffffffffffffffffffffffffffffffffffffffff167ff772a43bfdf4729b196e3fb54a818b91a2ca6c49d10b2e16278752f9f515c25d846040516120e9919061401e565b60405180910390a46121b1565b61214784600560008873ffffffffffffffffffffffffffffffffffffffff1673ffffffffffffffffffffffffffffffffffffffff168152602001908152602001600020612d2a90919063ffffffff16565b508115158573ffffffffffffffffffffffffffffffffffffffff168573ffffffffffffffffffffffffffffffffffffffff167f0ebf5762d8855cbe012d2ca42fb33a81175e17c8a8751f8859931ba453bd4167846040516121a8919061401e565b60405180910390a45b5050505050565b6121e6827f386072cc5a58e61263b434c722725f21031cd06e7c552cfaa06db5de8a320dbc60001b83612d5a565b5050565b606060016000838152602001908152602001600020805461220a906148ba565b80601f0160208091040260200160405190810160405280929190818152602001828054612236906148ba565b80156122835780601f1061225857610100808354040283529160200191612283565b820191906000526020600020905b81548152906001019060200180831161226657829003601f168201915b50505050509050919050565b612297612e19565b73ffffffffffffffffffffffffffffffffffffffff166122b56118f3565b73ffffffffffffffffffffffffffffffffffffffff161461230b576040517f08c379a0000000000000000000000000000000000000000000000000000000008152600401612302906150d3565b60405180910390fd5b565b60008060009054906101000a900473ffffffffffffffffffffffffffffffffffffffff169050816000806101000a81548173ffffffffffffffffffffffffffffffffffffffff021916908373ffffffffffffffffffffffffffffffffffffffff1602179055508173ffffffffffffffffffffffffffffffffffffffff168173ffffffffffffffffffffffffffffffffffffffff167f8be0079c531659141344cd1fd0a4f28419497f9722a3daafe3b4186f6b6457e060405160405180910390a35050565b6000600660008473ffffffffffffffffffffffffffffffffffffffff1673ffffffffffffffffffffffffffffffffffffffff16815260200190815260200160002060008573ffffffffffffffffffffffffffffffffffffffff1673ffffffffffffffffffffffffffffffffffffffff168152602001908152602001600020549050600081148061246057508082115b156124a857828185846040517ff3a6b69100000000000000000000000000000000000000000000000000000000815260040161249f94939291906150f3565b60405180910390fd5b6124d0838584846124b99190614b69565b600060405180602001604052806000815250611ee5565b50505050565b600073ffffffffffffffffffffffffffffffffffffffff168573ffffffffffffffffffffffffffffffffffffffff16148061253d5750600073ffffffffffffffffffffffffffffffffffffffff168473ffffffffffffffffffffffffffffffffffffffff16145b15612574576040517fd2d5ec3000000000000000000000000000000000000000000000000000000000815260040160405180910390fd5b6125818585858585612a75565b61258e8585858585612a7c565b61259b8585858585612cc1565b600033868686856040516020016125b695949392919061502d565b60405160208183030381529060405290506125d18682612cc8565b6125dc858483612e21565b505050505050565b7fdeba1e292f8ba88238e10ab3c7f88bd4be4fac56cad5194b6ecceaf653468af160001b8203612640576040517f85c169bd00000000000000000000000000000000000000000000000000000000815260040160405180910390fd5b7f2f0a68ab07768e01943a599e73362a0e17a63a72e94dd2e384d2c1d4db93275660001b820361269c576040517f76755b3800000000000000000000000000000000000000000000000000000000815260040160405180910390fd5b7fe0261fa95db2eb3b5439bd033cda66d56b96f92f243a8228fd87550ed7bdfdb360001b82036126f8576040517f4ef6d7fb00000000000000000000000000000000000000000000000000000000815260040160405180910390fd5b806001600084815260200190815260200160002090816127189190615193565b50817fece574603820d07bc9b91f2a932baadf4628aabcb8afba49776529c14a6104b282604051612749919061401e565b60405180910390a25050565b8051825114612790576040517f3bcc897900000000000000000000000000000000000000000000000000000000815260040160405180910390fd5b60008251036127cb576040517f97da5f9500000000000000000000000000000000000000000000000000000000815260040160405180910390fd5b60005b8251811015612820576128158382815181106127ed576127ec614b9d565b5b602002602001015183838151811061280857612807614b9d565b5b60200260200101516125e4565b8060010190506127ce565b505050565b600073ffffffffffffffffffffffffffffffffffffffff168473ffffffffffffffffffffffffffffffffffffffff160361288b576040517fd2d5ec3000000000000000000000000000000000000000000000000000000000815260040160405180910390fd5b612899600085858585612a75565b6128a7600085858585612a7c565b6128b5600085858585612cc1565b60003360008686856040516020016128d195949392919061502d565b60405160208183030381529060405290506128ed858483612e21565b5050505050565b6060600061290483600001612f87565b905060608190508092505050919050565b60008083600060f01b8460405160200161293193929190615320565b60405160208183030381529060405290508061294c90615372565b91505092915050565b600063629aa69460e01b7bffffffffffffffffffffffffffffffffffffffffffffffffffffffff1916827bffffffffffffffffffffffffffffffffffffffffffffffffffffffff191614806129af57506129ae82612fe3565b5b9050919050565b6000806301ffc9a760e01b836040516024016129d2919061464b565b604051602081830303815290604052907bffffffffffffffffffffffffffffffffffffffffffffffffffffffff19166020820180517bffffffffffffffffffffffffffffffffffffffffffffffffffffffff838183161783525050505090506000806000602060008551602087018a617530fa92503d91506000519050828015612a5d575060208210155b8015612a695750600081115b94505050505092915050565b5050505050565b600073ffffffffffffffffffffffffffffffffffffffff168573ffffffffffffffffffffffffffffffffffffffff1603612ace578260036000828254612ac29190614bcc565b92505081905550612ba3565b6000600460008773ffffffffffffffffffffffffffffffffffffffff1673ffffffffffffffffffffffffffffffffffffffff16815260200190815260200160002054905083811015612b5b578086856040517f08d47949000000000000000000000000000000000000000000000000000000008152600401612b52939291906153d9565b60405180910390fd5b838103600460008873ffffffffffffffffffffffffffffffffffffffff1673ffffffffffffffffffffffffffffffffffffffff16815260200190815260200160002081905550505b600073ffffffffffffffffffffffffffffffffffffffff168473ffffffffffffffffffffffffffffffffffffffff1603612bec5782600360008282540392505081905550612c3a565b82600460008673ffffffffffffffffffffffffffffffffffffffff1673ffffffffffffffffffffffffffffffffffffffff168152602001908152602001600020600082825401925050819055505b8373ffffffffffffffffffffffffffffffffffffffff168573ffffffffffffffffffffffffffffffffffffffff163373ffffffffffffffffffffffffffffffffffffffff167f3997e418d2cef0b3b0e907b1e39605c3f7d32dbd061e82ea5b4a770d46a160a6868686604051612cb293929190615410565b60405180910390a45050505050565b5050505050565b612cf6827f429ac7a06903dbc9c13dfcb3c9d11df8194581fa047c96d7a4171fc7402958ea60001b83612d5a565b5050565b6000612d22836000018373ffffffffffffffffffffffffffffffffffffffff1660001b61304d565b905092915050565b6000612d52836000018373ffffffffffffffffffffffffffffffffffffffff1660001b6130bd565b905092915050565b612d8a636bb56a1460e01b8473ffffffffffffffffffffffffffffffffffffffff166129b690919063ffffffff16565b15612e14578273ffffffffffffffffffffffffffffffffffffffff16636bb56a1483836040518363ffffffff1660e01b8152600401612dca92919061545d565b6000604051808303816000875af1158015612de9573d6000803e3d6000fd5b505050506040513d6000823e3d601f19601f82011682018060405250810190612e1291906154fd565b505b505050565b600033905090565b612e3283636bb56a1460e01b6129b6565b15612ee3578273ffffffffffffffffffffffffffffffffffffffff16636bb56a147f20804611b3e2ea21c480dc465142210acf4a2485947541770ec1fb87dee4a55c60001b836040518363ffffffff1660e01b8152600401612e9592919061545d565b6000604051808303816000875af1158015612eb4573d6000803e3d6000fd5b505050506040513d6000823e3d601f19601f82011682018060405250810190612edd91906154fd565b50612f82565b81612f815760008373ffffffffffffffffffffffffffffffffffffffff163b14612f4457826040517fa608fbb6000000000000000000000000000000000000000000000000000000008152600401612f3b91906143cc565b60405180910390fd5b826040517f26c247f4000000000000000000000000000000000000000000000000000000008152600401612f7891906143cc565b60405180910390fd5b5b505050565b606081600001805480602002602001604051908101604052809291908181526020018280548015612fd757602002820191906000526020600020905b815481526020019060010190808311612fc3575b50505050509050919050565b60007f01ffc9a7000000000000000000000000000000000000000000000000000000007bffffffffffffffffffffffffffffffffffffffffffffffffffffffff1916827bffffffffffffffffffffffffffffffffffffffffffffffffffffffff1916149050919050565b600061305983836131d1565b6130b25782600001829080600181540180825580915050600190039060005260206000200160009091909190915055826000018054905083600101600084815260200190815260200160002081905550600190506130b7565b600090505b92915050565b600080836001016000848152602001908152602001600020549050600081146131c55760006001826130ef9190614b69565b90506000600186600001805490506131079190614b69565b905081811461317657600086600001828154811061312857613127614b9d565b5b906000526020600020015490508087600001848154811061314c5761314b614b9d565b5b90600052602060002001819055508387600101600083815260200190815260200160002081905550505b8560000180548061318a57613189615546565b5b6001900381819060005260206000200160009055905585600101600086815260200190815260200160002060009055600193505050506131cb565b60009150505b92915050565b600080836001016000848152602001908152602001600020541415905092915050565b6040518060800160405280600073ffffffffffffffffffffffffffffffffffffffff16815260200160608152602001606081526020016000151581525090565b600082825260208201905092915050565b60008082015250565b600061325b600483613234565b915061326682613245565b602082019050919050565b6000602082019050818103600083015261328a8161324e565b9050919050565b82818337600083830152505050565b6000601f19601f8301169050919050565b60006132bd8385613234565b93506132ca838584613291565b6132d3836132a0565b840190509392505050565b600060208201905081810360008301526132f98184866132b1565b90509392505050565b6000604051905090565b600080fd5b600080fd5b60007fffffffff0000000000000000000000000000000000000000000000000000000082169050919050565b61334b81613316565b811461335657600080fd5b50565b60008135905061336881613342565b92915050565b6000602082840312156133845761338361330c565b5b600061339284828501613359565b91505092915050565b60008115159050919050565b6133b08161339b565b82525050565b60006020820190506133cb60008301846133a7565b92915050565b600080fd5b600080fd5b7f4e487b7100000000000000000000000000000000000000000000000000000000600052604160045260246000fd5b613413826132a0565b810181811067ffffffffffffffff82111715613432576134316133db565b5b80604052505050565b6000613445613302565b9050613451828261340a565b919050565b600067ffffffffffffffff821115613471576134706133db565b5b61347a826132a0565b9050602081019050919050565b600061349a61349584613456565b61343b565b9050828152602081018484840111156134b6576134b56133d6565b5b6134c1848285613291565b509392505050565b600082601f8301126134de576134dd6133d1565b5b81356134ee848260208601613487565b91505092915050565b60006020828403121561350d5761350c61330c565b5b600082013567ffffffffffffffff81111561352b5761352a613311565b5b613537848285016134c9565b91505092915050565b600073ffffffffffffffffffffffffffffffffffffffff82169050919050565b600061356b82613540565b9050919050565b61357b81613560565b811461358657600080fd5b50565b60008135905061359881613572565b92915050565b6000602082840312156135b4576135b361330c565b5b60006135c284828501613589565b91505092915050565b6000819050919050565b6135de816135cb565b82525050565b60006020820190506135f960008301846135d5565b92915050565b600081519050919050565b600082825260208201905092915050565b6000819050602082019050919050565b61363481613560565b82525050565b600081519050919050565b600082825260208201905092915050565b60005b83811015613674578082015181840152602081019050613659565b60008484015250505050565b600061368b8261363a565b6136958185613645565b93506136a5818560208601613656565b6136ae816132a0565b840191505092915050565b6136c28161339b565b82525050565b60006080830160008301516136e0600086018261362b565b50602083015184820360208601526136f88282613680565b915050604083015184820360408601526137128282613680565b915050606083015161372760608601826136b9565b508091505092915050565b600061373e83836136c8565b905092915050565b6000602082019050919050565b600061375e826135ff565b613768818561360a565b93508360208202850161377a8561361b565b8060005b858110156137b657848403895281516137978582613732565b94506137a283613746565b925060208a0199505060018101905061377e565b50829750879550505050505092915050565b600060208201905081810360008301526137e28184613753565b905092915050565b6137f3816135cb565b81146137fe57600080fd5b50565b600081359050613810816137ea565b92915050565b600067ffffffffffffffff821115613831576138306133db565b5b61383a826132a0565b9050602081019050919050565b600061385a61385584613816565b61343b565b905082815260208101848484011115613876576138756133d6565b5b613881848285613291565b509392505050565b600082601f83011261389e5761389d6133d1565b5b81356138ae848260208601613847565b91505092915050565b6000806000606084860312156138d0576138cf61330c565b5b60006138de86828701613589565b93505060206138ef86828701613801565b925050604084013567ffffffffffffffff8111156139105761390f613311565b5b61391c86828701613889565b9150509250925092565b600067ffffffffffffffff821115613941576139406133db565b5b602082029050602081019050919050565b600080fd5b600061396a61396584613926565b61343b565b9050808382526020820190506020840283018581111561398d5761398c613952565b5b835b818110156139b657806139a28882613589565b84526020840193505060208101905061398f565b5050509392505050565b600082601f8301126139d5576139d46133d1565b5b81356139e5848260208601613957565b91505092915050565b600067ffffffffffffffff821115613a0957613a086133db565b5b602082029050602081019050919050565b6000613a2d613a28846139ee565b61343b565b90508083825260208201905060208402830185811115613a5057613a4f613952565b5b835b81811015613a795780613a658882613801565b845260208401935050602081019050613a52565b5050509392505050565b600082601f830112613a9857613a976133d1565b5b8135613aa8848260208601613a1a565b91505092915050565b600067ffffffffffffffff821115613acc57613acb6133db565b5b602082029050602081019050919050565b613ae68161339b565b8114613af157600080fd5b50565b600081359050613b0381613add565b92915050565b6000613b1c613b1784613ab1565b61343b565b90508083825260208201905060208402830185811115613b3f57613b3e613952565b5b835b81811015613b685780613b548882613af4565b845260208401935050602081019050613b41565b5050509392505050565b600082601f830112613b8757613b866133d1565b5b8135613b97848260208601613b09565b91505092915050565b600067ffffffffffffffff821115613bbb57613bba6133db565b5b602082029050602081019050919050565b6000613bdf613bda84613ba0565b61343b565b90508083825260208201905060208402830185811115613c0257613c01613952565b5b835b81811015613c4957803567ffffffffffffffff811115613c2757613c266133d1565b5b808601613c348982613889565b85526020850194505050602081019050613c04565b5050509392505050565b600082601f830112613c6857613c676133d1565b5b8135613c78848260208601613bcc565b91505092915050565b600080600080600060a08688031215613c9d57613c9c61330c565b5b600086013567ffffffffffffffff811115613cbb57613cba613311565b5b613cc7888289016139c0565b955050602086013567ffffffffffffffff811115613ce857613ce7613311565b5b613cf4888289016139c0565b945050604086013567ffffffffffffffff811115613d1557613d14613311565b5b613d2188828901613a83565b935050606086013567ffffffffffffffff811115613d4257613d41613311565b5b613d4e88828901613b72565b925050608086013567ffffffffffffffff811115613d6f57613d6e613311565b5b613d7b88828901613c53565b9150509295509295909350565b60008060008060808587031215613da257613da161330c565b5b6000613db087828801613589565b9450506020613dc187828801613589565b9350506040613dd287828801613af4565b925050606085013567ffffffffffffffff811115613df357613df2613311565b5b613dff87828801613889565b91505092959194509250565b600060ff82169050919050565b613e2181613e0b565b82525050565b6000602082019050613e3c6000830184613e18565b92915050565b600060208284031215613e5857613e5761330c565b5b6000613e6684828501613801565b91505092915050565b613e7881613560565b82525050565b600082825260208201905092915050565b6000613e9a8261363a565b613ea48185613e7e565b9350613eb4818560208601613656565b613ebd816132a0565b840191505092915050565b6000608082019050613edd6000830187613e6f565b8181036020830152613eef8186613e8f565b90508181036040830152613f038185613e8f565b9050613f1260608301846133a7565b95945050505050565b60008060408385031215613f3257613f3161330c565b5b6000613f4085828601613801565b925050602083013567ffffffffffffffff811115613f6157613f60613311565b5b613f6d858286016134c9565b9150509250929050565b6000819050919050565b613f8a81613f77565b8114613f9557600080fd5b50565b600081359050613fa781613f81565b92915050565b600060208284031215613fc357613fc261330c565b5b6000613fd184828501613f98565b91505092915050565b600081519050919050565b6000613ff082613fda565b613ffa8185613234565b935061400a818560208601613656565b614013816132a0565b840191505092915050565b600060208201905081810360008301526140388184613fe5565b905092915050565b600080604083850312156140575761405661330c565b5b600061406585828601613589565b925050602061407685828601613589565b9150509250929050565b600080fd5b60008083601f84011261409b5761409a6133d1565b5b8235905067ffffffffffffffff8111156140b8576140b7614080565b5b6020830191508360208202830111156140d4576140d3613952565b5b9250929050565b600080602083850312156140f2576140f161330c565b5b600083013567ffffffffffffffff8111156141105761410f613311565b5b61411c85828601614085565b92509250509250929050565b600081519050919050565b600082825260208201905092915050565b6000819050602082019050919050565b600082825260208201905092915050565b600061417082613fda565b61417a8185614154565b935061418a818560208601613656565b614193816132a0565b840191505092915050565b60006141aa8383614165565b905092915050565b6000602082019050919050565b60006141ca82614128565b6141d48185614133565b9350836020820285016141e685614144565b8060005b858110156142225784840389528151614203858261419e565b945061420e836141b2565b925060208a019950506001810190506141ea565b50829750879550505050505092915050565b6000602082019050818103600083015261424e81846141bf565b905092915050565b600080600080600060a086880312156142725761427161330c565b5b600061428088828901613589565b955050602061429188828901613589565b94505060406142a288828901613801565b93505060606142b388828901613af4565b925050608086013567ffffffffffffffff8111156142d4576142d3613311565b5b6142e088828901613889565b9150509295509295909350565b600080600080608085870312156143075761430661330c565b5b600061431587828801613589565b945050602061432687828801613589565b935050604061433787828801613801565b925050606085013567ffffffffffffffff81111561435857614357613311565b5b61436487828801613889565b91505092959194509250565b600080604083850312156143875761438661330c565b5b600061439585828601613f98565b925050602083013567ffffffffffffffff8111156143b6576143b5613311565b5b6143c285828601613889565b9150509250929050565b60006020820190506143e16000830184613e6f565b92915050565b600067ffffffffffffffff821115614402576144016133db565b5b602082029050602081019050919050565b6000614426614421846143e7565b61343b565b9050808382526020820190506020840283018581111561444957614448613952565b5b835b81811015614472578061445e8882613f98565b84526020840193505060208101905061444b565b5050509392505050565b600082601f830112614491576144906133d1565b5b81356144a1848260208601614413565b91505092915050565b600080604083850312156144c1576144c061330c565b5b600083013567ffffffffffffffff8111156144df576144de613311565b5b6144eb8582860161447c565b925050602083013567ffffffffffffffff81111561450c5761450b613311565b5b61451885828601613c53565b9150509250929050565b600081519050919050565b600082825260208201905092915050565b6000819050602082019050919050565b600061455a838361362b565b60208301905092915050565b6000602082019050919050565b600061457e82614522565b614588818561452d565b93506145938361453e565b8060005b838110156145c45781516145ab888261454e565b97506145b683614566565b925050600181019050614597565b5085935050505092915050565b600060208201905081810360008301526145eb8184614573565b905092915050565b6000602082840312156146095761460861330c565b5b600082013567ffffffffffffffff81111561462757614626613311565b5b6146338482850161447c565b91505092915050565b61464581613316565b82525050565b6000602082019050614660600083018461463c565b92915050565b600081905092915050565b600061467d8385614666565b935061468a838584613291565b82840190509392505050565b60008160601b9050919050565b60006146ae82614696565b9050919050565b60006146c0826146a3565b9050919050565b6146d86146d382613560565b6146b5565b82525050565b6000819050919050565b6146f96146f4826135cb565b6146de565b82525050565b600061470c828688614671565b915061471882856146c7565b60148201915061472882846146e8565b60208201915081905095945050505050565b600061474582613fda565b61474f8185614666565b935061475f818560208601613656565b80840191505092915050565b6000614777828461473a565b915081905092915050565b7f596f75206e656564206120746f6b656e20746f207375626d697420612071756560008201527f7374696f6e000000000000000000000000000000000000000000000000000000602082015250565b60006147de602583613e7e565b91506147e982614782565b604082019050919050565b6000602082019050818103600083015261480d816147d1565b9050919050565b7f4e487b7100000000000000000000000000000000000000000000000000000000600052601160045260246000fd5b600061484e826135cb565b91507fffffffffffffffffffffffffffffffffffffffffffffffffffffffffffffffff82036148805761487f614814565b5b600182019050919050565b7f4e487b7100000000000000000000000000000000000000000000000000000000600052602260045260246000fd5b600060028204905060018216806148d257607f821691505b6020821081036148e5576148e461488b565b5b50919050565b60008190508160005260206000209050919050565b60006020601f8301049050919050565b600082821b905092915050565b60006008830261494d7fffffffffffffffffffffffffffffffffffffffffffffffffffffffffffffffff82614910565b6149578683614910565b95508019841693508086168417925050509392505050565b6000819050919050565b600061499461498f61498a846135cb565b61496f565b6135cb565b9050919050565b6000819050919050565b6149ae83614979565b6149c26149ba8261499b565b84845461491d565b825550505050565b600090565b6149d76149ca565b6149e28184846149a5565b505050565b5b81811015614a06576149fb6000826149cf565b6001810190506149e8565b5050565b601f821115614a4b57614a1c816148eb565b614a2584614900565b81016020851015614a34578190505b614a48614a4085614900565b8301826149e7565b50505b505050565b600082821c905092915050565b6000614a6e60001984600802614a50565b1980831691505092915050565b6000614a878383614a5d565b9150826002028217905092915050565b614aa08261363a565b67ffffffffffffffff811115614ab957614ab86133db565b5b614ac382546148ba565b614ace828285614a0a565b600060209050601f831160018114614b015760008415614aef578287015190505b614af98582614a7b565b865550614b61565b601f198416614b0f866148eb565b60005b82811015614b3757848901518255600182019150602085019450602081019050614b12565b86831015614b545784890151614b50601f891682614a5d565b8355505b6001600288020188555050505b505050505050565b6000614b74826135cb565b9150614b7f836135cb565b9250828203905081811115614b9757614b96614814565b5b92915050565b7f4e487b7100000000000000000000000000000000000000000000000000000000600052603260045260246000fd5b6000614bd7826135cb565b9150614be2836135cb565b9250828201905080821115614bfa57614bf9614814565b5b92915050565b6000606082019050614c156000830186613e6f565b614c2260208301856135d5565b8181036040830152614c348184613fe5565b9050949350505050565b6000606082019050614c536000830186613e6f565b614c606020830185613e6f565b614c6d6040830184613e6f565b949350505050565b6000819050919050565b6000614c9a614c95614c9084614c75565b61496f565b613e0b565b9050919050565b614caa81614c7f565b82525050565b6000606082019050614cc56000830186613e6f565b614cd26020830185614ca1565b8181036040830152614ce48184613fe5565b9050949350505050565b7f4f6e6c79207468652070726f66696c65206f776e65722063616e20616e73776560008201527f72207175657374696f6e73000000000000000000000000000000000000000000602082015250565b6000614d4a602b83613e7e565b9150614d5582614cee565b604082019050919050565b60006020820190508181036000830152614d7981614d3d565b9050919050565b7f496e76616c6964207175657374696f6e20494400000000000000000000000000600082015250565b6000614db6601383613e7e565b9150614dc182614d80565b602082019050919050565b60006020820190508181036000830152614de581614da9565b9050919050565b600080fd5b600080fd5b600080fd5b60008083356001602003843603038112614e1857614e17614dec565b5b80840192508235915067ffffffffffffffff821115614e3a57614e39614df1565b5b602083019250600182023603831315614e5657614e55614df6565b5b509250929050565b6000614e6b828486614671565b91508190509392505050565b7f416c726561647920636c61696d65642061206672656520746f6b656e00000000600082015250565b6000614ead601c83613e7e565b9150614eb882614e77565b602082019050919050565b60006020820190508181036000830152614edc81614ea0565b9050919050565b7f4f776e61626c653a206e6577206f776e657220697320746865207a65726f206160008201527f6464726573730000000000000000000000000000000000000000000000000000602082015250565b6000614f3f602683613e7e565b9150614f4a82614ee3565b604082019050919050565b60006020820190508181036000830152614f6e81614f32565b9050919050565b6000819050602082019050919050565b60007fffffffffffffffffffffffffffffffffffffffff00000000000000000000000082169050919050565b6000614fbd8251614f85565b80915050919050565b6000614fd182613fda565b82614fdb84614f75565b9050614fe681614fb1565b92506014821015615026576150217fffffffffffffffffffffffffffffffffffffffff00000000000000000000000083601403600802614910565b831692505b5050919050565b600060a0820190506150426000830188613e6f565b61504f6020830187613e6f565b61505c6040830186613e6f565b61506960608301856135d5565b818103608083015261507b8184613fe5565b90509695505050505050565b7f4f776e61626c653a2063616c6c6572206973206e6f7420746865206f776e6572600082015250565b60006150bd602083613e7e565b91506150c882615087565b602082019050919050565b600060208201905081810360008301526150ec816150b0565b9050919050565b60006080820190506151086000830187613e6f565b61511560208301866135d5565b6151226040830185613e6f565b61512f60608301846135d5565b95945050505050565b60008190508160005260206000209050919050565b601f82111561518e5761515f81615138565b61516884614900565b81016020851015615177578190505b61518b61518385614900565b8301826149e7565b50505b505050565b61519c82613fda565b67ffffffffffffffff8111156151b5576151b46133db565b5b6151bf82546148ba565b6151ca82828561514d565b600060209050601f8311600181146151fd57600084156151eb578287015190505b6151f58582614a7b565b86555061525d565b601f19841661520b86615138565b60005b828110156152335784890151825560018201915060208501945060208101905061520e565b86831015615250578489015161524c601f891682614a5d565b8355505b6001600288020188555050505b505050505050565b60007fffffffffffffffffffff0000000000000000000000000000000000000000000082169050919050565b6000819050919050565b6152ac6152a782615265565b615291565b82525050565b60007fffff00000000000000000000000000000000000000000000000000000000000082169050919050565b6000819050919050565b6152f96152f4826152b2565b6152de565b82525050565b6000819050919050565b61531a61531582614f85565b6152ff565b82525050565b600061532c828661529b565b600a8201915061533c82856152e8565b60028201915061534c8284615309565b601482019150819050949350505050565b60006153698251613f77565b80915050919050565b600061537d82613fda565b8261538784614f75565b90506153928161535d565b925060208210156153d2576153cd7fffffffffffffffffffffffffffffffffffffffffffffffffffffffffffffffff83602003600802614910565b831692505b5050919050565b60006060820190506153ee60008301866135d5565b6153fb6020830185613e6f565b61540860408301846135d5565b949350505050565b600060608201905061542560008301866135d5565b61543260208301856133a7565b81810360408301526154448184613fe5565b9050949350505050565b61545781613f77565b82525050565b6000604082019050615472600083018561544e565b81810360208301526154848184613fe5565b90509392505050565b60006154a061549b84613816565b61343b565b9050828152602081018484840111156154bc576154bb6133d6565b5b6154c7848285613656565b509392505050565b600082601f8301126154e4576154e36133d1565b5b81516154f484826020860161548d565b91505092915050565b6000602082840312156155135761551261330c565b5b600082015167ffffffffffffffff81111561553157615530613311565b5b61553d848285016154cf565b91505092915050565b7f4e487b7100000000000000000000000000000000000000000000000000000000600052603160045260246000fdfea2646970667358221220e306c15fc48cca7f1ad3841b6a1309df35bc26ddc522c4d9ec611d73c921b4da64736f6c63430008130033",
  "linkReferences": {},
  "deployedLinkReferences": {}
}