{
  "_format": "hh-sol-artifact-1",
  "contractName": "LYXRoyale",
  "sourceName": "contracts/battleroyale.sol",
  "abi": [
    {
      "inputs": [],
      "stateMutability": "nonpayable",
      "type": "constructor"
    },
    {
      "anonymous": false,
      "inputs": [
        {
          "indexed": false,
          "internalType": "uint256",
          "name": "newReserve",
          "type": "uint256"
        }
      ],
      "name": "ContractReserveUpdated",
      "type": "event"
    },
    {
      "anonymous": false,
      "inputs": [
        {
          "indexed": true,
          "internalType": "address",
          "name": "owner",
          "type": "address"
        },
        {
          "indexed": false,
          "internalType": "uint256",
          "name": "amount",
          "type": "uint256"
        }
      ],
      "name": "ReserveWithdrawn",
      "type": "event"
    },
    {
      "anonymous": false,
      "inputs": [
        {
          "indexed": true,
          "internalType": "uint256",
          "name": "tournamentId",
          "type": "uint256"
        },
        {
          "indexed": true,
          "internalType": "address",
          "name": "creator",
          "type": "address"
        },
        {
          "indexed": false,
          "internalType": "uint256",
          "name": "entryFee",
          "type": "uint256"
        },
        {
          "indexed": false,
          "internalType": "uint256",
          "name": "endTime",
          "type": "uint256"
        }
      ],
      "name": "TournamentCreated",
      "type": "event"
    },
    {
      "anonymous": false,
      "inputs": [
        {
          "indexed": true,
          "internalType": "uint256",
          "name": "tournamentId",
          "type": "uint256"
        },
        {
          "indexed": true,
          "internalType": "address",
          "name": "winner",
          "type": "address"
        },
        {
          "indexed": false,
          "internalType": "uint256",
          "name": "prizeAmount",
          "type": "uint256"
        }
      ],
      "name": "TournamentFinalized",
      "type": "event"
    },
    {
      "inputs": [
        {
          "internalType": "address",
          "name": "",
          "type": "address"
        }
      ],
      "name": "activeTournaments",
      "outputs": [
        {
          "internalType": "uint256",
          "name": "",
          "type": "uint256"
        }
      ],
      "stateMutability": "view",
      "type": "function"
    },
    {
      "inputs": [],
      "name": "contractReserve",
      "outputs": [
        {
          "internalType": "uint256",
          "name": "",
          "type": "uint256"
        }
      ],
      "stateMutability": "view",
      "type": "function"
    },
    {
      "inputs": [
        {
          "internalType": "uint256",
          "name": "_entryFee",
          "type": "uint256"
        },
        {
          "internalType": "uint256",
          "name": "_duration",
          "type": "uint256"
        }
      ],
      "name": "createTournament",
      "outputs": [],
      "stateMutability": "nonpayable",
      "type": "function"
    },
    {
      "inputs": [
        {
          "internalType": "uint256",
          "name": "tournamentId",
          "type": "uint256"
        }
      ],
      "name": "finalizeTournament",
      "outputs": [],
      "stateMutability": "nonpayable",
      "type": "function"
    },
    {
      "inputs": [
        {
          "internalType": "uint256",
          "name": "tournamentId",
          "type": "uint256"
        }
      ],
      "name": "joinTournament",
      "outputs": [],
      "stateMutability": "payable",
      "type": "function"
    },
    {
      "inputs": [
        {
          "internalType": "address",
          "name": "",
          "type": "address"
        }
      ],
      "name": "leaderboard",
      "outputs": [
        {
          "internalType": "uint256",
          "name": "",
          "type": "uint256"
        }
      ],
      "stateMutability": "view",
      "type": "function"
    },
    {
      "inputs": [],
      "name": "owner",
      "outputs": [
        {
          "internalType": "address",
          "name": "",
          "type": "address"
        }
      ],
      "stateMutability": "view",
      "type": "function"
    },
    {
      "inputs": [],
      "name": "tournamentCount",
      "outputs": [
        {
          "internalType": "uint256",
          "name": "",
          "type": "uint256"
        }
      ],
      "stateMutability": "view",
      "type": "function"
    },
    {
      "inputs": [
        {
          "internalType": "uint256",
          "name": "",
          "type": "uint256"
        }
      ],
      "name": "tournaments",
      "outputs": [
        {
          "internalType": "address",
          "name": "creator",
          "type": "address"
        },
        {
          "internalType": "uint256",
          "name": "entryFee",
          "type": "uint256"
        },
        {
          "internalType": "uint256",
          "name": "prizePool",
          "type": "uint256"
        },
        {
          "internalType": "uint256",
          "name": "endTime",
          "type": "uint256"
        },
        {
          "internalType": "bool",
          "name": "active",
          "type": "bool"
        },
        {
          "internalType": "address",
          "name": "winner",
          "type": "address"
        }
      ],
      "stateMutability": "view",
      "type": "function"
    },
    {
      "inputs": [],
      "name": "withdrawReserve",
      "outputs": [],
      "stateMutability": "nonpayable",
      "type": "function"
    },
    {
      "stateMutability": "payable",
      "type": "receive"
    }
  ],
  "bytecode": "0x608060405234801561001057600080fd5b5033600460006101000a81548173ffffffffffffffffffffffffffffffffffffffff021916908373ffffffffffffffffffffffffffffffffffffffff160217905550611b96806100616000396000f3fe6080604052600436106100955760003560e01c8063ace1fab111610059578063ace1fab11461019f578063d115cac6146101b6578063d1d33d20146101d2578063d1e8a3651461020f578063fd426302146102385761009c565b80631ba619a4146100a15780636e2b2c7c146100ca5780637503e1b7146100f55780638da5cb5b1461013757806391b05736146101625761009c565b3661009c57005b600080fd5b3480156100ad57600080fd5b506100c860048036038101906100c3919061117d565b610263565b005b3480156100d657600080fd5b506100df6108d3565b6040516100ec91906111b9565b60405180910390f35b34801561010157600080fd5b5061011c6004803603810190610117919061117d565b6108d9565b60405161012e96959493929190611230565b60405180910390f35b34801561014357600080fd5b5061014c610962565b6040516101599190611291565b60405180910390f35b34801561016e57600080fd5b50610189600480360381019061018491906112d8565b610988565b60405161019691906111b9565b60405180910390f35b3480156101ab57600080fd5b506101b46109a0565b005b6101d060048036038101906101cb919061117d565b610bff565b005b3480156101de57600080fd5b506101f960048036038101906101f491906112d8565b610d87565b60405161020691906111b9565b60405180910390f35b34801561021b57600080fd5b5061023660048036038101906102319190611305565b610d9f565b005b34801561024457600080fd5b5061024d611095565b60405161025a91906111b9565b60405180910390f35b600080600083815260200190815260200160002090508060000160009054906101000a900473ffffffffffffffffffffffffffffffffffffffff1673ffffffffffffffffffffffffffffffffffffffff163373ffffffffffffffffffffffffffffffffffffffff161461030b576040517f08c379a0000000000000000000000000000000000000000000000000000000008152600401610302906113a2565b60405180910390fd5b8060030154421015610352576040517f08c379a00000000000000000000000000000000000000000000000000000000081526004016103499061140e565b60405180910390fd5b8060040160009054906101000a900460ff166103a3576040517f08c379a000000000000000000000000000000000000000000000000000000000815260040161039a9061147a565b60405180910390fd5b60008160050180549050036104d35760008160040160016101000a81548173ffffffffffffffffffffffffffffffffffffffff021916908373ffffffffffffffffffffffffffffffffffffffff16021790555060008160040160006101000a81548160ff0219169083151502179055506000600260008360000160009054906101000a900473ffffffffffffffffffffffffffffffffffffffff1673ffffffffffffffffffffffffffffffffffffffff1673ffffffffffffffffffffffffffffffffffffffff16815260200190815260200160002081905550600073ffffffffffffffffffffffffffffffffffffffff16827fcd5519d1592919f2c62aab2d2cf839d435a03371a12798d4d35542f466d2730c60006040516104c591906114df565b60405180910390a3506108d0565b600081600501600183600501805490506104ed9190611529565b815481106104fe576104fd61155d565b5b9060005260206000200160009054906101000a900473ffffffffffffffffffffffffffffffffffffffff1690506000606460018460020154610540919061158c565b61054a91906115fd565b905060006064600a8560020154610561919061158c565b61056b91906115fd565b90506000818386600201546105809190611529565b61058a9190611529565b9050826003600082825461059e919061162e565b925050819055507f49df4dfe3097401a1d2fa2aeb4bf63a37ef725d5efa0340b157299bb8d4b76916003546040516105d691906111b9565b60405180910390a1838560040160016101000a81548173ffffffffffffffffffffffffffffffffffffffff021916908373ffffffffffffffffffffffffffffffffffffffff16021790555060008560040160006101000a81548160ff02191690831515021790555080600160008673ffffffffffffffffffffffffffffffffffffffff1673ffffffffffffffffffffffffffffffffffffffff168152602001908152602001600020600082825461068d919061162e565b925050819055506000600260008760000160009054906101000a900473ffffffffffffffffffffffffffffffffffffffff1673ffffffffffffffffffffffffffffffffffffffff1673ffffffffffffffffffffffffffffffffffffffff1681526020019081526020016000208190555060008473ffffffffffffffffffffffffffffffffffffffff168260405161072390611693565b60006040518083038185875af1925050503d8060008114610760576040519150601f19603f3d011682016040523d82523d6000602084013e610765565b606091505b50509050806107a9576040517f08c379a00000000000000000000000000000000000000000000000000000000081526004016107a0906116f4565b60405180910390fd5b60008660000160009054906101000a900473ffffffffffffffffffffffffffffffffffffffff1673ffffffffffffffffffffffffffffffffffffffff16846040516107f390611693565b60006040518083038185875af1925050503d8060008114610830576040519150601f19603f3d011682016040523d82523d6000602084013e610835565b606091505b5050905080610879576040517f08c379a000000000000000000000000000000000000000000000000000000000815260040161087090611760565b60405180910390fd5b8573ffffffffffffffffffffffffffffffffffffffff16887fcd5519d1592919f2c62aab2d2cf839d435a03371a12798d4d35542f466d2730c856040516108c091906111b9565b60405180910390a3505050505050505b50565b60055481565b60006020528060005260406000206000915090508060000160009054906101000a900473ffffffffffffffffffffffffffffffffffffffff16908060010154908060020154908060030154908060040160009054906101000a900460ff16908060040160019054906101000a900473ffffffffffffffffffffffffffffffffffffffff16905086565b600460009054906101000a900473ffffffffffffffffffffffffffffffffffffffff1681565b60026020528060005260406000206000915090505481565b600460009054906101000a900473ffffffffffffffffffffffffffffffffffffffff1673ffffffffffffffffffffffffffffffffffffffff163373ffffffffffffffffffffffffffffffffffffffff1614610a30576040517f08c379a0000000000000000000000000000000000000000000000000000000008152600401610a27906117f2565b60405180910390fd5b600060035411610a75576040517f08c379a0000000000000000000000000000000000000000000000000000000008152600401610a6c9061185e565b60405180910390fd5b6000600354905060006003819055506000600460009054906101000a900473ffffffffffffffffffffffffffffffffffffffff1673ffffffffffffffffffffffffffffffffffffffff1682604051610acc90611693565b60006040518083038185875af1925050503d8060008114610b09576040519150601f19603f3d011682016040523d82523d6000602084013e610b0e565b606091505b5050905080610b52576040517f08c379a0000000000000000000000000000000000000000000000000000000008152600401610b49906118ca565b60405180910390fd5b7f49df4dfe3097401a1d2fa2aeb4bf63a37ef725d5efa0340b157299bb8d4b7691600354604051610b8391906111b9565b60405180910390a1600460009054906101000a900473ffffffffffffffffffffffffffffffffffffffff1673ffffffffffffffffffffffffffffffffffffffff167fcf3e2ed8c545de2d902ea60194df2faa514dad26e69937899d836f775b6973a883604051610bf391906111b9565b60405180910390a25050565b6000806000838152602001908152602001600020905080600301544210610c5b576040517f08c379a0000000000000000000000000000000000000000000000000000000008152600401610c5290611936565b60405180910390fd5b8060040160009054906101000a900460ff16610cac576040517f08c379a0000000000000000000000000000000000000000000000000000000008152600401610ca3906119a2565b60405180910390fd5b80600101543414610cf2576040517f08c379a0000000000000000000000000000000000000000000000000000000008152600401610ce990611a0e565b60405180910390fd5b80600501339080600181540180825580915050600190039060005260206000200160009091909190916101000a81548173ffffffffffffffffffffffffffffffffffffffff021916908373ffffffffffffffffffffffffffffffffffffffff160217905550346000808481526020019081526020016000206002016000828254610d7c919061162e565b925050819055505050565b60016020528060005260406000206000915090505481565b6000600260003373ffffffffffffffffffffffffffffffffffffffff1673ffffffffffffffffffffffffffffffffffffffff1681526020019081526020016000205414610e21576040517f08c379a0000000000000000000000000000000000000000000000000000000008152600401610e1890611aa0565b60405180910390fd5b6000600560008154610e3290611ac0565b91905081905590506040518060e001604052803373ffffffffffffffffffffffffffffffffffffffff168152602001848152602001600081526020018342610e7a919061162e565b8152602001600115158152602001600073ffffffffffffffffffffffffffffffffffffffff168152602001600067ffffffffffffffff811115610ec057610ebf611b08565b5b604051908082528060200260200182016040528015610eee5781602001602082028036833780820191505090505b5081525060008083815260200190815260200160002060008201518160000160006101000a81548173ffffffffffffffffffffffffffffffffffffffff021916908373ffffffffffffffffffffffffffffffffffffffff16021790555060208201518160010155604082015181600201556060820151816003015560808201518160040160006101000a81548160ff02191690831515021790555060a08201518160040160016101000a81548173ffffffffffffffffffffffffffffffffffffffff021916908373ffffffffffffffffffffffffffffffffffffffff16021790555060c0820151816005019080519060200190610fec92919061109b565b5090505080600260003373ffffffffffffffffffffffffffffffffffffffff1673ffffffffffffffffffffffffffffffffffffffff168152602001908152602001600020819055503373ffffffffffffffffffffffffffffffffffffffff16817f65dbe49181e7cbde358d94595c5e9f8cc268e7109d3741d3e0c244bd4ae8f6dc85854261107a919061162e565b604051611088929190611b37565b60405180910390a3505050565b60035481565b828054828255906000526020600020908101928215611114579160200282015b828111156111135782518260006101000a81548173ffffffffffffffffffffffffffffffffffffffff021916908373ffffffffffffffffffffffffffffffffffffffff160217905550916020019190600101906110bb565b5b5090506111219190611125565b5090565b5b8082111561113e576000816000905550600101611126565b5090565b600080fd5b6000819050919050565b61115a81611147565b811461116557600080fd5b50565b60008135905061117781611151565b92915050565b60006020828403121561119357611192611142565b5b60006111a184828501611168565b91505092915050565b6111b381611147565b82525050565b60006020820190506111ce60008301846111aa565b92915050565b600073ffffffffffffffffffffffffffffffffffffffff82169050919050565b60006111ff826111d4565b9050919050565b61120f816111f4565b82525050565b60008115159050919050565b61122a81611215565b82525050565b600060c0820190506112456000830189611206565b61125260208301886111aa565b61125f60408301876111aa565b61126c60608301866111aa565b6112796080830185611221565b61128660a0830184611206565b979650505050505050565b60006020820190506112a66000830184611206565b92915050565b6112b5816111f4565b81146112c057600080fd5b50565b6000813590506112d2816112ac565b92915050565b6000602082840312156112ee576112ed611142565b5b60006112fc848285016112c3565b91505092915050565b6000806040838503121561131c5761131b611142565b5b600061132a85828601611168565b925050602061133b85828601611168565b9150509250929050565b600082825260208201905092915050565b7f4f6e6c792063726561746f722063616e2066696e616c697a6500000000000000600082015250565b600061138c601983611345565b915061139782611356565b602082019050919050565b600060208201905081810360008301526113bb8161137f565b9050919050565b7f546f75726e616d656e74206e6f7420656e646564000000000000000000000000600082015250565b60006113f8601483611345565b9150611403826113c2565b602082019050919050565b60006020820190508181036000830152611427816113eb565b9050919050565b7f546f75726e616d656e7420616c72656164792066696e616c697a656400000000600082015250565b6000611464601c83611345565b915061146f8261142e565b602082019050919050565b6000602082019050818103600083015261149381611457565b9050919050565b6000819050919050565b6000819050919050565b60006114c96114c46114bf8461149a565b6114a4565b611147565b9050919050565b6114d9816114ae565b82525050565b60006020820190506114f460008301846114d0565b92915050565b7f4e487b7100000000000000000000000000000000000000000000000000000000600052601160045260246000fd5b600061153482611147565b915061153f83611147565b9250828203905081811115611557576115566114fa565b5b92915050565b7f4e487b7100000000000000000000000000000000000000000000000000000000600052603260045260246000fd5b600061159782611147565b91506115a283611147565b92508282026115b081611147565b915082820484148315176115c7576115c66114fa565b5b5092915050565b7f4e487b7100000000000000000000000000000000000000000000000000000000600052601260045260246000fd5b600061160882611147565b915061161383611147565b925082611623576116226115ce565b5b828204905092915050565b600061163982611147565b915061164483611147565b925082820190508082111561165c5761165b6114fa565b5b92915050565b600081905092915050565b50565b600061167d600083611662565b91506116888261166d565b600082019050919050565b600061169e82611670565b9150819050919050565b7f4661696c656420746f2073656e64207072697a6520746f2077696e6e65720000600082015250565b60006116de601e83611345565b91506116e9826116a8565b602082019050919050565b6000602082019050818103600083015261170d816116d1565b9050919050565b7f4661696c656420746f2073656e642066656520746f2063726561746f72000000600082015250565b600061174a601d83611345565b915061175582611714565b602082019050919050565b600060208201905081810360008301526117798161173d565b9050919050565b7f4f6e6c79206f776e65722063616e2063616c6c20746869732066756e6374696f60008201527f6e00000000000000000000000000000000000000000000000000000000000000602082015250565b60006117dc602183611345565b91506117e782611780565b604082019050919050565b6000602082019050818103600083015261180b816117cf565b9050919050565b7f4e6f2066756e647320746f207769746864726177000000000000000000000000600082015250565b6000611848601483611345565b915061185382611812565b602082019050919050565b600060208201905081810360008301526118778161183b565b9050919050565b7f4661696c656420746f2077697468647261772072657365727665000000000000600082015250565b60006118b4601a83611345565b91506118bf8261187e565b602082019050919050565b600060208201905081810360008301526118e3816118a7565b9050919050565b7f546f75726e616d656e7420686173206578706972656400000000000000000000600082015250565b6000611920601683611345565b915061192b826118ea565b602082019050919050565b6000602082019050818103600083015261194f81611913565b9050919050565b7f546f75726e616d656e7420696e61637469766500000000000000000000000000600082015250565b600061198c601383611345565b915061199782611956565b602082019050919050565b600060208201905081810360008301526119bb8161197f565b9050919050565b7f496e636f727265637420656e7472792066656500000000000000000000000000600082015250565b60006119f8601383611345565b9150611a03826119c2565b602082019050919050565b60006020820190508181036000830152611a27816119eb565b9050919050565b7f596f7520616c7265616479206861766520616e2061637469766520746f75726e60008201527f616d656e74000000000000000000000000000000000000000000000000000000602082015250565b6000611a8a602583611345565b9150611a9582611a2e565b604082019050919050565b60006020820190508181036000830152611ab981611a7d565b9050919050565b6000611acb82611147565b91507fffffffffffffffffffffffffffffffffffffffffffffffffffffffffffffffff8203611afd57611afc6114fa565b5b600182019050919050565b7f4e487b7100000000000000000000000000000000000000000000000000000000600052604160045260246000fd5b6000604082019050611b4c60008301856111aa565b611b5960208301846111aa565b939250505056fea2646970667358221220c63f9fb6cc6334106398c67b20150ca2ef74a6363aac943211cec1d96a7d0a1264736f6c63430008130033",
  "linkReferences": {},
  "deployedLinkReferences": {}
}